:020000040800F2
:10000000B80700209D010008491B000839180008A6
:10001000451B000885020008051F000800000000BD
:10002000000000000000000000000000F91B0008B4
:1000300089020008000000004D1B0008FD1B00089D
:10004000B7010008B7010008B7010008B7010008B0
:10005000B7010008B7010008B7010008B7010008A0
:10006000B7010008B7010008B7010008B701000890
:10007000B7010008B7010008B7010008B701000880
:10008000B7010008B7010008B7010008B701000870
:10009000B7010008B7010008B7010008B701000860
:1000A000B7010008B7010008B7010008B701000850
:1000B000B7010008B7010008B7010008B701000840
:1000C000B7010008B7010008B7010008B701000830
:1000D000B7010008B7010008B7010008B701000820
:1000E000B7010008B7010008B7010008B701000810
:1000F000B7010008B7010008B7010008B701000800
:10010000B7010008B7010008B7010008B7010008EF
:10011000B7010008B7010008BD1C0008C91C000891
:10012000B7010008B7010008B7010008B7010008CF
:10013000B7010008B7010008B7010008B7010008BF
:10014000B7010008B7010008B7010008B7010008AF
:10015000B7010008B7010008B7010008B70100089F
:10016000B7010008B7010008B7010008B70100088F
:10017000B7010008B7010008B7010008000000003F
:10018000B7010008B7010008DFF80CD000F068F8EC
:1001900000480047612E0008B80700200648804745
:1001A00006480047FEE7FEE7FEE7FEE7FEE7FEE75C
:1001B000FEE7FEE7FEE7FEE7A91C0008890100084C
:1001C0002DE9F05F0546002092469B46884606468C
:1001D000814640241BE0284641464746224600F01F
:1001E0002FF853465A46C01A914110D3114618466B
:1001F000224600F016F82D1A67EB01084F462246FA
:100200000120002100F00DF817EB00094E41201EDF
:10021000A4F10104DFDC484631462A464346BDE8E6
:10022000F09F202A04DB203A00FA02F100207047F8
:100230009140C2F1200320FA03F319439040704724
:10024000202A04DB203A21FA02F00021704721FA2B
:1002500002F3D040C2F12002914008431946704792
:10026000064C074D06E0E06840F0010394E8070003
:1002700098471034AC42F6D3FFF78AFF9464000825
:10028000B4640008FEE700007047000072B600BFCB
:10029000FEE70000B0B5B3F5804F03461AD153F81E
:1002A00022C00020CCF6F0700CEA000E91E831007C
:1002B000D1F818C040EA0E0040EA0410C96840EACC
:1002C000052040EA0C0040EA0141002043F82210DA
:1002D000B0BD00BF6FF07041002043F82210B0BDE8
:1002E0002DE9F04F83B00B68024650F8230001F16E
:1002F000240B20F0010042F82300D1E90230D1E9BB
:1003000000CE01908869D1E9049A0290C86BD1E9C6
:10031000077600909BE83008D1F8308052F82C0026
:100320008021CFF6F07108404EEA0301082B08BF88
:1003300041F04001019B194341EA090141EA0A01E8
:10034000394331432143294341EA0B01029B41EAEE
:1003500008011943009B19430143002042F82C1067
:1003600003B0BDE8F08F0000F0B500EB82025068EA
:10037000D1E902E400F0404CD1E90030D1E9045663
:1003800043EA0C03002743EA0010CFF6F07740EA77
:100390000E20896907EB055540EA04402843FE36E4
:1003A000084340EA066100205160F0BDB0B5044644
:1003B00000F0FAF8054640F21000C2F200000078A2
:1003C000611C18BF044400BF00F0EEF8401BA042BF
:1003D000FAD3B0BD2DE9F04F82B000F13E4241F6B4
:1003E000004502F1FF77C4F2020508224FEAB72662
:1003F000A84208BF0722072E38BF4FEAB7224FF0A6
:10040000010A002400274FF00008009208E000BF16
:10041000023708F10108202F04F1040400F0B48031
:100420000E680AFA08F916EA090FF1D0D1F804A00B
:100430000AF0030BABF10106012E17D803228668E0
:1004400002FA07FECA6826EA0E06BA403243826004
:100450004268CAF3001522EA090205FA08F54FEAD4
:10046000480C6FEA0E062A4342600BE00322BA40B2
:10047000D643BBF1030FBC4604D1BC464FF0030B7F
:1004800022E000BFC2688D68324005FA0CF52A43AD
:10049000BBF1020FC26017D16FF0030202EA5802EB
:1004A000024404F01C030F25D2F820E005FA03FAF9
:1004B0000D692EEA0A0E05FA03F343EA0E031362EE
:1004C000D1F804A00AF0030B02680BFA0CF33240D7
:1004D0001A431AF4403F4FF0010A026098D00022FC
:1004E00043F644030192C4F202031A6843F6004E35
:1004F00042F480421A601A68C4F2010E02F480428B
:100500000192019A28F003024FF6084C7244CFF68C
:10051000FF7C52F80C3004F00C060F25B540AB43BD
:10052000009D05FA06F6334342F80C30DEF8082049
:100530004B6842EA090643F60C4CDD0258BF22EA3A
:100540000906CEF80860C4F2010CDCF800209D0218
:1005500042EA090658BF22EA0906CCF80060DEF834
:1005600004209D0342EA090658BF22EA0906CEF894
:100570000460DEF80020DB0342EA090658BF22EAE5
:100580000906CEF8006043E702B0BDE8F08F000036
:100590000069084018BF012070470000002A08BF0A
:1005A000090481617047000040F2B010C2F20000FF
:1005B0000068704740F2100040F2B011C2F2000033
:1005C000C2F2000100780A68104408607047000019
:1005D00080B543F60040C4F20200016841F40071A6
:1005E0000160016841F480610160016841F480713B
:1005F0000160032000F084F8072000F005F800F007
:1006000027F8002080BD000070B540F21006C2F24D
:10061000000640F21C013278C2F200014FF47A73F6
:100620000968B3FBF2F20446B1FBF2F1084600F0B0
:10063000B9FB0F2C4FF0010508D838B94FF0FF3047
:1006400021460022002500F02FF87460284670BD76
:1006500082B0002043F640010190C4F202014A68D2
:1006600042F480424A604A6802F480420192019A50
:100670000090086840F080500860086800F08050E2
:100680000090009802B07047002848BF704700F003
:100690001F01012202FA01F14EF200124009CEF2CE
:1006A000000242F82010704710B54EF60C5CCEF2F6
:1006B000000CDCF80030C3F3022E8EF00704042C8B
:1006C00028BF0424BEF103034FF0FF3E0EFA04F4EA
:1006D00038BF0023A14399400EFA03F39A4300F078
:1006E0000F03043B1143634409010C3300F16042E2
:1006F000B0F1FF3FC8BF02F56443197010BD0000A0
:100700004EF60C51CEF200010A684FF6FF031A4074
:1007100060F30A2242F0806040F0FD70086070478C
:100720002DE9F041002800F08B8043F60808C4F260
:1007300002080446D8F8F8030D4600F00700884286
:1007400007D288F8F853D8F8F80300F00700A84259
:1007500076D12068810717D5410705D5D8F8001054
:1007600041F4E051C8F80010010705D5D8F8001091
:1007700041F46041C8F80010D8F80010A26821F0D8
:10078000F0011143C8F80010C0073FD1D8F8F803B2
:1007900000F00700A84207D988F8F853D8F8F80302
:1007A00000F00700A8424BD12068410707D5D8F8D0
:1007B0000010E26821F4E0511143C8F8001000076E
:1007C00008D5D8F80000216920F4604040EAC10053
:1007D000C8F8000000F07CF8D8F8001043F220526E
:1007E000C1F30311C0F60002515C40F21C0220FA72
:1007F00001F140F21400C2F200000068C2F20002EF
:100800001160FFF701FF0020BDE8F0816068811EE4
:10081000022907D258F8081C89015CBF0120BDE8F5
:10082000F08111E0012807D158F8081C89035CBF4A
:100830000120BDE8F08107E058F8081C890703D4BF
:100840000120BDE8F08100BFD8F8001021F00301BD
:100850000843C8F80000FFF7A7FE064641F28837B4
:10086000D8F80000616800F00C00B0EB810F8DD06B
:10087000FFF79AFE801BB842F2D90320BDE8F08151
:1008800040F21C0043F60801C2F20000C4F202016B
:100890000068096843F23052C1F38221C0F60002B9
:1008A000515CC8407047000040F21C0043F608014C
:1008B000C2F20000C4F202010068096843F230523B
:1008C000C1F34231C0F60002515CC84070470000DD
:1008D00010B543F60404C4F20204606800F00C0191
:1008E00042F200400829C0F2F40007D0042918BFE2
:1008F00010BD41F20020C0F27A0010BD216801F065
:100900003F02216823684902C3F3881106D4A1FB82
:1009100000010023FFF754FC07E000BF41F2002074
:10092000C0F27A004843B0FBF2F021680222C1F322
:10093000014102EB4101B0FBF1F010BD2DE9F041A6
:1009400082B000286AD00446007843F60006C0074B
:10095000C4F202060BD0B06800F00C00042840F08E
:10096000A1803068800302D56068002856D02078C6
:1009700080071AD5B06810F00C0F09D0B06800F0ED
:100980000C00082840F0A8807068400200F1A480A4
:100990003068800702D5E06801283FD130682169BE
:1009A00020F0F80040EAC10030602078000739D418
:1009B000207840074ED4A5695DB3B06800F00C0004
:1009C000082840F0BD80012D28D07068E16900F44E
:1009D00080028A4222D1216A00F03F028A421DD160
:1009E00047F6C071626A0140B1EB821F16D1A26A5C
:1009F0000023CFF6FF7303EBC23200F440316FF3F4
:100A00000F0291420AD1E16A00F07060B0EB016F11
:100A100004D1002002B0BDE8F08100BF012002B087
:100A2000BDE8F0816069002840F20000C4F2472070
:100A300076D00121C0F8801EFFF7B6FD054600BF45
:100A4000706F8007B4D4FFF7AFFD401B0228F7D9C1
:100A5000DDE000BF306C10F080580AD1002001901A
:100A6000306C40F080503064306C00F08050019069
:100A7000019847F20007C4F200073868C00541D466
:100A8000386840F480703860FFF78EFD054600BF7F
:100A90003868C00536D4FFF787FD401B0228F7D918
:100AA000B5E000BFB06800F00C00082803D1706802
:100AB00040023FF556AF6068B0F5803F07D0B0F513
:100AC000A02F40F08D80306840F480203060306886
:100AD00040F4803030608DE0E068002852D0002083
:100AE000C4F2472001210160FFF75EFD054600BF0B
:100AF000306880073FF552AFFFF756FD401B0228D4
:100B0000F6D984E0A068012805D005284ED1306FC1
:100B100040F004003067306F40F0010030674FE074
:100B20000021C0F8801EFFF73FFD0546706F80076B
:100B30007FF53EAFFFF738FD401B0228F6D966E08F
:100B40000027C4F2472700203866FFF72DFD022D4D
:100B500005460BD1306880015ED5FFF725FD401BAF
:100B600002284FF00300F5D954E700BF3068800138
:100B70007FF54FAFFFF718FD401B02284FF0030031
:100B8000F4D947E70020C4F2472000210160FFF7B5
:100B90000BFD0546306880077FF507AFFFF704FDC2
:100BA000401B02284FF00300F4D933E7316F0028CF
:100BB00021F001013167316F21F0040131674DD01F
:100BC000FFF7F2FC054641F2883700BF306F80071F
:100BD00056D4FFF7E9FC401BB842F7D917E000BF35
:100BE0003168002821F480313160316821F480219E
:100BF00031604FD0FFF7D8FC054600BF3068800356
:100C00003FF5B5AEFFF7D0FC401B6428F6D90320B2
:100C100002B0BDE8F08100BF04F11C052FCD0843F0
:100C20000021CFF6FF7140EA821001EBC3316FF370
:100C30000F0140EA05600843706001203866FFF745
:100C4000B3FC0446306880013FF5E3AEFFF7ACFC2F
:100C5000001B02284FF00300F4D9DBE6FFF7A4FCE9
:100C6000054641F2883700BF306F800708D5FFF78F
:100C70009BFC401BB8424FF00300F5D9CAE600BF09
:100C8000B8F1000F7FF497AE306C20F080503064E4
:100C900091E600BFFFF788FC054600BF306880037F
:100CA0007FF565AEFFF780FC401B64284FF0030022
:100CB000F4D9AFE6002804BF0120704770B50446A0
:100CC00090F8490015460E4628B9002084F84800DF
:100CD000204600F01DF8206804F10801FFF700FB32
:100CE0002068A2683146FFF73FFBD4E90102236B7D
:100CF0002946FFF7CFFA2068A16850F8212042F07A
:100D0000010240F82120012084F84900002070BD34
:100D10002DE9F04385B040F23C00C2F200000178BA
:100D2000E1BB012101704FF0000943F63800CDF816
:100D30000090C4F20200016840F6004441F0010155
:100D400001600068C4F2020400F001000090009805
:100D50004FF4F0606D4600904FF0020803270C2618
:100D600004F580602946CDE9018903970496FFF7D1
:100D700031FB4EF233008DE8010320462946CDE9D0
:100D80000376FFF727FB4FF480608DE8010304F53D
:100D900040602946CDE90376FFF71CFB05B0BDE8AE
:100DA000F0830000411E0020B0EB116F1CBF01203A
:100DB00070474EF21002CEF2000251604EF62351FF
:100DC000CEF20001F0230B70072190601160704794
:100DD000704700007047000010B590F83C20012AD1
:100DE0004FF0020251D080F83D200268D2F804E0B2
:100DF000D2F808C00C682EF07003234341F2FF7450
:100E0000C4F20004A24253600EDC40F2FF73C4F24D
:100E100000039A4216DCB2F1804F2BD040F200431F
:100E2000C4F2000324E000BF40F2FF33C4F2010328
:100E30009A4213DC41F60003C4F200039A4219D02F
:100E4000002313E040F60003C4F200039A4211D0DD
:100E500040F60043C4F200030AE000BF44F200037E
:100E6000C4F201039A4205D040F20043C4F20103E8
:100E70009A4204D149682CF0800319439160012102
:100E8000002280F83D1080F83C20104610BD000084
:100E9000002804BF0120704710B5044690F83D00BB
:100EA00028B9002084F83C00204600F01FF80220FA
:100EB00084F83D002068211D00F00CFF012084F81B
:100EC000460084F83E0084F83F0084F8400084F82F
:100ED000410084F8420084F8430084F8440084F818
:100EE000450084F83D00002010BD000080B584B0AE
:100EF000006842F20001C4F20001884226D041F2AB
:100F00000041C4F20001884232D041F20001C4F233
:100F10000001884229D10020039043F64000C4F22A
:100F200002000168002241F0100101600068072101
:100F300000F01000039003983620FFF7B5FB362031
:100F400004B0BDE88040FFF79FBB00BF00200190C8
:100F500043F64000C4F20200016841F48071016070
:100F6000006800F480700190019804B080BD00BF5B
:100F70000020029043F64000C4F202000168002203
:100F800041F0200101600068072100F0200002907C
:100F900002983720FFF788FB372004B0BDE8804077
:100FA000FFF772BB90F83D1001291CBF012070476C
:100FB000022180F83D10006841F2FF72C168C4F25E
:100FC0000002904241F00101C1600DDC40F2FF716E
:100FD000C4F20001884215DCB0F1804F2AD040F203
:100FE0000041C4F2000123E040F2FF31C4F20101EC
:100FF000884213DC41F60001C4F20001884219D096
:10100000002113E040F60001C4F20001884211D033
:1010100040F60041C4F200010AE000BF44F20001C2
:10102000C4F20101884205D040F20041C4F201013E
:10103000884206D1816801F00701062904BF00201B
:101040007047016841F00101016000207047000015
:1010500070470000B0B504460068C168026902EA42
:101060000105A90720D4680734D428074AD4E80624
:1010700060D4E80777D1280600F17F80680606D59E
:1010800020686FF040010161204600F081FAA80657
:1010900058BFB0BD21686FF0200220460A61BDE84C
:1010A000B040FFF797BE00BF6FF002010161012160
:1010B00021778069800703D02046FFF7C9FF05E04C
:1010C000204600F065F8204600F0A6F900202077C1
:1010D0006807CAD520686FF00401016102212177F9
:1010E000806910F4407F03D02046FFF7B1FF05E090
:1010F000204600F04DF8204600F08EF900202077C1
:101100002807B4D520686FF0080101610421217718
:10111000C069800704D02046FFF79AFF06E000BFB1
:10112000204600F035F8204600F076F900202077C0
:10113000E8069ED520686FF0100101610821217733
:10114000C06910F4407F03D02046FFF781FF05E01F
:10115000204600F01DF8204600F05EF900202077C0
:10116000E8073FF488AF20686FF001010161204675
:1011700000F0DEF928067FF581AF20686FF080016E
:1011800001612046FFF724FE68067FF580AF77E710
:10119000704700002DE9F04190F83C30012B04BF6E
:1011A0000220BDE8F0814FEAB202032A00F2FC807F
:1011B000DFE802F0023E7EBE036840F200471C6A90
:1011C0001A6A24F0020422F001021A621A46D3F8C5
:1011D00004E052F818CF8E6843F48065C4F201072A
:1011E000BD4244EA060405D1CE6824F00C0426F082
:1011F000040634430E68BD4207D1D1E905572EF4E9
:10120000407E45EA0E0545EA070E2CF0730737438A
:10121000C3F804E09F614F6809695F631C629F69BE
:1012200047F008079F619F6927F004079F61B1E0BD
:10123000036840F200481C6A1A6A24F0200422F075
:1012400010021A621A46D3F804E052F818CF8F68D9
:1012500043F48065C4F20108454544EA071407D108
:10126000CF686FF0400624F0C00406EA0716344346
:101270000F68454507D1D1E905562EF4406E4EEA78
:10128000850545EA860E2CF4E64646EA0727C3F8AC
:1012900004E09F614F6809699F631C629F6947F47E
:1012A00000679F619F6927F480679F6171E000BFBD
:1012B000036840F200481C6A1A6A24F4007422F49D
:1012C00080721A621A46D3F804E052F81CCF8F6875
:1012D00043F48065C4F20108454544EA072408D177
:1012E000CF6840F2FF463F0224F4406427EA060636
:1012F00034430F68454507D1D1E905562EF4405EC9
:101300004EEA051545EA061E2CF073063743C3F86E
:1013100004E0DF614F680969DF631C62DF6947F041
:101320000807DF61DF6927F00407DF6132E000BFF3
:10133000036840F20045D3F820C01A6A43F480677E
:1013400022F480521A621A465C6852F81CEFD1F8F7
:1013500000808E68C4F20105AF4204D14D6924F4C7
:10136000804444EA85142CF4005747EA06372EF4EB
:10137000E64646EA08265C60DE614E6809691E643E
:101380001F62DF6947F40067DF61DF6927F4806768
:10139000DF6109021368194311600021002280F8FF
:1013A0003C200846BDE8F0810121002280F83C2065
:1013B0000846BDE8F0810000002804BF0120704706
:1013C00010B5044690F83D0028B9002084F83C0090
:1013D000204600F01FF8022084F83D002068211DFF
:1013E00000F078FC012084F8460084F83E0084F880
:1013F0003F0084F8400084F8410084F8420084F8FB
:10140000430084F8440084F8450084F83D0000203F
:1014100010BD0000704700007047000041B108296E
:1014200010D0042914BF00F1410200F13F020BE08B
:1014300090F83E20012A1CBF01207047022280F84C
:101440003E2013E000F140021278012A1CBF012067
:1014500070470222082907D0042914BF80F84120D0
:1014600080F83F2002E000BF80F84020006801F0D3
:101470001F010122036A02FA01F123EA010202625A
:10148000026A114341F2FF72C4F20002904201620B
:101490000CDC40F2FF71C4F20001884214DCB0F1B0
:1014A000804F37D040F2004116E000BF40F2FF31DC
:1014B000C4F20101884215DC41F60001C4F20001CA
:1014C000884227D0002115E040F60001C4F2000157
:1014D00088421FD040F60041C4F20001884219D072
:1014E0001FE000BF44F20001C4F20101884211D0A4
:1014F00040F20041C4F20101884212D1416C40F235
:10150000004340F48062C4F2010341F400419A4276
:10151000416406D1816801F00701062904BF00205B
:101520007047016841F00101016000207047000030
:10153000006841F20041C4F20001884226D041F225
:101540000001C4F2000188421FD140F23000C2F213
:10155000000001780131CAB23C2A017038BF7047DF
:101560000021017040F20C00C2F20000427801320A
:10157000D3B23C2B427008D3417001780131CAB21A
:10158000182A017024BF00210170704700F0E0BAF2
:1015900070470000002804BF0120704710B50446C2
:1015A00090F8410028B9002084F84000204600F05F
:1015B00021F8242084F841002068C16821F40051FA
:1015C000C160204600F02CFC2068016921F49041A4
:1015D0000161416921F02A014161C16841F4005172
:1015E000C16000202021606484F8411084F842101A
:1015F000606310BD80B586B0016841F20000C4F29E
:101600000100814202D006B080BD00BF002143F638
:1016100030020191C4F20202536900F5704043F0B8
:1016200010035361536903F010030193019B01916F
:10163000136843F001031360126802F00102019283
:10164000019A4FF4C06201920222CDE902210321E6
:1016500004910721059101A9FEF7BCFE06B080BDEB
:1016600090F84230202B1CBF0220704700294FF019
:10167000010318BF002A01D11846704700230363F5
:10168000816222218285C285436480F8421001690B
:10169000006819B1C16841F48071C16041690023DB
:1016A00041F001014161C16841F02001C16018466B
:1016B000704700002DE9F041044690F841002028D1
:1016C0001CBF0220BDE8F0810F4600294FF0010049
:1016D00000F0B0801646002A08BFBDE8F0814FF048
:1016E000000821201D46C4F8448084F84100FEF71C
:1016F0005BFFA684E684A1680646B1F5805F05D14C
:101700002069002814BF3846B8460746E08CC8B1A7
:10171000681C19D0002D5FD120680AE038F8021B40
:1017200000276FF35F214160E18C0139E184E18C96
:1017300051B3016809066FD5002FEFD017F8011BD0
:10174000F1E700BF20681FE0206802E00168090699
:1017500009D4016809065FBF01685FEA0161016899
:101760005FEA0161F2D51FB117F8011B05E000BF68
:1017700038F8021B00276FF35F214160E18C0139CB
:10178000E184E18C0029E4D10168490611D4002DDF
:101790004AD0691C19D100BF016849065FBF0168C2
:1017A0005FEA416101685FEA416102D4016849066C
:1017B000F2D5202084F841000020BDE8F08100BF70
:1017C0002068C16800684006F3D4FEF7EDFE801B78
:1017D000A842F5D92AE000BF206800BF01680906C9
:1017E00008D4FEF7E1FE801BA84217D82068C16824
:1017F000F4E700BF17B117F8011B04E038F8021B2B
:1018000000276FF35F214160E18C0139E184E18CB5
:101810000029E3D1B8E700BFFEF7C6FE202084F818
:1018200041000320BDE8F081FEF7BEFE202084F8D1
:1018300041000320BDE8F081FEE7000080B58EB0D6
:1018400040F2400040F20413C2F200004FF0204288
:10185000CAF200034FF0040C002180E80C104FF492
:1018600080434FF48052C0E90C313C23C0E90A2187
:101870000F22CDE909310923CDE907224FF0110EDE
:10188000CDE900320822C0E90311C0E90511C161A8
:10189000C0E90811816341644FF0100CCDE90CE1FF
:1018A000CDE90221069107A96A46CDF82CC0CDE901
:1018B00004CEFFF7FFF9002818BFFEF7E7FC0EB0D3
:1018C00080BD0000F0B587B0002543F63000CDE9BB
:1018D00005550195C4F20200016840F6004441F04C
:1018E000040101600168C4F2020401F004010191E5
:1018F000019901950168012241F020010160016810
:10190000082601F020010191019901950168012744
:1019100041F080010160016801F0800101910199AD
:101920000195016841F010010160016801F01001AA
:10193000019101990195016841F008010160016878
:1019400001F00801019101990195016841F001013F
:101950000160016801F0010101910199019501689F
:1019600041F0400101600068082100F04000019052
:1019700001982046FEF712FE132002A9A1C102AD74
:10198000A4F580602946FEF725FD20462946CDE9CD
:101990000267CDE90477FEF71DFD07B0F0BD00003A
:1019A000B0B58CB042F2000540F29000C4F20005E0
:1019B0000021C2F20000142240F69F73CDE9051108
:1019C000CDE90311C0E90052C0E902130161816150
:1019D000FFF75EFA002818BFFEF758FC40F29000AF
:1019E000C2F20000FFF7E8FC002818BFFEF74EFC2B
:1019F000602000904FF4486040F290040190002075
:101A0000C2F2000402900490694620460022FFF7CB
:101A1000C1FB002818BFFEF739FC2068A84201D09E
:101A20000CB0B0BD002043F630010790C4F20201B3
:101A30000A6842F020020A60096801F0200107915B
:101A400007994FF4007107910221CDE908100A901F
:101A500009200B9005F5FA3007A9FEF7BBFC0CB086
:101A6000B0BD000080B582B040F2D80041F2000263
:101A70000021C2F20000C4F2000242F2CF0342F29F
:101A80000F7CCDE90011C0E90023C0E9021C81618F
:101A9000FFF7FEF9002818BFFEF7F8FB40F2D80068
:101AA000C2F200006946FFF797F9002818BFFEF759
:101AB000EDFB02B080BD000080B582B040F2201086
:101AC00041F200420021C2F20000C4F2000253239E
:101AD00040F2E73CCDE90011C0E90023C0E9021C57
:101AE0008161FFF7D5F9002818BFFEF7CFFB40F260
:101AF0002010C2F200006946FFF76EF9002818BFF7
:101B0000FEF7C4FB02B080BD80B540F2681041F220
:101B10000001C2F20000C4F2010100234FF00C0CDE
:101B20004FF4E13280E80E00C0E90333C0E905C399
:101B3000C361FFF72FFD002808BF80BDBDE88040CE
:101B4000FEF7A4BBFEE70000FEE7000070470000C0
:101B5000B0B540F60004C4F2020420460121FEF7AD
:101B600017FD40F23005C2F2000518B10020688070
:101B70000FE000BFA87801280BD801300228A87018
:101B800007D1E87828B90120E870687840F00100B2
:101B9000687020460221FEF7FBFC18B10020A5F872
:101BA00005000EE0687901280BD801300228687121
:101BB00007D1A87928B90120A871687840F00200FF
:101BC000687020461021FEF7E3FC18B10020288140
:101BD000B0BD00BF287A01280DD801300228287234
:101BE00009D1687A002818BFB0BD012068726878F2
:101BF00040F004006870B0BD70470000FEF7DABC2A
:101C0000B0B592B0002443F64000CDE90A44CDE9D6
:101C100008440594CDE90344CDE901440094C4F29D
:101C200002000168022541F080510160006800F067
:101C300080500090009847F200000094C4F2000029
:101C4000016841F4804101600068A82100F48040EF
:101C500000900098012006904FF4803007904FF4D8
:101C600080000D9004200E90119006A80C95CDE9EF
:101C70000F15FEF763FE18B172B600BFFEE700BF96
:101C80000F20CDE901054FF4A05004904FF480508F
:101C9000059001A805210394FEF742FD10B172B62C
:101CA000FEE700BF12B0B0BD4EF68850CEF2000085
:101CB000016841F4700101607047000040F2D800F3
:101CC000C2F20000FFF7C6B940F22010C2F20000D5
:101CD000FFF7C0B910B540F6FF3E0368C4F2000E2E
:101CE00040F2004C7045C4F2010C27DCB0F1804F8B
:101CF00031D040F20042C4F2000290422BD040F6B4
:101D00000002C4F20002904225D041F6FF72C4F2F4
:101D10000002904229DC70453CDCB0F1804F5FD07E
:101D200040F20042C4F20002904259D040F6000254
:101D3000C4F20002904253D056E000BF40F6004289
:101D4000C4F20002904206D0604504D00022C4F2E2
:101D500001029042D9D14A6823F07003134341F63F
:101D6000FF72C4F200029042D5DD43F6FF72C4F266
:101D70000102904222DC42F20002C4F200029042D0
:101D80002ED00022C4F20102904229D0604527D013
:101D90002AE000BF40F60042C4F2000290421FD089
:101DA00041F60002C4F20002904219D041F600420E
:101DB000C4F20002904213D016E000BF44F20002C9
:101DC000C4F2010290420BD044F60002C4F20102B8
:101DD000904205D044F20042C4F20102904203D185
:101DE000CA6823F44073134323F080024B69D1F88F
:101DF00000E08C681A430260C46240F48062C0F85C
:101E000028E0624504BF096901630121416101695C
:101E1000C90708BF10BD016921F00101016110BDB2
:101E200010B504460068D4E902C22369016921F4AF
:101E3000405111430161626943EA0C01E3691143B6
:101E4000C268194349F20C639A431143C160416966
:101E5000A26921F4407141F20043114340F48062D1
:101E6000C4F201039A42416102D1FEF71DFD01E077
:101E7000FEF706FDE16963681922B1F5004FA0FB8A
:101E800002011FD15A00DB0FFEF79AF948F21F51E9
:101E9000C5F2EB11A0FB01235A096FF0630302FBAB
:101EA0000300322303EBC000A0FB01014FF4F870E4
:101EB00000EA111000EB0210C1F34211226808433E
:101EC000906010BD9A009B0FFEF77AF948F21F51FF
:101ED000C5F2EB11A0FB01235A096FF0630302FB6B
:101EE0000300322303EB0010A0FB0101F02000EA05
:101EF000511000EB0210C1F34311226808439060B7
:101F000010BD0000FEE700002DE9F04F81B040F663
:101F10000044C4F202040225204608210022C6F62D
:101F200004054FF6FF764FF00009FEF737FBC82097
:101F3000FEF73CFA2046082101220124FEF72EFB81
:101F40006420FEF733FA042005F8040C15F8020C9F
:101F500015F8020C15F8020C15F8021C40F2200AC4
:101F600041EA0020C2F2000AAAF8060081B292A05B
:101F700001F00EF8362005F8040C3A2005F8029C12
:101F800005F8040C052005F8020CB22005F8040C35
:101F90000C20332105F8020C05F8020C05F8029C10
:101FA00005F8021C05F8021CB72105F8041C3521B0
:101FB00005F8021CBB2105F8041C372105F8021C9A
:101FC000C02105F8041C2C20C22105F8020C05F8DC
:101FD000041CC32105F8024C05F8041C122105F865
:101FE000021CC4212020C62205F8041C05F8020C9E
:101FF00005F8042C0F2205F8022CD023A42205F8A2
:10200000043C05F8022CA12205F8022CE0224FF036
:10201000040E0D214FF0110C13204FF02B0B3F2419
:102020004FF054084C2705F8042C05F8023C05F83D
:1020300002EC05F8021C05F802CC05F8020C05F8C4
:1020400002BC05F8024C05F8028C05F8027C182742
:1020500005F8027C05F8021C0B2105F8021C1F2163
:102060002327E12205F8021C05F8027C05F8042C60
:102070000C2205F8023C05F802EC05F8022C05F8E4
:1020800002CC05F8020C4FF02C08442005F8028C15
:1020900005F8024C05F8020C512005F8020C2F201F
:1020A00005F8020C202005F8021C05F8021C05F8B2
:1020B000020C212005F8027C05F8040C782005F8B4
:1020C00004CCFEF773F9292005F8040C4FF0F0104A
:1020D000CAF802002C20C0F22A00CAF80A002A20FE
:1020E0008AF80890AAF80EB005F8040CEF2005F85D
:1020F000029C05F8029C05F8029C05F8020C05F804
:1021000004BC05F8029C05F8029C05F8029C05F841
:10211000020C4FF4614005F8048C00BF48382E8053
:102120002E802E802E802E802E802E802E802E803F
:102130002E802E802E802E802E802E802E802E802F
:102140002E802E802E802E802E802E802E802E801F
:102150002E802E802E802E802E802E802E802E800F
:102160002E802E802E802E802E802E802E802E80FF
:102170002E802E802E802E802E802E802E802E80EF
:102180002E802E802E802E802E802E802E802E80DF
:102190002E802E802E802E802E802E802E802E80CF
:1021A0002E802E802E802E802E802E802E80B5D1E7
:1021B00001B0BDE8F08F00BF4C43442049443A20B1
:1021C0002578000080B582B0019040F26810C2F21C
:1021D000000001A901224FF47A73FFF76BFA01980E
:1021E00002B080BDF0B540F2200EC2F2000EBEF883
:1021F0000220BEF8043000219EF80C50C6F60401FF
:1022000003FB02FC013A013B9EF80A709EF80E4067
:1022100001F8025C0025160A0D700D700E700A7030
:102220001A0ABCF1000F01F8024C0D700D700A7013
:102230000B7001F8027C19D0ACF1010240BA032AFC
:102240000CF0030308D32CF00302524204324880FE
:10225000488048804880F9D1002B08BFF0BD012B91
:10226000488003D0022B488018BF4880F0BD000092
:1022700040F21802C2F20002108040F22000C2F2C6
:1022800000000180704700002DE9F04F83B0F02777
:10229000A7EB5307874203D3C3F1F0078F4203D262
:1022A00003B0BDE8F08F00BF5F08202BA2F120082B
:1022B00000F00081182B00F00D82102B40F02C83D1
:1022C00040F22005C2F2000540F200092E7BC6F65E
:1022D0000409C219013A95F80AC095F80EE009F808
:1022E000026C060A89F8006089F80000100A01F102
:1022F0000F0389F80000080A89F8002009F802ECA9
:1023000089F80000180A89F8001089F800004FF4D5
:10231000807089F8003009F802CC01F0CBF85FFA40
:1023200088F1794300284FEA011300F07B8340F2E3
:10233000180143F23857C2F20001C0F60007B1F8A5
:1023400000A02C8807EBD303A3F1010E00276FF048
:1023500008084FF0000C00BF1EF9015F2246B5F1DE
:10236000FF3FC8BF5246C319160A5A706A06224672
:10237000C65558BF5246160ADA70AA0622469E7003
:1023800058BF5246160A5A71EA0622461E7158BFB5
:102390005246160A9E7100EB080632742A0722463E
:1023A00058BF5246110A717469072146B27458BF6A
:1023B00051460A0AD972A90721469A7258BF514656
:1023C0000A0A5973E90721461A7308BF51460A0AD7
:1023D000BCF10F0F0CF1010C07F1100708F1100808
:1023E0009A73D973B8D30021435C421889F800303E
:1023F0005378203189F800309378B1F5807F89F8DF
:102400000030D37889F80030137989F80030537997
:1024100089F80030937989F80030D37989F8003051
:10242000137A89F80030537A89F80030937A89F862
:102430000030D37A89F80030137B89F80030537B61
:1024400089F80030937B89F80030D37B89F800301D
:10245000137C89F80030537C89F80030937C89F82C
:102460000030D37C89F80030137D89F80030537D2B
:1024700089F80030937D89F80030D37D89F80030E9
:10248000137E89F80030537E89F80030937E89F8F6
:102490000030D37E89F80030137F89F80030537FF5
:1024A00089F80030937F89F80030D27F89F80020C6
:1024B0009AD1B2E240F22009C2F2000940F2000AC9
:1024C00099F80C60C6F6040AC219013A99F80AC0D4
:1024D00099F80EE00AF8026C060A8AF800608AF899
:1024E0000000100A01F11F038AF80000080A8AF8A8
:1024F00000200AF802EC8AF80000180A8AF8001096
:102500008AF800004FF480608AF800300AF802CCA4
:1025100000F0D0FF4FF6FC71C1F6FF7101EA870EA3
:102520005FFA88F17943490100284FEAD10800F0A9
:10253000298340F21801C2F200010B88B9F800208B
:1025400044F6B84C0027C0F6000C4FF0000900BF5D
:1025500007EB08011CF9011016463F01B1F1FF3FDE
:10256000C8BF1E46340AC4557C1C06554C0614468A
:1025700058BF1C46260ABD1C4655FD1C44558C06FA
:10258000144658BF1C46250A3E1D85557D1D4455E1
:10259000CC06144658BF1C46250ABE1D8555FD1D98
:1025A00044550C07144658BF1C46250A07F1080677
:1025B000855507F1090544554C07144658BF1C467C
:1025C000250A07F10A06855507F10B0544558C07C6
:1025D000144658BF1C46250A07F10C06C907855545
:1025E00007F10D051146445508BF19460C0A07F1BD
:1025F0000E0509F10109445507F10F045FFA89F747
:10260000BE450155A4D80021435C42188AF8003029
:10261000537820318AF800309378B1F5806F8AF8CA
:102620000030D3788AF8003013798AF80030537973
:102630008AF8003093798AF80030D3798AF800302C
:10264000137A8AF80030537A8AF80030937A8AF83D
:102650000030D37A8AF80030137B8AF80030537B3D
:102660008AF80030937B8AF80030D37B8AF80030F8
:10267000137C8AF80030537C8AF80030937C8AF807
:102680000030D37C8AF80030137D8AF80030537D07
:102690008AF80030937D8AF80030D37D8AF80030C4
:1026A000137E8AF80030537E8AF80030937E8AF8D1
:1026B0000030D37E8AF80030137F8AF80030537FD1
:1026C0008AF80030937F8AF80030D27F8AF80020A1
:1026D0009AD1A2E140F2200AC2F2000A40F2000BB5
:1026E0009AF80C60C6F6040BC219013A9AF80A70FF
:1026F0009AF80E500BF8026C060A8BF800608BF803
:102700000000100A01F117038BF80000080A8BF88B
:1027100000200BF8025C8BF80000180A8BF8001000
:102720008BF800004FF410708BF800300BF8027C2F
:1027300000F0C0FE5FFA88F1490051FA88F10028E4
:102740004FEA011800F07A8240F21801C2F200014B
:10275000B1F80090BAF800E04FF0000ACDF804801C
:1027600006E000BF0AF1030ABAF1300F00F0DE8084
:1027700043F618320AEB0801C0F60002575C1AF063
:1027800001024FF004054FEA5A0108BF082501EB8A
:1027900041010292D2B94FEA810C0024002100BF0E
:1027A0004FFA87F87346B8F1FF3FC8BF4B461E0A81
:1027B00064440131620000F81460CCB20132A542D9
:1027C0004FEA47078354EBD819E000BF082202EB19
:1027D000810C0024002100BF7AB2B2F1FF3F7246A3
:1027E000C8BF4A46130A64440131660000F8143039
:1027F000CCB2731CA5424FEA4707C254ECD8DDF8AF
:1028000004800AF1010143F6183301EB0802C0F617
:1028100000039F5C11F001024FF004054FEA5101E3
:1028200008BF082501EB4101C2B94FEA810C002421
:10283000002100BF7AB2B2F1FF3F7246C8BF4A46DC
:10284000130A64440131660000F81430CCB2731CE2
:10285000A5424FEA4707C254ECD818E0082202EB21
:10286000810C0024002100BF7AB2B2F1FF3F724612
:10287000C8BF4A46130A64440131660000F81430A8
:10288000CCB2731CA5424FEA4707C254ECD80AF1F8
:10289000020143F6183301EB0802C0F600039F5C07
:1028A000029A0425002A4FEA510108BF082501EBCE
:1028B0004101BAB94FEA810C002400217AB2B2F189
:1028C000FF3F7246C8BF4A46130A6444013166009E
:1028D00000F81430CCB2731CA5424FEA4707C2542B
:1028E000ECD83FE7082202EB810C0024002100BF56
:1028F0007AB2B2F1FF3F7246C8BF4A46130A644437
:102900000131660000F81430CCB2731CA5424FEAC6
:102910004707C254ECD825E746F24740C0F600000E
:1029200003B0BDE8F04F00F033BB00BF002100BF93
:10293000435C42188BF80030537824318BF8003018
:102940009378B1F5107F8BF80030D3788BF8003096
:1029500013798BF8003053798BF8003093798BF82A
:102960000030D3798BF80030137A8BF80030537A2B
:102970008BF80030937A8BF80030D37A8BF80030E4
:10298000137B8BF80030537B8BF80030937B8BF8F4
:102990000030D37B8BF80030137C8BF80030537CF5
:1029A0008BF80030937C8BF80030D37C8BF80030B0
:1029B000137D8BF80030537D8BF80030937D8BF8BE
:1029C0000030D37D8BF80030137E8BF80030537EBF
:1029D0008BF80030937E8BF80030D37E8BF800307C
:1029E000137F8BF80030537F8BF80030937F8BF888
:1029F0000030D37F8BF8003092F820308BF8003015
:102A000092F821308BF8003092F822308BF80030A9
:102A100092F823208BF800208AD103B0BDE8F04F54
:102A200000F020BD43F2385CC0F6000C0CEBD30183
:102A300040F218064FEAD30E8A1E0023C2F20006A7
:102A400012F9027F2946B7F1FF3FC8BF3146098816
:102A500009BA090CA9F802107906294658BF31466F
:102A6000098809BA090CA9F80210B906294658BF05
:102A70003146098809BA090CA9F80210F906294655
:102A800058BF3146098809BA090CA9F8021039075C
:102A9000294658BF3146098809BA090CA9F802101D
:102AA0007907294658BF3146098809BA090CA9F89F
:102AB0000210B907294658BF3146098809BA090CDE
:102AC000A9F80210F907294608BF3146098843F0E2
:102AD000010709BA080C0EEB07011CF90110A9F84F
:102AE00002002846B1F1FF3FC8BF304600880233DC
:102AF00000BA000CA9F802004806284658BF304624
:102B0000008800BA000CA9F802008806284658BFC1
:102B10003046008800BA000CA9F80200C806284612
:102B200058BF3046008800BA000CA9F80200080718
:102B3000284658BF3046008800BA000CA9F80200A9
:102B40004807284658BF3046008800BA000CA9F84C
:102B500002008807284658BF3046008800BA000C9B
:102B6000A9F80200C807284608BF304600880F2F82
:102B700000BA4FEA1040A9F80200FFF461AFFFF776
:102B80008FBB00BF44F6B84040F218030021C0F6E6
:102B90000000C2F200030027414441564D46B1F106
:102BA000FF3FC8BF1D462E88013736BA360CAAF83B
:102BB00002604E064E4658BF1E46368836BA360C60
:102BC000AAF802608E064E4658BF1E46368836BAB0
:102BD000360CAAF80260CE064E4658BF1E4636880E
:102BE00036BA360CAAF802600E074E4658BF1E468B
:102BF000368836BA360CAAF802604E074E4658BFE1
:102C00001E46368836BA360CAAF802608E074E4643
:102C100058BF1E463688C90736BA4FEA1646494697
:102C2000AAF8026008BF1946098809BA0E0CF9B261
:102C30008E45AAF80260AFD8FFF732BB43F61831D1
:102C400040F218020020C0F60001C2F2000203E0C8
:102C5000023030283FF424AB00EB0803CB5C0027A4
:102C60005EB25546B6F1FF3FC8BF15462E8836BA4C
:102C7000350CFEB2072EABF8025023D25D06544647
:102C800058BF144625882DBA2D0CABF802509D066E
:102C9000554658BF15462D88042E2DBA4FEA1545C6
:102CA000ABF802500ED8DE06564658BF1646368898
:102CB000043736BA360CABF80260FEB2082E4FEA83
:102CC0000313CDD340F001034344CB5C002700BF86
:102CD0005EB2B6F1FF3F5646C8BF164636883D067F
:102CE00036BA4FEA1646ABF80260B1D15E065646D8
:102CF00058BF16463688043736BA360CABF8026031
:102D00009E06564658BF1646368836BA360CABF87D
:102D10000260DE06564658BF164636881B0136BA94
:102D2000360CABF802603E06D2D091E72DE9F04FA9
:102D300083B00E46A2F110011C46904610290746AA
:102D400074D80120884040F20111C0F2010108420C
:102D50006CD02078002870D04FEA580000250290EF
:102D6000F02040F22009C6F60405A0EB5800C8F197
:102D7000F00BC2F200094FF0F80A01900EE000BF1C
:102D8000002600272278B8B2B1B24346FFF77CFA9A
:102D900014F8010F0028029807444ED00199B8B2E8
:102DA00081423CBF46440027B0B28345EAD2B9F81D
:102DB0000210B9F8042099F80C7002FB01F00139F7
:102DC000013A99F80AC099F80E3005F8027C0026FD
:102DD0000F0A2E702E702F702970110A002805F826
:102DE000023C2E702E7029702A7005F802CCC8D0D3
:102DF000411E03290CD320F0030149420431A5F8F8
:102E000002A0A5F802A0A5F802A0A5F802A0F5D19D
:102E100010F00300B4D00128A5F802A0B0D0022819
:102E2000A5F802A018BFA5F802A0A9E704A0414692
:102E300000F0AEF8207800288ED103B0BDE8F08F06
:102E4000666F6E742073697A65282564292069731A
:102E5000206E6F7420737570706F727421000000A3
:102E600086B0FDF7B5FBFEF7CBFEFEF72BFDFEF7B8
:102E7000E5FCFEF795FDFEF747FEFEF7F3FDFEF7D6
:102E80001BFE40F29004C2F200042046FEF78AF8CE
:102E9000204600214FF00008FEF7C0FA40F2D800AB
:102EA000C2F20000FEF77EF840F22010C2F20000ED
:102EB000FEF778F8FFF728F84FF6FF70FFF792F962
:102EC0004FF6FF700021FFF7D3F940F23007C2F24E
:102ED000000740F26810791CC2F200000122FEF7E0
:102EE000BFFB18B172B600BFFEE700BF40F20C0690
:102EF00046F2384B48F689094AF6AB2AC2F2000678
:102F0000C0F6000B01ADC8F68809CAF6AA2A12E07D
:102F100087F80180327873783C78284659460094C7
:102F200000F046F82820642120222B46FFF7FEFE01
:102F3000C820FDF73BFA78780028EBD07878C007F6
:102F400009D030780130A0FB0A12110901EB4101D0
:102F5000A0EBC1003070787880070AD57078013016
:102F6000A0FB091251090901A1EB5211A0EB81004C
:102F7000707078784007CBD538780130A0FB091203
:102F800051090901A1EB5211A0EB81003870BFE794
:102F90000FB4054B10B503A9044A029800F02CF8B1
:102FA00010BC5DF814FB0000C521000800000020E3
:102FB0000FB4084B10B504A902AA039800F01CF83E
:102FC000044602A9002000F048FA204610BC5DF833
:102FD00014FB00005B34000802E008C8121F08C19F
:102FE000002AFAD170477047002001E001C1121F8A
:102FF000002AFBD1704700002DE9FF4F8DB00F462E
:103000000546002606E025280BD0DDE90F12904783
:103010006D1C761C28780028F5D111B03046BDE82B
:10302000F08F0024A246A1460122EC4900E00443AF
:1030300015F8013F203B02FA03F00842F7D1287847
:103040002A2810D06FF02F022878A0F1300109292A
:1030500014D80AEB8A0102EB410144F0020400EBB0
:10306000010A6D1CF0E701CF5FEA000A03D544F4C2
:103070000054CAF1000A44F002046D1C28782E287E
:1030800017D115F8010F44F004042A280ED06FF070
:103090002F022878A0F1300109290AD809EB89010B
:1030A00002EB410100EB01096D1CF2E757F8049BAC
:1030B0006D1C28786C280FD006DC4C2817D06828A7
:1030C0000DD06A2814D104E0742810D07A280FD1CA
:1030D0000DE044F400140AE044F4801401E044F4E8
:1030E00040146978814202D104F580146D1C6D1C76
:1030F0002A786E2A1FD00CDC632A31D004DC002A27
:103100008BD0582A11D1A3E0642A68D0692A0CD147
:1031100065E0732A2ED004DC6F2A73D0702A04D1A4
:103120009BE0752A6FD0782A6ED01046DDE90F1229
:103130009047761C50E1C4F30250022806D00328C1
:1031400009D0042801CF09D0066045E101CFF1176D
:10315000C0E9006140E101CF06803DE106703BE13E
:1031600017F8040B8DF8000000208DF80100EB46E5
:10317000012003E057F804BB4FF0FF3061074FF028
:10318000000102D40DE008F10101884649450FDA3B
:103190008045F8DB1BF808100029F4D108E008F19D
:1031A000010188468142FADB1BF808100029F6D19C
:1031B000DDE90F23AAEB08008146214600F036F92D
:1031C000304400EB080604E0DDE90F121BF8010BA8
:1031D0009047B8F10108F7D221464846F7E00A21A6
:1031E000C4F302534FF0000B0891022B04D001CF1F
:1031F000C117032B09D00AE0FF1D27F00707F7E8E6
:10320000020108E032E01FE020E000B2C117042B09
:1032100001D140B2C117031E71F1000307DA4FF06C
:10322000000CD0EB0C006CEB01012D2302E0230518
:1032300004D52B238DF82430012303E0E30701D0CC
:103240002023F7E7984658E00A2110E010210EE00D
:1032500010204FF0000B08900CE010214FF0000BF5
:1032600044F004044FF00809089103E008214FF0EE
:10327000000B0891C4F30253022B04D001CF0021AC
:10328000032B06D006E0FF1D27F00707F7E8020131
:1032900003E080B2042B00D1C0B24FF00008230736
:1032A0002BD5702A07D0DDF820C08CF0100C5CEA1A
:1032B0000B0C05D00EE040238DF82430012308E0EC
:1032C00050EA010306D030238DF824308DF82520F4
:1032D00002239846DDF820C08CF0080C5CEA0B0C49
:1032E0000BD150EA010301D1630706D530238DF8D5
:1032F00024304FF00108A9F10109582A04D038A25E
:103300000B9208AA0A920BE03AA2F9E75B46089AE8
:10331000FCF756FF0B9B9B5C0A9A521E0A92137095
:1033200050EA0102F2D10A98ADEB000000F1200B47
:10333000600702D524F4803401E04FF00109D9453B
:1033400002DDA9EB0B0000E0002000EB0B01414483
:103350000890AAEB010AE00306D4DDE90F23214619
:10336000504600F063F806444FF0000908E009A950
:1033700011F80900DDE90F12904709F10109761CE7
:10338000C145F4DBE0030CD5DDE90F2321465046AF
:1033900000F04CF8064404E0DDE90F1230209047BD
:1033A000761C0899481E08900029F5DC08E00A9868
:1033B0000A990078491C0A91DDE90F129047761CA2
:1033C000BBF10001ABF1010BF1DC21465046DDE918
:1033D0000F2300F019F806446D1C1BE609280100B4
:1033E000303132333435363738396162636465667B
:1033F000000000003031323334353637383941423D
:1034000043444546000000002DE9F04104460025F4
:103410001E461746880404D405E039462020B047EC
:103420006D1C641EF9D52846BDE8F0812DE9F041F8
:10343000044600251E469046C80301D5302700E00B
:103440002027880404D505E041463846B0476D1C66
:10345000641EF9D52846BDE8F0810A68531C0B604C
:103460001070704710B5002821D0114B0022001FAA
:10347000196803E0814203D80A4649680029F9D156
:1034800052B11368841A9C4204D100681844106039
:10349000104602E0506000E0186039B102680B1A73
:1034A000934203D10B681A4402604968416010BD21
:1034B00004000020F0B50B30154D20F0070100246A
:1034C000144A0FE003688B420BD38B4205D95E1A76
:1034D00043184768C3E9006700E04368136002C00F
:1034E00004E0021D10680028ECD12046002802D11B
:1034F000286808B10020F0BD064A07481060074A56
:10350000121A22F00702C0E9002401202860D7E740
:103510000800002004000020BC010020B8030020A7
:103520000000000000000000010203040607080973
:103530000000000001020304000000000000000081
:10354000000000000000000000000010101010102B
:10355000100000101000000000000028282828009B
:1035600000000000000000000000001212167F247E
:1035700024FE284848000000000008083E4948682A
:103580003E0B09493E080800000000609090620C64
:1035900030460909060000000000001C20203030E1
:1035A000494545623D000000000000101010100069
:1035B000000000000000000000000C0808101010BF
:1035C000101010080804000000003010100808084F
:1035D000080808101030000000000008493E1C6B6D
:1035E00008000000000000000000000000101010A3
:1035F000FE1010100000000000000000000000009D
:10360000000000181810200000000000000000005A
:103610000038000000000000000000000000000072
:103620000000001818000000000000020404040854
:1036300008101020202040000000001C22414149B9
:10364000414141221C000000000000182808080821
:10365000080808083E0000000000003E4301010287
:10366000060C10207F0000000000003E4101031CFA
:10367000030101433E000000000000060A1A122266
:10368000427F0202020000000000007E40407C42B7
:10369000010101423C0000000000001E3160405E5C
:1036A000634141231E0000000000007F0302040468
:1036B00008081010200000000000003E4141413E7B
:1036C000634141633E0000000000003C62414163F1
:1036D0003D0103463C0000000000000000001818F7
:1036E000000000181800000000000000000018187A
:1036F00000000018181020000000000000010E3823
:1037000040380E01000000000000000000007F00B3
:10371000007F000000000000000000000040380EA4
:10372000010E3840000000000000003844040C186E
:1037300010100010100000000000001E3321474947
:103740004949494720300E000000000814141414A1
:10375000223E2241410000000000007E4141417EA6
:10376000434141437E0000000000001E21404040D4
:10377000404040211E0000000000007C42414141C9
:10378000414141427C0000000000007F4040407FFA
:10379000404040407F0000000000007F4040407FEC
:1037A00040404040400000000000001E21404040DA
:1037B000434141211E000000000000414141417F82
:1037C00041414141410000000000007C10101010F8
:1037D000101010107C0000000000001C0404040401
:1037E00004040444380000000000004244485070C3
:1037F00078484446420000000000004040404040FD
:10380000404040407F000000000000636355555574
:1038100049414141410000000000006161515149AE
:1038200049454543430000000000001C224141413E
:10383000414141221C0000000000007E4341414301
:103840007E404040400000000000001C22414141F9
:10385000414141221E0602000000007E43414143D7
:103860007C424141400000000000001E61404030A9
:103870000E0101433E000000000000FE1010101079
:1038800010101010100000000000004141414141A3
:10389000414141633E0000000000004141222222DC
:1038A00014141414080000000000008181815A5A89
:1038B0005A66666666000000000000412214140883
:1038C00014142222410000000000008244442838E1
:1038D00010101010100000000000007F0302040808
:1038E000081020607F00000000001C101010101055
:1038F00010101010101C00000000004020202010AC
:103900001008080404040200000038080808080829
:103910000808080808380000000000102844C60005
:103920000000000000000000000000000000000097
:1039300000000000000000FF003010080000000040
:10394000000000000000000000000000001C220237
:103950003E4242463A00000000004040407C644243
:10396000424242645C00000000000000001C224053
:10397000404040221C00000000000202023E26429D
:10398000424242263A00000000000000003C26426D
:103990007E4040221C00000000000C10107C101023
:1039A000101010101000000000000000003A264225
:1039B000424242263A02221C00004040405C6242E1
:1039C00042424242420000000000101000701010FD
:1039D000101010107C0000000000080800380808D3
:1039E0000808080808080870000040404044485093
:1039F0007048484442000000000070101010101081
:103A0000101010100E00000000000000007E494958
:103A1000494949494900000000000000005C624239
:103A2000424242424200000000000000003C664268
:103A3000424242663C00000000000000005C64421C
:103A4000424242647C40404000000000003A26426E
:103A5000424242263A02020200000000003C3220AC
:103A6000202020202000000000000000003C4240F8
:103A7000700E02423C00000000000010107E10108A
:103A8000101010100E000000000000000042424222
:103A9000424242463A000000000000000042422438
:103AA0002424181818000000000000000081815A2A
:103AB0005A5A5A2424000000000000000042241832
:103AC00018182424420000000000000000422224B4
:103AD000241418180808103000000000007E0204AA
:103AE000081020407E00000000000C101010101084
:103AF0006010101010100C000000101010101010AA
:103B00001010101010101010000060101010101085
:103B10000C101010101060000000000000000000E9
:103B20000000000000000000000000000000000095
:103B30000000000000000000000000000000000085
:103B40000000000000000000000000000000000075
:103B50000600060006000600060006000600060035
:103B60000600060000000000060006000600000037
:103B70000000000000000000000000000000000045
:103B8000198019801980198019801980000000009F
:103B90000000000000000000000000000000000025
:103BA0000000000000000000000000000000000015
:103BB000066004400CC00CC07FF07FF008801980C4
:103BC0001980FFE0FFE033003300220022000000F4
:103BD00000000000000000000000000000000200E3
:103BE00002000F801FC03A40320032003A001F002E
:103BF00007C002E00260026022E03FC01F800200B6
:103C000002000200000000000000000000000000B0
:103C100078004800CC00CC00CC00484079C00E00B1
:103C200073C00240066006600660024003C00000E8
:103C30000000000000000000000000000000000084
:103C40000F801F801800180018000C001E0036306E
:103C5000633063B061A060E030C03F600E70000070
:103C60000000000000000000000000000000000054
:103C70000600060006000600060006000000000020
:103C80000000000000000000000000000000000034
:103C90000000000000000000000000000000010023
:103CA000020002000600060004000C000C000C00DC
:103CB0000C000C000C000C000400060006000200C2
:103CC00002000100000000000000000000000800E9
:103CD00004000400060006000200030003000300C5
:103CE00003000300030003000200060006000400B6
:103CF00004000800000000000000000000000000B8
:103D000004000400444035800E000E00358044401D
:103D1000040004000000000000000000000000009B
:103D20000000000000000000000000000000000093
:103D300000000000060006000600060006007FE006
:103D40007FE00600060006000600060000000000F6
:103D50000000000000000000000000000000000063
:103D60000000000000000000000000000000000053
:103D7000000000000000000006000600060006002B
:103D80000C000C000000000000000000000000001B
:103D90000000000000000000000000000000000023
:103DA0001F001F00000000000000000000000000D5
:103DB0000000000000000000000000000000000003
:103DC00000000000000000000000000000000000F3
:103DD00000000000000000000600060006000000D1
:103DE00000000000000000000000000000000000D3
:103DF000006000C000C001800180030003000600D5
:103E0000060006000C000C001800180030003000FE
:103E10006000000000000000000000000000000042
:103E20001E003F80318071C060C060C066C066C047
:103E300060C060C060C071C031803F800E00000073
:103E40000000000000000000000000000000000072
:103E500007001F001B000300030003000300030012
:103E6000030003000300030003001FE01FE0000045
:103E70000000000000000000000000000000000042
:103E80003F007F8041C000C000C000C001C0018071
:103E9000030006000C00180030007FC07FC0000047
:103EA0000000000000000000000000000000000012
:103EB0003F007F8041C000C000C001C00F800F8064
:103EC000018000C000C000C041C07F803F000000F2
:103ED00000000000000000000000000000000000E2
:103EE00003800380078005800D8009801980318060
:103EF000318061807FE07FE00180018001800000EF
:103F000000000000000000000000000000000000B1
:103F10003F803F803000300030003F003F8021C0B4
:103F200000C000C000C000C041807F803E00000093
:103F30000000000000000000000000000000000081
:103F40000F001F8038803000700060006F007F809D
:103F500071C060C060C060C031C03F801F00000001
:103F60000000000000000000000000000000000051
:103F70007FC07FC001800180018003000300030037
:103F80000600060006000C000C000C0018000000E3
:103F90000000000000000000000000000000000021
:103FA0001F003F8071C060C060C031801F003F8033
:103FB000318060C060C060C071C03F801F000000E1
:103FC00000000000000000000000000000000000F1
:103FD0001F003F80718060C060C060C071C03FC082
:103FE0001EC000C000C0018023803F001E000000F2
:103FF00000000000000000000000000000000000C1
:10400000000000000000000006000600060000009E
:10401000000000000000000006000600060000008E
:104020000000000000000000000000000000000090
:10403000000000000000000006000600060000006E
:104040000000000000000000060006000600060058
:104050000C000C0000000000000000000000000048
:10406000000000000000002001E007801E0070003A
:1040700070001E00078001E000200000000000002A
:104080000000000000000000000000000000000030
:104090000000000000000000000000007FE07FE062
:1040A000000000007FE07FE0000000000000000052
:1040B0000000000000000000000000000000000000
:1040C000000000000000400078001E00078000E0B3
:1040D00000E007801E0078004000000000000000A3
:1040E00000000000000000000000000000000000D0
:1040F0000F801FC01060006000E001C00380060058
:104100000600060000000000060006000600000091
:10411000000000000000000000000000000000009F
:104120000000078018C03060306023E06260666085
:104130006660666066606660626033E0300018004A
:104140001C000780000000000000000000000000CC
:10415000060006000F000F000F001F801980198055
:1041600019803FC03FC030C030C060606060000058
:10417000000000000000000000000000000000003F
:104180007F007F8061C060C060C061C07F807F8031
:1041900060C060606060606060E07FC07F80000041
:1041A000000000000000000000000000000000000F
:1041B00007C01FE038203000600060006000600031
:1041C000600060006000300038201FE007C0000081
:1041D00000000000000000000000000000000000DF
:1041E0007E007F8061C060C0606060606060606011
:1041F00060606060606060C061C07F807E000000C1
:1042000000000000000000000000000000000000AE
:104210007FE07FE060006000600060007FE07FE0A2
:10422000600060006000600060007FE07FE00000F0
:10423000000000000000000000000000000000007E
:104240007FE07FE060006000600060007FC07FC0B2
:1042500060006000600060006000600060000000BE
:10426000000000000000000000000000000000004E
:104270000F801FC03840300060006000600061E0C7
:1042800061E060606060306038601FE00F800000B7
:10429000000000000000000000000000000000001E
:1042A0006060606060606060606060607FE07FE0D0
:1042B00060606060606060606060606060600000BE
:1042C00000000000000000000000000000000000EE
:1042D0003FC03FC0060006000600060006000600BC
:1042E000060006000600060006003FC03FC00000B2
:1042F00000000000000000000000000000000000BE
:104300001F801F8001800180018001800180018069
:10431000018001800180018043807F003E00000019
:10432000000000000000000000000000000000008D
:10433000606060C06180630066006C007C007E008D
:10434000760063006380618060C060E060600000B0
:10435000000000000000000000000000000000005D
:10436000600060006000600060006000600060004D
:10437000600060006000600060007FE07FE000009F
:10438000000000000000000000000000000000002D
:1043900070E070E070E079E0696069606F606660AD
:1043A00066606660606060606060606060600000C1
:1043B00000000000000000000000000000000000FD
:1043C00070607060786078606C606C60646066607B
:1043D00062606360636061E061E060E060E0000093
:1043E00000000000000000000000000000000000CD
:1043F0000F003FC030C070E060606060606060606F
:1044000060606060606070E030C03FC00F0000001E
:10441000000000000000000000000000000000009C
:104420007F807FC060E060606060606060E07FC04F
:104430007F8060006000600060006000600000003D
:10444000000000000000000000000000000000006C
:104450000F003FC030C070E060606060606060600E
:1044600060606060606070E030C01F800F0001809D
:1044700000C00080000000000000000000000000FC
:104480007F007FC060E060606060606060C07FC08F
:104490007F8061C060C0606060606030603000003C
:1044A000000000000000000000000000000000000C
:1044B0001F803FC070406000600070003E001F80A1
:1044C00001C000600060006040E07FC03F800000ED
:1044D00000000000000000000000000000000000DC
:1044E000FFF0FFF0060006000600060006000600CA
:1044F0000600060006000600060006000600000092
:1045000000000000000000000000000000000000AB
:10451000606060606060606060606060606060609B
:10452000606060606060606070E03FC01F8000009D
:10453000000000000000000000000000000000007B
:104540006060606030C030C030C030C019801980F9
:1045500019801F800F000F000F00060006000000EA
:10456000000000000000000000000000000000004B
:10457000C030C030C0306060666066606F606F6081
:104580006960696039C039C039C030C030C00000CE
:10459000000000000000000000000000000000001B
:1045A00070E030C039C019800F000F00060006000F
:1045B0000F000F001B80198031C030C060E0000088
:1045C00000000000000000000000000000000000EB
:1045D000E070606030C030C019801F800F0006009E
:1045E00006000600060006000600060006000000A1
:1045F00000000000000000000000000000000000BB
:104600007FE07FE000C001C00180030007000600DA
:104610000E000C001800380030007FE07FE0000042
:104620000000000000000000000000000000078003
:1046300007800600060006000600060006000600C9
:10464000060006000600060006000600060006003A
:10465000078007800000000000000000000000004C
:10466000600030003000180018000C000C0006003C
:1046700006000600030003000180018000C000C0A6
:1046800000600000000000000000000000000F00BB
:104690000F000300030003000300030003000300F6
:1046A00003000300030003000300030003000300F2
:1046B0000F000F00000000000000000000000000DC
:1046C00007000F800D8018C03060603000000000CF
:1046D00000000000000000000000000000000000DA
:1046E00000000000000000000000000000000000CA
:1046F00000000000000000000000000000000000BA
:1047000000000000000000000000000000000000A9
:1047100000000000FFF0FFF00000000018000C0097
:104720000600030000000000000000000000000080
:104730000000000000000000000000000000000079
:104740000000000000000000000000000000000069
:1047500000000000000000001F003F8021C000C0DA
:104760001FC03FC070C060C061C07FC01CC00000DF
:1047700000000000000000000000000000006000D9
:1047800060006000600060006F007F80718060C02A
:1047900060C060C060C060C071807F806F0000003A
:1047A0000000000000000000000000000000000009
:1047B00000000000000000000F003F80308060001B
:1047C000600060006000600030803F800F000000EB
:1047D000000000000000000000000000000000C019
:1047E00000C000C000C000C01EC03FC031C060C0DB
:1047F00060C060C060C060C031C03FC01EC000006B
:1048000000000000000000000000000000000000A8
:1048100000000000000000000F003F8031C060C0B9
:104820007FC07FC06000600030403FC00F8000004C
:10483000000000000000000000000000000001E097
:1048400003E00600060006003FE03FE00600060029
:10485000060006000600060006000600060000002E
:104860000000000000000000000000000000000048
:1048700000000000000000001EC03FC031C060C04A
:1048800060C060C060C060C031C03FC01EC000C01A
:1048900021C03F801F0000000000000000006000F9
:1048A000600060006000600067007F8071C060C0D1
:1048B00060C060C060C060C060C060C060C0000018
:1048C00000000000000000000000000000000600E2
:1048D00006000000000000003E003E00060006004A
:1048E000060006000600060006007FE07FE00000EC
:1048F00000000000000000000000000000000300B5
:1049000003000000000000001F001F000300030060
:10491000030003000300030003000300030003007F
:1049200003003E003C0000000000000000006000AA
:10493000600060006000600061C0638067006E001E
:104940007C007C00760067006300618061C000002D
:104950000000000000000000000000000000FC005B
:10496000FC000C000C000C000C000C000C000C00F7
:104970000C000C000C000C000E0007C003C000006F
:104980000000000000000000000000000000000027
:1049900000000000000000006DC07FE066606660FF
:1049A000666066606660666066606660666000009D
:1049B00000000000000000000000000000000000F7
:1049C000000000000000000067007F8071C060C030
:1049D00060C060C060C060C060C060C060C00000F7
:1049E00000000000000000000000000000000000C7
:1049F00000000000000000001F003F80318060C008
:104A000060C060C060C060C031803F801F00000097
:104A10000000000000000000000000000000000096
:104A200000000000000000006F007F80718060C007
:104A300060C060C060C060C071807F806F00600037
:104A40006000600060000000000000000000000046
:104A500000000000000000001EC03FC031C060C068
:104A600060C060C060C060C031C03FC01EC000C038
:104A700000C000C000C000000000000000000000F6
:104A800000000000000000000CE00DF00F100E0010
:104A90000C000C000C000C000C000C000C000000C2
:104AA0000000000000000000000000000000000006
:104AB00000000000000000001F803FC06040600058
:104AC0007F001F8001C000C041C07F803F00000008
:104AD00000000000000000000000000000000000D6
:104AE00000000C000C000C007FC07FC00C000C000C
:104AF0000C000C000C000C000C000FC007C00000E4
:104B000000000000000000000000000000000000A5
:104B1000000000000000000060C060C060C060C015
:104B200060C060C060C060C071C03FC01CC00000F9
:104B30000000000000000000000000000000000075
:104B4000000000000000000060C071C031803180B2
:104B50003B801B001B001B000E000E000E0000001F
:104B60000000000000000000000000000000000045
:104B70000000000000000000C030C03060606660CF
:104B8000666066603FC039C039C039C030C00000BF
:104B90000000000000000000000000000000000015
:104BA000000000000000000071C031801B001F00E9
:104BB0000E000E000E001F001B00318071C00000AF
:104BC00000000000000000000000000000000000E5
:104BD000000000000000000060C0318031803180A2
:104BE0001B001B001F000E000E0006000C000C0036
:104BF0000C00380038000000000000000000000039
:104C000000000000000000007FC07FC003800300A0
:104C100007000E001C00180030007FC07FC000009D
:104C2000000000000000000000000000000003C0C1
:104C300007C00600060006000600060006003C004D
:104C40003C000E00060006000600060006000600F6
:104C500007C003C0000000000000000000000600C4
:104C60000600060006000600060006000600060014
:104C70000600060006000600060006000600060004
:104C800006000600060006000000000000003C00D0
:104C90003E0006000600060006000600060003C0EF
:104CA00003C0070006000600060006000600060016
:104CB0003E003C000000000000000000000000007A
:104CC00000000000000000000000000000000000E4
:104CD00000000000000000000000000000000000D4
:104CE00000000000000000000000000000000000C4
:104CF00000000000000000000000000000000000B4
:104D00000000000001C001C001C001C001C001C01D
:104D100001C001C001C001C001C001C001C001C08B
:104D200000000000000001C001C001C00000000040
:104D30000000000000000000000000000000000073
:104D4000000000000630063006300630063006301F
:104D500006300630000000000000000000000000E7
:104D60000000000000000000000000000000000043
:104D70000000000000000000000000000000000033
:104D80000000018C038C030C0318031803187FFF29
:104D90007FFF063006300E300C700C60FFFEFFFE09
:104DA000186018C018C018C030C031800000000062
:104DB00000000000000000000000000000000000F3
:104DC000000000800080008003F00FFC0E8C1C802F
:104DD0001C801C801C800E800FE003F800FC009EED
:104DE000008E008E008E109C1FF807F0008000805F
:104DF00000800080000000000000000000000000B3
:104E0000000000003C007E00E700C300C300C300B8
:104E1000E7007E1C3C7801C007003C7870FC01CEA6
:104E200001860186018601CE00FC007800000000AA
:104E30000000000000000000000000000000000072
:104E40000000000007C00FE01E201C001C001C001A
:104E50001E000E000F001F003F8333C371E370E399
:104E600070F6707E783C3C3E1FEE07CF00000000DD
:104E70000000000000000000000000000000000032
:104E8000000000000180018001800180018001801C
:104E90000180018000000000000000000000000010
:104EA0000000000000000000000000000000000002
:104EB00000000000000000000000000000000000F2
:104EC000000000300060006000E000C001C001C0D0
:104ED00001800380038003800380038003800380BC
:104EE00003800380018001C001C000C000E00060B9
:104EF0000060003000000000000000000000000022
:104F000000000600030003000380018001C001C00F
:104F100000C000E000E000E000E000E000E000E0B1
:104F200000E000E000C001C001C001800380030078
:104F30000300060000000000000000000000000068
:104F400000000000018001802184399C0FF003C023
:104F500003C00FF0399C2184018001800000000013
:104F60000000000000000000000000000000000041
:104F70000000000000000000000000000000000031
:104F8000000000000000000000000000018001801F
:104F900001800180018001807FFE7FFE0180018011
:104FA00001800180018001800000000000000000FD
:104FB00000000000000000000000000000000000F1
:104FC00000000000000000000000000000000000E1
:104FD00000000000000000000000000000000000D1
:104FE0000000000001C001C001C001C001800380B9
:104FF000038003000000000000000000000000002B
:1050000000000000000000000000000000000000A0
:105010000000000000000000000007F007F00000A2
:105020000000000000000000000000000000000080
:105030000000000000000000000000000000000070
:105040000000000000000000000000000000000060
:105050000000000000000000000000000000000050
:105060000000000003800380038003800000000034
:105070000000000000000000000000000000000030
:1050800000000000001C0038003800700070007044
:1050900000E000E001C001C003800380038007003E
:1050A00007000E000E001C001C001C003800380019
:1050B0007000000000000000000000000000000080
:1050C0000000000003E00FF80E381C1C1C1C380EFA
:1050D000380E380E39CE39CE39CE380E380E380E5D
:1050E000380E1C1C1C1C0E380FF803E000000000DA
:1050F00000000000000000000000000000000000B0
:105100000000000003E00FE00CE000E000E000E041
:1051100000E000E000E000E000E000E000E000E08F
:1051200000E000E000E000E00FFE0FFE00000000E5
:10513000000000000000000000000000000000006F
:10514000000000000FE03FF8383C201E000E000E6B
:10515000000E000E001E003C007C00F800F001E094
:1051600003C007000E001C003FFE3FFE00000000D1
:10517000000000000000000000000000000000002F
:105180000000000007F01FF8181C000E000E000EB3
:10519000000E003C07F007F0003C001C000E000E63
:1051A000000E000E001E303C3FF80FE00000000033
:1051B00000000000000000000000000000000000EF
:1051C00000000000007000F001F001F003700770B3
:1051D00006700C700C7018703870307060707FFE44
:1051E0007FFE007000700070007000700000000012
:1051F00000000000000000000000000000000000AF
:10520000000000001FFC1FFC1C001C001C001C00F8
:105210001FE01FF8103C001C000E000E000E000ED8
:10522000000E000E001C203C3FF81FE000000000B4
:10523000000000000000000000000000000000006E
:105240000000000001F807FC0F041E001C001C00F9
:10525000380039F03BF83E3C3C1E380E380E380E14
:10526000380E180E1C1C0E3C0FF803F00000000056
:10527000000000000000000000000000000000002E
:10528000000000003FFE3FFE001E001C001C003816
:10529000003800380070007000F000E000E001E02D
:1052A00001C001C0038003800380070000000000EC
:1052B00000000000000000000000000000000000EE
:1052C0000000000007F01FFC1C1C380E380E380EC2
:1052D000380E1C1C07F00FF81E3C1C1C380E380E34
:1052E000380E380E3C1E1E3C0FF807F00000000080
:1052F00000000000000000000000000000000000AE
:105300000000000007E00FF81E383C1C380C380E77
:10531000380E380E380E3C1E1E3E0FEE07CE000E25
:10532000001C001C003C10781FF00FC000000000A3
:10533000000000000000000000000000000000006D
:10534000000000000000000000000000000000005D
:105350000380038003800380000000000000000041
:105360000000000003800380038003800000000031
:10537000000000000000000000000000000000002D
:10538000000000000000000000000000000000001D
:105390000380038003800380000000000000000001
:1053A00000000000038003800380038003000700E7
:1053B00007000600000000000000000000000000E0
:1053C0000000000000000000000000000002001EBD
:1053D000007E01F80FC03F00780078003F000FC04A
:1053E00001F8007E001E0002000000000000000026
:1053F00000000000000000000000000000000000AD
:10540000000000000000000000000000000000009C
:10541000000000007FFE7FFE0000000000007FFE15
:105420007FFE0000000000000000000000000000FF
:10543000000000000000000000000000000000006C
:1054400000000000000000000000000040007800A4
:105450007E001F8003F000FC001E001E00FC03F015
:105460001F807E0078004000000000000000000067
:10547000000000000000000000000000000000002C
:105480000000000003E00FF81C38101C001C003C5A
:10549000003C007800F001E003C00380038003803B
:1054A00003800000000003800380038000000000F0
:1054B00000000000000000000000000000000000EC
:1054C00000000000000001F807FC0E0E1C06180387
:1054D0003003307B61FF618763036303630363030E
:1054E0006303618771FF307B300018001C000F04DC
:1054F00003FC00FC000000000000000000000000B1
:105500000000000001C003E003E003E003E00770D7
:10551000077007700F780E380E380E381FFC1FFC0E
:105520001C1C380E380E380E780F70070000000073
:10553000000000000000000000000000000000006B
:10554000000000003FE03FF83838381C381C381C99
:10555000381C38383FF03FF0383C381C380E380ED5
:10556000380E380E381E383C3FF83FE0000000008F
:10557000000000000000000000000000000000002B
:105580000000000001F807FC0F0C1E041C001C00AA
:10559000380038003800380038003800380038004B
:1055A0001C001C001E040F0C07FC01F8000000008A
:1055B00000000000000000000000000000000000EB
:1055C000000000003FC03FF03878381C381C380C11
:1055D000380E380E380E380E380E380E380E380E9B
:1055E000380C381C381C38783FF03FC000000000F1
:1055F00000000000000000000000000000000000AB
:10560000000000001FFE1FFE1C001C001C001C00F0
:105610001C001C001FFC1FFC1C001C001C001C00AC
:105620001C001C001C001C001FFE1FFE00000000D0
:10563000000000000000000000000000000000006A
:10564000000000001FFE1FFE1C001C001C001C00B0
:105650001C001C001FFC1FFC1C001C001C001C006C
:105660001C001C001C001C001C001C000000000092
:10567000000000000000000000000000000000002A
:105680000000000001F807FC0F0C1E041C001C00A9
:10569000380038003800387E387E380E380E380E24
:1056A0001C0E1C0E1C0E0F1E07FE01F80000000051
:1056B00000000000000000000000000000000000EA
:1056C00000000000380E380E380E380E380E380E36
:1056D000380E380E3FFE3FFE380E380E380E380EAC
:1056E000380E380E380E380E380E380E0000000016
:1056F00000000000000000000000000000000000AA
:10570000000000001FFC1FFC01C001C001C001C05F
:1057100001C001C001C001C001C001C001C001C081
:1057200001C001C001C001C01FFC1FFC000000003F
:105730000000000000000000000000000000000069
:105740000000000007F807F800380038003800387B
:105750000038003800380038003800380038003889
:1057600000380038203830703FF00FC000000000D3
:105770000000000000000000000000000000000029
:10578000000000003807380E381C3838387038E010
:1057900039C03B803F803FC03FC03DE038F03870AB
:1057A0003878383C381C381E380F380700000000A5
:1057B00000000000000000000000000000000000E9
:1057C000000000001C001C001C001C001C001C0031
:1057D0001C001C001C001C001C001C001C001C00E9
:1057E0001C001C001C001C001FFE1FFE000000000F
:1057F00000000000000000000000000000000000A9
:1058000000000000781E781E7C3E7C3E7C3E766E5A
:10581000766E766E724E73CE73CE718E718E700E02
:10582000700E700E700E700E700E700E0000000084
:105830000000000000000000000000000000000068
:10584000000000003C0E3C0E3E0E3E0E3E0E3B0E97
:105850003B0E3B8E398E398E38CE38CE38EE386ED0
:10586000386E383E383E383E381E381E0000000084
:105870000000000000000000000000000000000028
:105880000000000003E00FF80E381C1C1C1C380E32
:10589000380E380E380E380E380E380E380E380ED8
:1058A000380E1C1C1C1C0E380FF803E00000000012
:1058B00000000000000000000000000000000000E8
:1058C000000000001FF01FFC1C1E1C0F1C071C0703
:1058D0001C071C071C0F1C1E1FFC1FF01C001C00BB
:1058E0001C001C001C001C001C001C000000000010
:1058F00000000000000000000000000000000000A8
:105900000000000003E00FF80E381C1C1C1C380EB1
:10591000380E380E380E380E380E380E380E380E57
:10592000380E1C1C1C1C0E380FF803E000700038E9
:10593000001C00100000000000000000000000003B
:10594000000000003FE03FF03878383C381C381C3D
:10595000381C381C381C38383FF03FE038F03878B5
:105960003838383C381C381E380E380F000000001C
:105970000000000000000000000000000000000027
:105980000000000003F00FFC1E0C3C04380038003F
:1059900038003E001FC00FF803FC003C001E000E44
:1059A000000E000E201E383C3FF80FE00000000003
:1059B00000000000000000000000000000000000E7
:1059C000000000007FFF7FFF01C001C001C001C0D7
:1059D00001C001C001C001C001C001C001C001C0BF
:1059E00001C001C001C001C001C001C00000000031
:1059F00000000000000000000000000000000000A7
:105A000000000000381C381C381C381C381C381C9E
:105A1000381C381C381C381C381C381C381C381CE6
:105A2000381C381C381C1C380FF007E00000000040
:105A30000000000000000000000000000000000066
:105A4000000000007007780F380E380E380E1C1C4E
:105A50001C1C1C1C1E3C0E380E380E3807700770BC
:105A6000077003E003E003E003E001C00000000072
:105A70000000000000000000000000000000000026
:105A800000000000E007E007E007700E700E700EE7
:105A900073CE73CE73CE73CE3BDC3E7C3E7C3E7CBD
:105AA0003E7C3C3C3C3C1C381C3818180000000074
:105AB00000000000000000000000000000000000E6
:105AC0000000000078073C0F1C0E1E1E0F3C07381C
:105AD00007F003F001E001E001E003F007F00778D0
