:020000040800F2
:10000000580900205D020008033D0008A5320008E1
:10001000013D0008CB1D0008F7410008000000006A
:10002000000000000000000000000000073D000884
:10003000411E000800000000053D0008093D0008C1
:1000400077020008770200087702000877020008AC
:10005000770200087702000877020008770200089C
:10006000770200087702000877020008770200088C
:10007000770200087702000877020008770200087C
:10008000770200087702000877020008770200086C
:10009000770200087702000877020008770200085C
:1000A000770200087702000877020008770200084C
:1000B000770200087702000877020008770200083C
:1000C000770200087702000877020008770200082C
:1000D000770200087702000877020008770200081C
:1000E000770200087702000877020008770200080C
:1000F00077020008770200087702000877020008FC
:1001000077020008770200087702000877020008EB
:1001100077020008770200087702000877020008DB
:1001200077020008770200087702000877020008CB
:1001300077020008770200087702000877020008BB
:1001400077020008770200087702000877020008AB
:10015000770200087702000877020008770200089B
:10016000770200087702000877020008770200088B
:1001700077020008770200087702000800000000FC
:10018000770200087702000800F002F800F057F844
:100190000AA090E8000C82448344AAF10107DA45E2
:1001A00001D100F04CF8AFF2090EBAE80F0013F0DD
:1001B000010F18BFFB1A43F001031847707C0000C1
:1001C000907C0000103A24BF78C878C1FAD8520752
:1001D00024BF30C830C144BF04680C6070470000C1
:1001E0000023002400250026103A28BF78C1FBD840
:1001F000520728BF30C148BF0B607047662904F022
:10020000FD85642900F03881782900F07181002093
:1002100070471FB504F0EDFD9DE8030000F062FAA1
:1002200000F03EFD04000020002104F055FDE060D8
:1002300000F054FE1FBD10B500F0B9FE10BD00F077
:1002400024FF1146FFF7E5FF04F046FC01F002F839
:1002500003B4FFF7F0FF03BC01F07AF809488047C8
:1002600009480047FEE7FEE7FEE7FEE7FEE7FEE798
:10027000FEE7FEE7FEE7FEE704480549054A064BB0
:1002800070470000A13D00088901000858030020C4
:1002900058090020580500205805002070B5064672
:1002A00000F004FA056806F10B0020F00704B442E0
:1002B0009CBF002070BD2B466A68BAB11068A0428E
:1002C00010D304F1080188423CBF5068586007D33E
:1002D0005168101941601168091B01605860146071
:1002E000101D70BD13465268002AE7D121462846EA
:1002F00000F0E4F90028DED170BD70B50446051F9A
:1003000000F0D4F90068002C14BF446870BD002CC4
:1003100018BFAC423CBF20466468F8D301680A1895
:10032000AA4218BF456003D12A68054611440160FE
:1003300028684119A1421CBF6C6070BD616869608A
:1003400021680844286070BD53EA020C00F06980FF
:100350002DE9F04B4FF00006002B1FBFB3FA83F5D9
:1003600003FA05F424FA05F65E4012BF1643B2FA0A
:1003700082F502FA05F4C5F120051EBF22FA05FC3C
:1003800044EA0C04203556EA044C4FEA144418BFE2
:10039000641C4FF000084FF00009904271EB030C11
:1003A00039D3002919BFB1FA81F701FA07F6B0FA7B
:1003B00080F700FA07F6C7F120071EBF20FA07FCF6
:1003C00046EA0C062037B6FBF4FCA7EB0507103F06
:1003D00007F01F0BCBF120060CFA0BFB2CFA06F6EC
:1003E00044BFB3460026202FA4BF5E464FF0000B4B
:1003F0005BEA060C08BF4FF0010B19EB0B09ABFBD6
:10040000027C48EB0608C01B06FB02CC0BFB03CCAE
:1004100071EB0C01C1E70B46024641464846BDE878
:10042000F08B13B54FF000004FF00001AFF30080E8
:10043000BDE81C40704700000FB4044910B503AA82
:10044000029800F017FC10BC5DF814FB500200206D
:100450000FB41CB5074B06AA7B446946009005986B
:1004600000F0EFFB0020694600F0FEFB1CBC5DF8CD
:1004700014FB00000D0800002DE9F04106460024A1
:1004800010687529314616A510D0AFF300800028FA
:1004900002DA404213A507E031688A0701D512A5A8
:1004A00002E0490704D511A5012401E0AFF3008063
:1004B00000210A2206F1240709E0B0FBF2FCB0FBA0
:1004C000F2F302FB1C00303078541846491C002817
:1004D000F3D123462A463046BDE8F04100F043B947
:1004E000000000002D0000002B0000002000000094
:1004F00070B504460D4621461068AFF30080218890
:10050000090502D50F4A7A4402E00E4A7A440E32B7
:10051000002104F1240305E000F00F060009965DB8
:100520005E54491C0028F7D120780023000704D529
:10053000702D02D009B1022311322046BDE870406F
:1005400000F011B90E7800002DE9F0474FF0000AD5
:1005500089460446C0F820A02046E1688847002864
:1005600076D0252806D0D4E901219047206A401C86
:100570002062F1E7E168204600258847C4F81CA006
:1005800006460027C4F818A02A2E09D0304603F0EA
:10059000EDFF38B304EB8708303EC8F8186019E067
:1005A00059F8041B204604EB87029161E1688847F3
:1005B000012F064618D1E069002820DA25F0200531
:1005C0001DE0D8F8180000EB800006EB4000303842
:1005D000C8F818002046E1688847064603F0C6FFC1
:1005E0000028EED1012F0AD02E2E08D12046E16836
:1005F00088477F1C0646022F45F02005C4DBA06912
:10060000002803DA404245F00105A061E80701D067
:1006100025F01005B6B1A6F14100192802D8203600
:1006200045F400654A463146204625604D46FFF7B1
:10063000E5FD58B1012806D0ED1D25F0070000F1B9
:10064000080989E704E005F1040985E730468AE7EF
:10065000206ABDE8F0874FF0000200B513469446CB
:100660009646203922BFA0E80C50A0E80C50B1F10A
:100670002001BFF4F7AF090728BFA0E80C5048BF1E
:100680000CC05DF804EB890028BF40F8042B08BFBC
:10069000704748BF20F8022B11F0804F18BF00F8B8
:1006A000012B704770477047704700000048704743
:1006B00000030020704770477047704738B5044604
:1006C0000A4600206946AFF30080002808BF38BD05
:1006D00002460099204600F0EBFA012038BD0120C7
:1006E00000F098BCF8B5AFF30080054600200C463A
:1006F000102000BF0646A819A0420DD9324669460F
:100700000020AFF30080070008BF00F083FC0098D2
:10071000A04218BF0546C419FFF7C8FF0560074689
:10072000F01D20F007004619284600F00AF8B442F0
:1007300008BFF8BDA21B31463868BDE8F84000F09C
:10074000B7BA00210160C0E901107047102070475E
:1007500010B500F0A9FA006810BD10B5044600F00D
:10076000A3FA046010BD2DE9F0470D469946924664
:10077000044600F124080168880604D5E06921F0E8
:100780001001216000E00120A84201DD471B00E0CC
:100790000027A1697A1902EB0900081AA0612078E4
:1007A000C00602D42046AFF30080002608E0D4E95A
:1007B00001211AF806009047206A401C761C20622E
:1007C0004E45F4DB2078C0060AD52046AFF3008002
:1007D00006E0D4E9012130209047206A401C2062C5
:1007E000381EA7F10107F4DC07E0D4E9012118F86D
:1007F00005009047206A401C2062281EA5F10105D3
:10080000F3DC2046AFF300802078000602D50220FA
:10081000BDE8F0870120FBE770472DE9FF4F0C464C
:100820001E464FF0FF378BB0D2E90001DDF8608043
:100830000A908A46C1F30A5505B93D46002108468B
:100840004FF00000BAF1000F00F4400005DA00EBB1
:1008500080004FF4400101EA50004FEA9059B9F18D
:10086000010F00DDB9460A9850EA4A000ED044F65E
:100870001050A5F2FF3545432F14B8F1000F1ED0DC
:100880007542291E1EDDC9F100021CE0B8F1010FFE
:100890004FF0000001D0302103E0F24305E0215485
:1008A000401CB042FBDB30460022002121540B9952
:1008B000C1F80880C1E900200FB0BDE8F08FBD1B72
:1008C0006D1CDEE74A4600DA694206A800F090FA9D
:1008D00006AB93E8070003AB83E8070050460A998C
:1008E00000F0ABFE8DE80700A0F500501F38009027
:1008F0000398002D0ADD42F21F014A4608440023F6
:1009000003A90390684601F014F909E0A0F500502E
:100910004A461F38002303A90390684601F01EF9D8
:100920008DE807000004000C03D04FF0FF304108B1
:1009300000E01046B8F1000F03D0002200921546E7
:100940001EE0751E05D400F0CDF9303262556D1EE3
:10095000F9D5B3460122084302D000227F1C04E0EF
:100960002078302801D100227F1E002A099784D0E8
:100970001DE0112D07DA00F0B5F9303262556D1C1B
:1009800050EA0102F5D1084302D00098C8B10EE048
:100990000021681E05E0235C625C63542254401E03
:1009A000491C8142F7DBAB46A81B401E0990002082
:1009B00004F80B000B98099AC0F80880C0E9002BD6
:1009C0007AE711264FF0000857E72DE9F04F8846E7
:1009D0000446D21D22F0070191B0D1E90001CDE912
:1009E0000A0103F009FC02460B98C00F01D02D202C
:1009F00007E02068810701D52B2002E0202101EAD1
:100A0000C000032A099001D0072A05DB03464146AE
:100A1000204600F0ADF90BE12078800601D5E069B1
:100A200000E00620B8F1650F814606D0B8F1660FE8
:100A300018D0B8F1670F70D131E00020B9F1110F73
:100A4000009001DB112301E009F101030AAA01A9C9
:100A50000CA8FFF7E2FEDDE90C70002609F10105A4
:100A6000834647E001204B4600904FF000470AAA1A
:100A700001A90CA8FFF7D1FEDDE90DB00C995D4688
:100A8000002610B909F101000D18B9EB050003D4D7
:100A9000C0F1FF3609F10105A5EB09002BE0B9F122
:100AA000010F01DA4FF001090020B9F1110F009098
:100AB000484601DD112300E003460AAA01A90CA85B
:100AC000FFF7ABFEDDE90C704D460026834620782B
:100AD00000070AD4AB4500DA5D4601A8012D04DD0C
:100AE000411911F8011C302907D04F4502DA17F1DE
:100AF000040F04DA012082460FE06D1EEEE7002F9E
:100B000002DCED1B3E4403E0781CA84200DD7D1CA6
:100B1000B81B00F1010A4FF000472078000703D40A
:100B2000AA4501DB4FF0FF3A0021B7F1004F0DF16C
:100B300043088DF8431024D002202B23002F01DA24
:100B40007F422D230A21021EA0F1010000DC5FB1CB
:100B500097FBF1FC97FBF1F201FB1C7C17460CF1B3
:100B6000300C08F801CDEEE7A8F1010003702188F0
:100B7000090501D5452100E06521A0F1010800F833
:100B8000011C09980FA9A1EB0807FF1D00B1012066
:100B9000411901EBEA70A1693844081A401EA061AE
:100BA0002078C00602D42046AFF30080099828B10F
:100BB000D4E901219047206A401C20622078C006B9
:100BC00022D52046AFF300801EE0002E04DBB345A3
:100BD00002DD01A8805D00E03020D4E901219047CA
:100BE000206A401C2062761CAAF101005FEA000A1C
:100BF0000AD100F055F8C0680168405CD4E90121D1
:100C00009047206A401C2062281EA5F10105DCDC0B
:100C100007E0D4E9012118F8010B9047206A401C35
:100C20002062381EA7F10107F3DC2046AFF30080F5
:100C3000032011B041E6000001694A1C02610878F6
:100C4000704700B58FB0CDE901310021059105490C
:100C50007944CDE9031011466846FFF775FC0FB0E3
:100C600000BD0000E5FFFFFF0A6802F8010B0A6003
:100C700070470000074B70B50D467B44FFF7E1FF5E
:100C80000446284600F026F910B14FF0FF3070BD41
:100C9000204670BD5F3A000000487047F80200200F
:100CA000004870471803002000487047F8020020F1
:100CB000034640688C46002818BF88423CBF034664
:100CC0004068F8D318681844884207D00CF1030034
:100CD00020F00700001D411A521A0146081D0A6043
:100CE000FFF70BBB30B5B0F10A024FEA900E71F17D
:100CF00000034EEA817EB0EB0E0061EB91014FEAFA
:100D0000101E4EEA017E10EB0E0041EB11114FEA6E
:100D1000102E4EEA016E10EB0E0041EB11214FEA4E
:100D2000104E4EEA014E10EB0E0041EB11414018FF
:100D300041F100014FEAD00040EA41704FEAD10191
:100D400010EB80054FEA810444EA907444EB0104FF
:100D50006D1944EB0404521BA3414FF0000348BF3C
:100D60000A3200D530BD401C41F1000130BD000009
:100D70002DE9F0411F46044603260168072A01F4C5
:100D8000006004DB08B116A505E016A503E008B174
:100D900015A500E015A521F010002060A069C01E77
:100DA000A0610FB1401EA0612046AFF300804FB19B
:100DB000D4E9012138469047206A401C2062C01CBB
:100DC000206206E0206AFAE7D4E9012115F8010B58
:100DD0009047761EF8D22046AFF30080BDE8F08140
:100DE0004E414E006E616E00494E4600696E6600CF
:100DF0002DE9F047814616468AB0354878440DC83B
:100E00008DE80D0032487844801C03AC0DC884E89E
:100E10000D0041F69B300844372190FBF1F290FB26
:100E2000F1F5A5F1800501FB12041B3C02D56442DB
:100E3000012000E00020DFF898A080460027FA4457
:100E4000AAF1BE0A0EE0E0070AD03246684607EB78
:100E5000470101230AEB810100F080FE8DE80700C5
:100E600064107F1C002CEED1194F7F44AE3F19E077
:100E7000E80715D007EB04100DF1180A90E80E00F2
:100E80008AE80E00C068F04201D1981908903246F5
:100E9000012306A903A800F061FE03AB83E8070065
:100EA0006D10641C002DE3D14FF0010332466946FA
:100EB000B8F1000F03A802D000F03BFE01E000F003
:100EC0004DFEC9E90001C9F808200AB0BDE8F08765
:100ED000BC6F0000007B00F08000704710B54248F6
:100EE0005421FFF7B8FB41485421FFF7B4FB4048B9
:100EF0005421FFF7B0FB3F493B483C4A3F4B086059
:100F00003D490A603A491960531C0365481C106545
:100F1000012008653B48344A39A1784400F0FEF8C6
:100F200020B9384878440A3800F0A2F937482F4AE7
:100F300035A1784400F0F2F820B9344878440A38F2
:100F400000F096F932482A4A2FA1784400F0E6F8DA
:100F500020B92F4878440A3800F08AF94023224803
:100F6000DC000021224600F0B5F820B12548784485
:100F7000543800F07DF91D4822464023002100F03E
:100F8000A9F820B121487844543800F071F9184884
:100F900022461023002100F09DF8002806D01C48AE
:100FA0007844BDE81040563800F062B910BD1048D2
:100FB00070B5006D20F001040B4800F025F90B48D6
:100FC00000F022F90A4800F01FF909E0206D20F036
:100FD0000105204600F018F92046FFF78EF92C464F
:100FE000002CF3D170BD0000FC0100205002002055
:100FF000A402002064000020680000206C00002093
:1010000072000000B66E000077000000A26E0000C3
:101010008E6E000010B500F033F9BDE8104000F00E
:1010200022B90EB5CDE9000100F0C0FA0290694680
:101030000120ABBE0EBD08B5694600900220ABBED4
:1010400008BD1FB58DE8070069460520ABBE04B09A
:1010500010BD1FB58DE80F0069460620ABBEF6E750
:1010600008B5694600900920ABBE08BD1CB5CDE9A6
:10107000000169460A20ABBE1CBD704708B5694631
:1010800000900C20ABBE08BD70477546FFF704FE0C
:10109000AE4605006946534620F00700854618B065
:1010A00020B5FFF7E9F8BDE820404FF000064FF00B
:1010B00000074FF000084FF0000B21F00701AC468D
:1010C000ACE8C009ACE8C009ACE8C009ACE8C009AC
:1010D0008D46704770B5C468A50713D0650211D45A
:1010E000B2F5807F09D0B2F5007F06D0B2F5806FEF
:1010F00008D1012300F1240106E05D1E6FF07F4658
:10110000B54201D3012070BD0161C361416024F487
:1011100070611143C160002070BD00002DE9F041F5
:101120000C4607461646104600F06EF82078611C03
:1011300061280AD0722802D077283CD102E001252C
:10114000002405E00225042402E0082448F20205F8
:1011500011F8010B2B2806D0622809D011F8010CD8
:1011600074280AD00BE045F0030544F00204EFE7D1
:1011700045F0040544F00104EAE744F01004384661
:101180002146FFF74EFF411C15D0002131617160EF
:101190004FF40071F560F1617061200704D53046AD
:1011A0000222002100F0DAF8306D40F001003065D5
:1011B0003046BDE8F0810020FBE72DE9F0410D4607
:1011C0000646104C206DC10704D0410804D020F021
:1011D0000104F7E722460EE05420FFF75FF807000E
:1011E0000ED0206D47F00101084354212065384698
:1011F000FFF731FA3A4629463046BDE8F0418DE71F
:101200000020D6E7FC0100202DE9F04704464FF00E
:1012100000094FF0FF37C568D4E90486A80707D056
:10122000204600F04BF93046FFF705FF002802DAB0
:101230003846BDE8F087280502D54046FFF75DF83F
:101240004C212046FFF707FA206D20F001002065B1
:101250004846EEE710B50446AFF300802046BDE8EF
:101260001040FEF7F5BF002801D000F071B87047BC
:1012700010B500F081F9BDE81040FFF7F4BF0000A1
:1012800010B5012805D0002103A000F05BF9012072
:1012900010BD09A1F8E7000053494752544D454D90
:1012A0003A204F7574206F662068656170206D6507
:1012B0006D6F7279000000003A2048656170206D02
:1012C000656D6F727920636F7272757074656400FA
:1012D0004FF0013C50F8042B51F8043B9A4221D1C5
:1012E000A2EB0C03934313EACC1317D150F8042B51
:1012F00051F8043B9A4215D1A2EB0C03934313EA35
:10130000CC130BD150F8042B51F8043B9A4209D16D
:10131000A2EB0C03934313EACC13DBD04FF0000095
:10132000704700BFD01A01BAB1FA81F101F018017B
:1013300022FA01F0CB40C1F12001DBB2C0B2C01AE9
:101340002CFA01F3D11A914311EAC311E6D1704787
:1013500001491820ABBEFEE7260002002DE9F0414E
:10136000044616460D464769007B80072ED0384656
:10137000FFF776FE50BB3EB3012E02D0022E25D1E0
:1013800004E0204600F038F905441DE03846FFF738
:1013900075FEE168002841F01001E16005DA2046A1
:1013A00000F058F80120BDE8F081C9030BD5626850
:1013B000E16A914200D81146A26911442269891A52
:1013C000814200DD08460544002D01DA0220EAE7EB
:1013D000E16A6068E268814206D29103E06203D567
:1013E00022F4003141F01002A6690027AE4213DC5E
:1013F000E16A814201D90B4600E0034603EB060C8B
:101400002369ACEB030CAC4506DD814201D98C4667
:1014100000E084469C4505D1A760276042F020008B
:10142000A5620DE0AD1BE669AE1B8142A66000D946
:101430000846C01A281A20605819606022F020005F
:1014400003490840E060002084F84870ABE70000E2
:10145000BFCFD7FFC16821F4001141F08001C16006
:1014600000218160016070472DE9F04781461446F4
:101470000E464FF0FF383248D5685769054209D00B
:101480003846A169FFF7F2FD002811DB2C48C04364
:101490000540E5602B46324649463846FFF7D1FD08
:1014A000A16920F00042B21A11440028A16103D0C2
:1014B0002046FFF7CFFF4046BDE8F08770B50446F1
:1014C0000569C06A6168884200D80846E16821F46D
:1014D0002011E160C90312D5A84208D02246411B61
:1014E0002846FFF7C1FF10B14FF0FF3070BD00205C
:1014F000E562C4E90150E06820F48030E06000203B
:1015000070BD10B50446C06820F02000E060A16AFC
:10151000A06988420DD02046FFF7D0FFE06820F494
:10152000405040F01000E060A06AA0612069E062D5
:10153000606044F24001E0688843E06010BD000054
:101540001000020070B505460C460A2000E06D1C34
:1015500000F04BF835B128780028F8D102E0641C7F
:1015600000F043F814B120780028F8D1BDE87040AD
:101570000A2000F03AB8000010B5014602A0FFF7BB
:10158000E1FF012010BD0000534947525452454429
:101590003A2052656469726563743A2063616E270C
:1015A00074206F70656E3A200000000010B5431C77
:1015B00002E010F8011B71B18107FAD14FF001323E
:1015C00002C88C1A8C4314EAC211F9D0C01A0A0658
:1015D00003D0C01E10BDC01A10BD0A0401D0801E69
:1015E00010BD0902FCD0401E10BD08B569468DF83B
:1015F00000000320ABBE08BD10B50146C2689007CD
:1016000003D0900607D5886A0AE0FFF74DFB012159
:101610000160881E10BD8B69486818440B69C01AA8
:1016200091F848301BB191F84910401A10BD1103D0
:10163000FCD50028FADD401E10BD5FEA400C08BF53
:1016400091F0000F4FEA8C234FEAC12243EA515137
:101650004FEA1C5018BF00F5F0404FEA300018BFA9
:1016600041F000415FEA6C5C00F02980BCF1FF3F73
:1016700008BF40F080407047130C06BF12044FF0C3
:10168000100C4FF0000C130E04BF12020CF1080CEA
:10169000130F04BF12010CF1040C930F04BF92004E
:1016A0000CF1020CD30F04BF52000CF1010C1146D7
:1016B0004FF00002A0F11F00A0EB0C00704711F0EA
:1016C000004F08BF704731F000413FF4D5AF0B0C1D
:1016D00006BF09044FF0100C4FF0000C0B0E04BFB6
:1016E00009020CF1080C0B0F04BF09010CF1040CEA
:1016F0008B0F04BF89000CF1020CCB0F04BF490013
:101700000CF1010CCCF12003A0EB0C0022FA03F346
:1017100002FA0CF241EA030100F10100704720F0E7
:101720007F4C80EA030023F07F47ACEB070303F50F
:101730007C5300F0004003F1FF032DE980494FEA9C
:10174000154B09B44FEA144325EA0B4E24EA03482B
:101750000FF2042606EB132749083E785FEA3202AF
:1017600003FB0667C7F5000707FB06F64FEA543789
:101770004FEAD64606F1020607FB066CCCF1005C88
:101780004FEA1C472CEA074C07FB06F40CFB06F556
:1017900004EB15464FEA961634BF00204FF0004088
:1017A0004FEAD13706FB07FC4FEA1C4C0CFB0BF74A
:1017B000D21B03FB0CF761EB07010CFB0EF7B0EB40
:1017C000074072EB17420CFB08F734BFA2EB07424D
:1017D000B2EB074261EB17414FEA0C444FEA910725
:1017E00006FB07FC4FEA1C4C0CFB0BF7B0EBC740A9
:1017F00072EB573203FB0CF734BFA2EBC742B2EBDC
:10180000C74261EB57310CFB0EF7B0EBC70072EB30
:1018100057720CFB08F734BFA2EBC702B2EBC7024A
:1018200061EB5771039F4FEA816141EA921104EB2A
:10183000CC044FEAD1374FEA826206FB07FC42EA4A
:1018400090124FEA80604FEA1C4C0CFB0BF7D21B46
:1018500003FB0CF761EB07010CFB0EF7B0EB074045
:1018600072EB17420CFB08F734BFA2EB0742B2EB56
:10187000074261EB17414FEA8C554FEA910704EBA1
:101880009C2406FB07FC4FEA1C4C0CFB0BF7B0EB4F
:10189000C74072EB573203FB0CF734BFA2EBC742D1
:1018A000B2EBC74261EB57310CFB0EF7B0EBC70050
:1018B00072EB57720CFB08F734BFA2EBC702B2EB16
:1018C000C70261EB577115EB4C254FEA816141EA84
:1018D00092114FEA82624FEAD13742EA901206FB38
:1018E00007FC44F100044FEA80604FEA1C4C0CFBFB
:1018F0000BF7D21B03FB0CF761EB07010CFB0EF798
:10190000B0EB074072EB17420CFB08F734BFA2EBB9
:101910000742B2EB074261EB174115EB1C154FEA8A
:10192000813141EA92414FEA823242EA90424FEAE3
:1019300080304FEA0C7644F1000448EA03434EEA53
:101940000B484FF0000EB2EB080C71EB030724BFFD
:10195000624639464EEB0E0E4FF0000B0018524116
:1019600049414BEB0B0BB2EB080C71EB03077BF11E
:10197000000B24BF624639464EEB0E0E4FF0000BB3
:101980000018524149414BEB0B0BB2EB080C71EBC9
:1019900003077BF1000B24BF624639464EEB0E0E67
:1019A00051EA020718BF46F0010616EB0E7655F114
:1019B000000254F1000103D5BDE88901BDE80088AB
:1019C000BDE88901BDE80048B619524141EB01016B
:1019D000A3F10103704780807F7E7D7C7B7A7978DC
:1019E000777676757473727171706F6E6E6D6C6CE4
:1019F0006B6A6A6968686766666564646363626186
:101A00006160605F5F5E5E5D5D5C5C5B5B5A5A5906
:101A10005958585757565655555554545353525272
:101A20005251515050504F4F4F4E4E4D4D4D4C4CCA
:101A30004C4B4B4B4A4A4A49494948484847474713
:101A40004746464645454544444444434343434250
:101A5000424242414141002B9C4630D477002BD07A
:101A60001CB54FEA370703B44FF010004FF01001D8
:101A7000BAF1000F06D0BCF1000FDCBF40F0080047
:101A800040F008014FF000000FBCBDE810400BF122
:101A9000010BBBF1010F08BF5FEA170722BF12F16C
:101AA000010211F101014FF0004143F1000300F088
:101AB000004043EA00007047F9D35708D0E746EAF0
:101AC000064613F1400F4FEA16461FDD13F1200FB3
:101AD000DFBF16430A46002120335B42BED0C3F16C
:101AE000200746EA064602FA07F74FEA164646EA94
:101AF0000706C3F1200722FA03F201FA07F721FAD9
:101B000003F14FF0000342EA0702A7E746EA0206A4
:101B100046EA06464FEA164646EA0106BCBF46EAD2
:101B20000646360C4FF000034FF000024FF0000164
:101B300094E72DE9804C9A46934670B491E83800BA
:101B400007C831EA400C48BF34EA430C03D5FFF71D
:101B5000E6FDFFF780FFF0BCBDE8008C2DE9804C6E
:101B60009A46934670B491E8380007C810F0804F49
:101B700008BF13F0804F03D100F005F8FFF76BFFAB
:101B8000F0BCBDE8008C20F07F4780EA030023F022
:101B90007F4C07EB0C03A3F57C5300F00040A3F14E
:101BA000FE0392F0000F00F0B38095F0000F00F0FC
:101BB00077802DE901494FEA11404FEA144621EAA6
:101BC000004800FB06FC24EA064708FB06F607FB74
:101BD00008F800FB07F718EB06484CEB164C4FEAE9
:101BE000124B18EB07484FEA15464CEB174022EA18
:101BF0000B4E0BFB06FC25EA06470EFB06F607FB21
:101C00000EFE0BFB07F71EEB064E4CEB164C4FF08F
:101C100000061EEB074E4CEB174B18EB0B0840F180
:101C2000000018EB0E0B58EB000840F100008F1A73
:101C30004FF000013CBFC943661B14BFB5EB040C59
:101C400000213CBFC943F61B4FEA17444EEA8E0EF3
:101C500027EA04454FEA1C4704FB07622CEA074CBD
:101C600005FB07F70CFB05F604FB0CFC16EB07461F
:101C700042EB174216EB0C4642EB1C421BEB0606EE
:101C800058EB0202414146EA9E0601D5BDE80189B2
:101C9000B619524141EB0101A3F10103BDE80189ED
:101CA0004FEA14454FEA114724EA054621EA074C5A
:101CB00005FB07F406FB07F70CFB06F105FB0CFC24
:101CC00011EB074144EB17444FEA124711EB0C416B
:101CD00044EB1C4422EA074C05FB07F206FB07F71E
:101CE0000CFB06F605FB0CFC16EB074642EB174215
:101CF00016EB0C4642EB1C456A1854F1000148BF34
:101D00007047B619524141EB0101A3F1010370473D
:101D100095F0000F37D04FEA11424FEA144721EAFD
:101D2000024624EA074C02FB07F106FB07F70CFB0F
:101D300006F402FB0CFC14EB074441EB17414FEA9D
:101D4000154714EB0C4441EB1C4125EA074C02FB00
:101D500007F506FB07F70CFB06F602FB0CFC16EB7F
:101D6000074645EB174516EB0C4645EB1C4212198E
:101D700051F1000148BF7047B619524141EB0101D2
:101D8000A3F1010370474FEA14454FEA114724EAD3
:101D9000054621EA074C05FB07F106FB07F70CFB9C
:101DA00006F24FF0000605FB0CFC12EB074241EB7C
:101DB000174112EB0C4251EB1C4148BF704792187F
:101DC00041EB0101A3F101037047FEE770B50D4639
:101DD0002DED068BF0EE408AB0EE418A28EEA80A7F
:101DE0000446B0EE609A08EE080A02F097FBF0EEA7
:101DF000400AB0EE490A02F03BFADFED0F9A9FED80
:101E00000FAA20EE290AC0EE0A0A29EE090A08EEF6
:101E1000080AC4ED000A02F081FBF0EE400AB1EEC0
:101E2000680A02F025FA20EE290AC0EE0A0AC5ED7A
:101E3000000ABDEC068B70BD00003443DB0F494047
:101E4000704772B6FEE7000030B5B3F5804F05D09D
:101E50006FF0704140F82210002030BD8C690B6893
:101E60008D6823434C688989240144EA052423436F
:101E700043EA014150F82230014C23401943E9E77D
:101E80000000F0CF10B50A6850F8223023F00103AB
:101E900040F822308C68082C23D000234A68224363
:101EA000CC681C430B6922431A434B690E4C1A43FE
:101EB000CB691A430B6A1A434B6A1A438B6A1A435B
:101EC000CB6A1A430B6B1A438B691343CA6B0968BD
:101ED0001A4350F82130A343134340F82130002027
:101EE00010BD4023DAE700007FFF0F0030B5D1E9D5
:101EF000003443EA04138C688D89240244EA0544C3
:101F000023430C8A094D00EB820005EB0454234364
:101F10000C7D6D0105EB0464896923430B43416823
:101F200001F040410B434360002030BD0000F0FF52
:101F300070B5044600F052F90546601C02D0044812
:101F40000078044400F04AF9401BA042FAD370BD67
:101F500050000020F0B587B014216846FEF77BFBE7
:101F60001A48016800292ED1012101601848002477
:101F7000016841F0010101600068022500F00100E4
:101F800005904FF4F060CDE9000502AA03260C2766
:101F900082E8D00069460F4800F022F84EF2330084
:101FA000CDE9000502AA694682E8D0000A4800F09F
:101FB00017F86802CDE9000502AA694682E8D00058
:101FC000064800F00DF807B0F0BD00004800002002
:101FD0003838024000100240000C02400018024055
:101FE0002DE9F84FDFF8BCA10022012503264FF0B0
:101FF0000F090AF1040BAAF1040E00BF0B6805FAE1
:1020000002F42340A34270D10F7907F00307012F98
:1020100001D0022F16D187684FEA420806FA08FC61
:1020200027EA0C07D1F80CC00CFA08FC4CEA070CA4
:10203000C0F808C04768A7430C79C4F30014944063
:102040003C4344600C79E443A4070AD0C4684FEAD7
:10205000420C06FA0CF7BC438F6807FA0CF72743CB
:10206000C7600C7904F00304022C12D1D40800EBF1
:10207000840CDCF820405707FF0E09FA07F824EA21
:102080000804D1F8108008FA07F848EA0408CCF8E8
:10209000208004684FEA420C06FA0CF7BC430F7923
:1020A00007F0030707FA0CF7274307604C6814F49E
:1020B000403F70D03C4C276847F480472760246835
:1020C00022F0030704F480440094384C07EB040C1E
:1020D000DCF8084897074FEA177809FA08F7BC4375
:1020E000334FB84202D1002724E054E0314FB842C8
:1020F00001D101271EE0304FB84201D1022719E07B
:102100002E4FB84201D1032714E02D4FB84201D120
:1021100004270FE02B4FB84201D105270AE02A4FD0
:10212000B84201D1062705E0284FB84201D1072760
:1021300000E0082707FA08F72743CCF80878DAF810
:1021400000405746D1F804C09C435FEACC2C00D530
:102150001C433C60DBF800405F46D1F804C09C4360
:102160005FEA8C2C00D51C433C60DEF800407746CB
:10217000D1F804C09C435FEA8C3C00D51C433C6012
:10218000084F083F3C68D1F804C09C435FEACC3C50
:1021900000D51C433C60521C102AFFF42FAFBDE851
:1021A000F88F0000083C01404438024000300140F4
:1021B000000002400004024000080240000C0240FF
:1021C000001002400014024000180240001C0240AF
:1021D0000AB1816170470904FBE70000014880688B
:1021E000704700005000002070B5040025D094F81E
:1021F0003D00002520B984F83C50204600F052FAFA
:10220000242084F83D002068016821F0010101606C
:102210002068016841F4004101602068016821F4F0
:102220000041016000F098FB4D4A6168914201D87D
:102230004C4900E04C49884201D2012070BD4B4915
:102240002368B0FBF1F15E6826F03F060E435E6046
:102250006368934206D94FF4967359434FF47A73E7
:10226000B1FBF3F12368491C1E6A26F03F06314397
:1022700019626168914210D84900401EB0FBF1F22A
:10228000521CC2F30B02042A01D2042022E0B0FB4C
:10229000F1F0401CC0F30B001CE0A268F2B301EBAC
:1022A000C10303EB0116431EB3FBF6F35B1C43F4BF
:1022B00080431B0549D092B301EBC10202EB01112F
:1022C000401EB0FBF1F0401CC0F30B0040F4804016
:1022D00040F400402168CA694CF6FF739A431043EA
:1022E000C861D4E9071001432068026822F0C002E7
:1022F00011430160D4E9030101432068826848F278
:10230000FF339A4311438160D4E9050108432168F2
:10231000CA6822F0FF021043C86001E00EE016E038
:102320002068016841F0010101602564202084F8E3
:102330003D00256384F83E50002070BD01EB41064E
:10234000431EB3FBF6F35B1CB3E70120C2E701EBCE
:102350004101401EB0FBF1F0401CC0F30B00B7E799
:10236000A086010080841E0000093D0040420F004D
:102370002DE9FF4F83B09A46DDE911879346044665
:10238000DDF84090FFF72AFF054694F83D0020282D
:1023900070D11923012274492046009501F098F864
:1023A0000028F5D194F83C00012863D0012084F87E
:1023B0003C0020680168C90703D1016841F00101B0
:1023C00001602068016821F400610160222084F826
:1023D0003D00402084F83E0000262664C4F8249086
:1023E000A4F82A80608D20856048E062CDE9007500
:1023F00053465A462046049900F06CFF002879D1D4
:10240000208DD0B1012821D00228206824D0416934
:1024100080690090208D032866D801282BD054496C
:1024200002283B464FF00002009557D088462046D0
:1024300001F04EF800285DD13AE0206841698169D9
:102440000091016841F4007101607DE0206801683D
:1024500021F480610160F0E7016821F4806101608E
:102460002068016841F40061016020684169806969
:10247000009069E075E02A463946204601F0CEF822
:1024800088BB54E02068016841F400710160206855
:102490000069616A0870606A401C6062218D491E93
:1024A0002185618D491E618521680969017042E0BD
:1024B0002068016821F48061016020680069616A18
:1024C0000870606A401C6062208D401E2085608D0F
:1024D000401E60853B46002241460095204600F0A4
:1024E000F7FF00B9CEE705E02A463946204601F05D
:1024F00095F818B1012007B0BDE8F08F2068006999
:10250000616A0870606A401C6062208D401E81B262
:102510002185608D401E608520684269D243520744
:1025200012D4032903D1016821F48061016020687D
:102530000069616A0870606A401C6062208D401EFC
:102540002085608D401E6085208D00287FF462AF5D
:10255000202084F83D0084F83E6084F83C60002030
:10256000C9E70220C7E70000020010000000FFFFDB
:10257000040001002DE9FF4F83B09A46DDE9119771
:1025800093460446DDF84080FFF728FE054694F8A0
:102590003D0020287FD11923012240492046009583
:1025A00000F096FF002876D194F83C00012872D004
:1025B000012084F83C0020680168C90703D1016844
:1025C00041F0010101602068016821F400610160AF
:1025D000212084F83D00402084F83E000026266437
:1025E000C4F82480A4F82A90608D20852C48E062ED
:1025F000CDE9007553465A462046049900F0E8FE9E
:1026000070B930E02A463946204601F03FF858B10B
:10261000206C042804D12068016841F40071016035
:10262000012007B0BDE8F08F606A2168007808617A
:10263000606A401C6062218D491E89B22185628DCD
:10264000521E628522685369DB435B070BD469B174
:1026500000781061606A401C6062208D401E2085F9
:10266000608D401E6085208D0028CBD12A463946DA
:10267000204600F001FF0028CAD154F83D0B016844
:1026800041F400710160202004F81E09E6776677A6
:102690000020C6E7FFE70220C3E7000002001000A9
:1026A0000000FFFF10B586B0044614216846FDF710
:1026B000D2FF1349206888421FD1124800210268C6
:1026C00042F0200202600068122200F02000059013
:1026D0000320CDE90210CDE90002042004906946F0
:1026E0000948FFF77DFC07481030016841F480017C
:1026F0000160006800F48000059006B010BD000085
:1027000000580040303802400014024002488168FE
:102710000278114481607047500000200B4810B5CA
:10272000016841F400710160016841F48061016059
:10273000016841F480710160032000F061F80F200E
:1027400000F006F800F024F8002010BD003C024024
:1027500070B50D4D04464FF47A712878B1FBF0F056
:102760000A490968B1FBF0F000F02CFB48B9102CC5
:1027700007D200222146501E00F022F800206C6093
:1027800070BD012070BD0000500000205C000020E2
:102790000A4808B5016841F480410160006800F40E
:1027A000804000900548001F016841F080510160A1
:1027B000006800F08050009008BD000044380240DE
:1027C000F0B40E4B1B680C46C3F30223C3F107059C
:1027D000042D00D90425191D072901D2002300E08A
:1027E000DB1E012606FA05F1491E214099409E4054
:1027F000761E16403143F0BC01F029BD0CED00E01F
:10280000064900F0070208684FF6FF03184040EA47
:102810000220034A10430860704700000CED00E0FE
:102820000000FA052DE9F0470E46050065D0DFF8F7
:102830001481D8F80000F7B200F00700B04207D2C8
:1028400088F80070D8F8000000F00700B04254D1BA
:1028500028683D4C810712D5400703D5206840F415
:10286000E05020602878000703D5206840F46040DD
:1028700020602068A96820F0F000084320602878D4
:10288000C0072DD0304968680839012812D00228C5
:1028900013D0032811D00968890700292DDA21688F
:1028A00021F0030101432160FFF798FC814641F2CA
:1028B000883A0EE009688903EFE709688901ECE7C7
:1028C000FFF78CFCA0EB0901514502D90320BDE8BC
:1028D000F0872068696800F00C00B0EB810FEFD141
:1028E000D8F80010404601F00701B14207D907703F
:1028F000006800F00700B04201D00120E7E7287827
:10290000400705D52068E96820F4E05008432060BE
:102910002878000706D52068296920F4604040EA3D
:10292000C100206000F038F82168084AC1F30311A3
:10293000515CC8400649086006480068FFF708FF78
:102940000020C4E7003C024008380240004E000866
:102950005C00002054000020044805490068096814
:10296000044AC1F38221515CC84070475C000020DA
:1029700008380240104E00080448054900680968FC
:10298000044AC1F34231515CC84070475C000020EA
:1029900008380240104E0008154810B5006810F0C5
:1029A0000C02144813D04110042A0FD0082A0ED16B
:1029B0000F4C241F2268236802F03F025B0207D5F8
:1029C0002068C0F38810A0FB010106E0084610BD96
:1029D0002168C1F38811A1FB00010023FDF7B4FCBD
:1029E0002168C1F30141491C4900B0FBF1F010BD61
:1029F000083802400024F4002DE9F84F04006ED09E
:102A00002078DFF84C93C007A9F104054AD009F1FA
:102A100004000168C1F38101012908D00068C0F3F6
:102A2000810002280AD1D9F80000400206D52868A2
:102A3000800337D560680028E1D033E06068B0F5E6
:102A4000803F10D0B0F5A02F286810D020F480303F
:102A50002860286820F4802028606068A8B1FFF70B
:102A6000BDFB06460DE0286840F48030F4E740F4F2
:102A700080202860F7E700BFFFF7B0FB801B6428C9
:102A800073D828688003F7D50CE0FFF7A7FB06464C
:102A900005E000BFFFF7A2FB801B6428F0D8286880
:102AA0008003F7D42078DFF8AC8280074FF0000A6B
:102AB0003ED5A748001D016811F00C0F08D0006832
:102AC000C0F3810002280BD1D9F80000400207D4DE
:102AD0002868800716D5E068012800D112E033E1AC
:102AE000E068B8B10120C8F80000FFF777FB0646A0
:102AF00005E000BFFFF772FB801B0228C0D82868E2
:102B00008007F7D52868216920F0F80040EAC10065
:102B100028600DE0C8F800A0FFF760FB064604E05F
:102B2000FFF75CFB801B02281FD828688007F7D4BA
:102B30002078000722D5864F87486169703771B1C8
:102B400001210160FFF74AFB064604E0FFF746FB60
:102B5000801B022809D838688007F7D50EE0C0F836
:102B600000A0FFF73BFB064605E082E0FFF736FBDF
:102B7000801B02287DD838688007F7D4207840076A
:102B800068D5DFF8CCB100270BF13C0BDBF8000077
:102B9000C0000BD4DBF8001041F08051CBF80010DE
:102BA000DBF80000012700F0805000906B4E306889
:102BB000C00510D4306840F480703060FFF70EFB21
:102BC000009005E0FFF70AFB0099401A022850D850
:102BD0003068C005F6D55E4EA0686C3601280FD06F
:102BE0000528306810D020F001003060306820F0F7
:102BF00004003060A068B8B1FFF7F0FA00900FE071
:102C0000306840F00100F4E740F004003060F7E77E
:102C1000FFF7E4FA0099411A41F28830814266D800
:102C200030688007F4D50EE0FFF7D8FA009007E08F
:102C3000FFF7D4FA0099411A41F28830814256D800
:102C400030688007F4D42FB1DBF8001021F08051F8
:102C5000CBF80010A069C8B33D49091D0968C1F34C
:102C6000810102294AD00228504607D0C8F86000E6
:102C700000E03CE0FFF7B2FA04463BE04746C8F804
:102C80006000FFF7ABFA064605E000BFFFF7A6FAC3
:102C9000801B02282BD828688001F7D4D4E90701CB
:102CA0000843A16A2E4A490802EB0141626A41EADF
:102CB0008211084394F82C1040EA0161C9F8001011
:102CC00001203866FFF78AFA044606E03EE000BFBE
:102CD000FFF784FA001B022809D828688001F7D57D
:102CE00034E000BFFFF77AFA001B022802D9032064
:102CF000BDE8F88F28688001F4D427E00128F7D0D8
:102D0000D9F80000E26900F4800191421CD1226AE6
:102D100000F03F01914217D147F6C071626A01404D
:102D2000B1EB821F10D1A26A4FF0FF3300F44031A3
:102D300003EB5202B1EB024F06D194F82C1000F0D5
:102D40007060B0EB016F01D00120D1E70020CFE728
:102D50000438024000004742800E474200700040A5
:102D60000000FFFF70B515460E46040003D094F82E
:102D7000490010B107E0012070BD002084F8480030
:102D8000204600F01DF804F108012068FFF77AF8EA
:102D90003146A2682068FFF7A9F8D4E90102294664
:102DA000236BFFF751F82168A06851F8202042F00A
:102DB000010241F82020012084F84900002070BD64
:102DC000FFF7C8B810B5401EB0F1807F01D30120D5
:102DD00010BD4FF0E02460610F21601701F037FA59
:102DE0000020A06107202061002010BD10B5040064
:102DF00003D094F83D0010B107E0012010BD002081
:102E000084F83C00204600F01FF8022084F83D00C2
:102E1000211D206800F0CCFF012084F8460084F8D2
:102E20003E0084F83F0084F8400084F8410084F8B4
:102E3000420084F8430084F8440084F8450084F894
:102E40003D00002010BD000008B50068064988421A
:102E500008D10648016841F480710160006800F4FF
:102E60008070009008BD0000002000404038024003
:102E700090F83D10012901D001207047022180F80F
:102E80003D100168CA6842F00102CA600068114939
:102E9000884214D0B0F1804F11D00F4988420ED033
:102EA0000E4988420BD00E49884208D00D4988420D
:102EB00005D00D49884202D00C49884204D181686E
:102EC00001F00701062903D0016841F0010101600A
:102ED000002070470000014000040040000800404E
:102EE000000C004000040140004001400018004078
:102EF00010B586B0044614216846FDF7ACFB0E49B8
:102F00002068884216D10D480021026842F0200254
:102F10000260006800F0200005904FF400700090FF
:102F20000220CDE901010920CDE9031069460448DA
:102F3000FFF756F806B010BD0020004030380240C0
:102F40000014024070B5044690F83C0000260D467F
:102F500001280FD0012084F83C006AB1042A1DD05A
:102F6000082A2FD00C2A3FD00126002084F83C00EC
:102F7000304670BD022070BD206800F093FF2068CD
:102F8000816941F0080181612068816921F00401B3
:102F90008161206881692A69114311E0206800F08D
:102FA000B1FF2068816941F4006181612068816915
:102FB00021F480618161206881692A6941EA0221E6
:102FC0008161D2E7206800F0D3FF2068C16941F039
:102FD0000801C1612068C16921F00401C161206854
:102FE000C1692A69114311E0206800F0F5FF2068EB
:102FF000C16941F40061C1612068C16921F4806147
:10300000C1612068C1692A6941EA0221C161ACE756
:1030100010B5040003D094F83D0010B107E0012082
:1030200010BD002084F83C00204600F01EF802206D
:1030300084F83D00211D206800F0BAFE012084F8CC
:10304000460084F83E0084F83F0084F8400084F88D
:10305000410084F8420084F8430084F8440084F876
:10306000450084F83D00002010BD704710B50446AF
:10307000022249B104290ED0082913D094F8410046
:10308000012816D0012010BD94F83E000128F9D186
:1030900084F83E200FE094F83F000128F2D184F834
:1030A0003F2008E094F840000128EBD184F840204C
:1030B00001E084F841200122206800F0E5FE164975
:1030C0002068164A884201D0904203D1436C43F4F1
:1030D000004343642068884213D0B0F1804F10D081
:1030E0000F4988420DD00F4988420AD00E498842C4
:1030F00007D0904205D00D49884202D00C49884241
:1031000004D1816801F00701062903D0016841F06C
:1031100001010160002010BD0000014000040140D9
:103120000004004000080040000C00400040014046
:103130000018004070B5040004D094F84100002548
:1031400010B106E0012070BD84F84050204600F028
:1031500023F8242084F841002068C16821F400513C
:10316000C160204600F088FF2068016921F4904189
:1031700001612068416921F02A0141612068C1682C
:1031800041F40051C1606564202084F8410084F856
:1031900042006563002070BD10B586B0044614215E
:1031A0006846FDF758FA14492068884221D113482F
:1031B0000021026842F010020260006800F0100076
:1031C00005900E481438026842F00102026000685F
:1031D00000F0010005904FF4C06000900220CDE99E
:1031E0000101032003900720049069460448FEF77C
:1031F000F7FE06B010BD0000001001404438024048
:10320000000002402DE9F843044690F8410098463A
:1032100016460D46202802D00220BDE8F88385B16D
:103220007EB100206064212084F84100FEF7D6FFC3
:10323000A6848146E684A0682027B0F5805F02D08E
:1032400003E00120E9E7206910B12E4600250EE0D9
:1032500000260CE08021204600F094FFA8B9C6B1FA
:1032600016F8010B21684860E08C401EE084E08C79
:103270004B464FF00002CDF800800028EAD14FF015
:103280004001204600F07EFF40B184F841700320E9
:10329000C3E735F8020BC0F30800E3E784F8417098
:1032A0000020BAE7FEE701684A69D24352050FD40D
:1032B0006FF480624A61002140F8301F202242737F
:1032C0008173026942F004020261017301207047B8
:1032D000002070472DE9F84F0446006889460B9D91
:1032E00001689846174641F48061016020680168D2
:1032F00041F48071016000954FF0011B0022594696
:1033000020460A9B00F0E4F84FF4007A40B12068B0
:103310000068C00501D5C4F840A00320BDE8F88FBF
:10332000216809F0FE0008612B46284920460A9AC8
:1033300000F016F9F0BB20684169806900902A46C8
:1033400020460A9900F0A2F940B1206C04283AD135
:103350002068016841F40071016034E0FEB2B8F108
:10336000010F09D02168380A08612A4620460A99C7
:1033700000F08CF90028E8D1206806612A46204632
:103380000A9900F083F90028DFD12068016841F430
:103390008071016000950022594620460A9B00F08A
:1033A00097F80028B3D1216809F0FF0040F0010030
:1033B000086100E007E02B46044920460A9A00F025
:1033C000CFF80028AAD00120A8E7000002000100E1
:1033D0002DE9F843044600680D46DDE908970168C9
:1033E0009846164641F4807101604B4600224FF02A
:1033F00001112046009700F06BF848B12068006882
:10340000C00502D54FF4007020640320BDE8F883A6
:10341000216805F0FE0008613B464A4615492046F2
:1034200000F09EF888B920684169806900903A46AA
:103430004946204600F02AF948B1206C042804D1FE
:103440002068016841F4007101600120DEE7F5B2F7
:10345000B8F1010F09D02168300A08613A4649469F
:10346000204600F013F90028E7D12068056100200C
:10347000CCE700000200010070B516460D46044678
:103480001EE02046FFF70FFF08B1012070BD681C49
:1034900016D0FEF7A3FE801BA84200D885B920688D
:1034A0004069C04340070BD5002044F8300F20216D
:1034B0006173A073216941F0200121612073E4E769
:1034C00020684069C0434007DBD4002070BD000085
:1034D0002DE9F047984617460D460446C1F30746C6
:1034E000DDF820902AE000BFB8F1FF3F26D0FEF7BC
:1034F00075FEA0EB0901414502D8B8F1000F1DD1BE
:103500002068012E16D0806925EA00000004000C16
:1035100012D00020B84211D1002044F8300F2021F1
:103520006173A073216941F02001216120730120A2
:10353000BDE8F0874069E7E70120EBE72068012E4E
:103540000AD0806925EA00000004000C06D00020A3
:10355000B842C9D00020EBE74069F3E70120F7E764
:103560002DE9F047984616460D4604464FF00009EF
:103570004FF0200AC1F3074723E020684069C043A9
:10358000400515D42068016841F40071016021688C
:103590006FF480604861C4F8309084F83DA084F8EE
:1035A0003E90216C41F00401216484F83C9021E0BC
:1035B000701C06D0FEF712FEA0EB0800B04203D844
:1035C00016B1012F1FD021E02068012F15D080698E
:1035D00025EA00000004000C18D000BF44F8309F1A
:1035E00084F80DA084F80E90216941F0200121613A
:1035F00084F80C900120BDE8F087406925EA0000BE
:103600000004000CEAD12068406901E0206880696C
:1036100025EA00000004000CAFD1ECE72DE9F041F1
:10362000002590460E460446202728E04069C04306
:10363000C0060CD454F8301B6FF01000486144F8F9
:1036400010596777A577206A2062257714E0FEF786
:10365000C5FDA0EB0800B04200D886B920684069DB
:10366000C04340060BD544F8305F6773A5732069EB
:1036700040F02000206125730120BDE8F081206822
:103680004169C9434906D1D40020F6E770B5164612
:103690000D4604461EE02046FFF705FE08B1012056
:1036A00070BD681C16D0FEF799FD801BA84200D89B
:1036B00085B920684069C04300060BD5002044F856
:1036C000300F20216173A073216941F02001216135
:1036D0002073E4E720684069C0430006DBD4002083
:1036E00070BD00002DE9FF41012403AE8DF80C40B0
:1036F0006425009623466B22D0211B48CDE9014565
:10370000FEF738FF00278DF80C70009601231B226E
:10371000D0211548CDE90145FEF72CFF8DF80C703E
:10372000009601231C22D0210F48CDE90145FEF768
:1037300021FF06208DF80C00009601231A22D021CB
:103740000948CDE90145FEF715FF02208DF80C0070
:10375000009601231D22D0210348CDE90145FEF743
:1037600009FFBDE8FF810000080100202DE9F041BC
:1037700088B00E270DF10C08CDE900870C460546F0
:10378000642601233B22D02102961748FEF7F0FD64
:10379000CDF80080CDE9017601233B22D0211248EB
:1037A000FEF7E6FD010005D010A0FCF745FE08B0CD
:1037B000BDE8F081BDF80C0040BA2880BDF80E00CD
:1037C00040BA6880BDF8100040BAA880BDF8140067
:1037D00040BA2080BDF8160040BA6080BDF81800DD
:1037E00040BAA080E3E700000801002049324320EE
:1037F00052656164204572726F723A2025640D0A29
:103800000000000000B52DED088B89B0B0EE448AB1
:10381000F0EE638AB0EE439AF0EE629AF0EE42BAAE
:10382000F0EE41AAB0EE60AAB0EE40BA11EE900AF6
:1038300001F06EFA41EC100B52A153EC102B6846CC
:10384000FCF706FE6B46182200210A2001F0ECF876
:103850001BEE900A01F05CFA41EC100B4CA153EC0A
:10386000102B6846FCF7F4FD6B46182219210A203C
:1038700001F0DAF819EE900A01F04AFA41EC100B67
:1038800046A153EC102B6846FCF7E2FD6B4618226C
:1038900032210A2001F0C8F819EE100A01F038FAB6
:1038A00041EC100B40A153EC102B6846FCF7D0FD07
:1038B0006B4618224B210A2001F0B6F818EE900A48
:1038C00001F026FA41EC100B3AA153EC102B68469C
:1038D000FCF7BEFD6B46182264210A2001F0A4F813
:1038E00018EE100A01F014FA41EC100B34A153EC5D
:1038F000102B6846FCF7ACFD6B4618227D210A2090
:1039000001F092F81BEE100A01F002FA41EC100BE4
:103910002EA153EC102B6846FCF79AFD6B4618223B
:1039200096210A2001F080F81AEE100A01F0F0F951
:1039300041EC100B28A153EC102B6846FCF788FDD6
:103940006B461822AA210A2001F06EF81AEE900A9E
:1039500001F0DEF941EC100B22A153EC102B68466C
:10396000FCF776FD6B461822BE210A2001F05CF8B8
:103970001FA31822D2210A2001F056F809B0BDEC8D
:10398000088B00BD41783A20252E336620000000C8
:1039900041793A20252E336620000000417A3A20F2
:1039A000252E33662000000047783A20252E316608
:1039B0002000000047793A20252E316620000000C3
:1039C000477A3A20252E3166200000005069746342
:1039D000683A20252E316600526F6C6C3A20252EF5
:1039E000316600005961773A20252E3166000000CB
:1039F0003932323130363834303132375F49324340
:103A00000000000030B50649F0222C2388710A809E
:103A10002A244A800B812B254C818D8130BD0000EA
:103A2000EC01002002480349007A0870704700004A
:103A3000EC010020FEFF0368F0EE400A90ED011A51
:103A4000B7EE000AD0ED001A30EE410A20EE210A4E
:103A500001EE200A80ED000A7047000010B58EB01C
:103A60001C216846FCF7F7FD1C2107A8FCF7F3FDB5
:103A70001B484FF020414FF48052016019494160CA
:103A8000042181600021C160016141618161C161E6
:103A90000162C0E909129200C0E90B12416381631F
:103AA00041640F203C220090CDE9010203AC1022BA
:103AB000112384E80E0009240691CDE9074009ACE2
:103AC000082084E80F000D9107AA69460448FFF713
:103AD00049F9002801D0FEF7B4F90EB010BD00007E
:103AE000B8000020040100A070B586B0142168461B
:103AF000FCF7B1FD35480025016841F00401016083
:103B0000016801F004010591016841F020010160A4
:103B1000016801F020010591016841F08001016018
:103B2000016801F080010591016841F01001016018
:103B3000016801F010010591016841F00801016080
:103B4000016801F008010591016841F0010101607F
:103B5000016801F001010591016841F04001016037
:103B6000016801F040010591016841F00201016026
:103B70000068174E00F0020005900122082130462F
:103B8000FEF726FB01240820CDE9000402946946D3
:103B900030460394FEF724FA200300904FF40410FB
:103BA000CDE9010469460B48FEF71AFA4FF440705C
:103BB00000901220CDE90105032003900420049019
:103BC00069460548FEF70CFA06B070BD3038024071
:103BD000000C024000180240000402400D4810B5DD
:103BE0000B4901600C49416000214FF48042816023
:103BF000C0E9031241618161C1610162FEF7F4FA1B
:103C0000002803D0BDE81040FEF71BB910BD00002E
:103C10000058004008010020A086010010B588B0BF
:103C20001C216846FCF717FD164815490024016061
:103C30001421C0E9011440F69F71C0E903148461A6
:103C4000FFF7D4F808B1FEF7FCF80E48FFF7E0F9EB
:103C500008B1FEF7F6F8602000904FF44860CDE917
:103C600001040022694607480494FFF76BF908B184
:103C7000FEF7E7F80348FFF73BF908B010BD000076
:103C8000002000405C0100200C4810B50A4901608A
:103C90004FF4E1314160002181600C22C160C0E934
:103CA00004128161C161FFF745FA002803D0BDE825
:103CB0001040FEF7C6B810BD00100140A40100205E
:103CC000017D052200EB8101DFED0C0A81ED000A88
:103CD000017D491CB1FBF2F302FB131101750021B8
:103CE00000EB8102491C92ED000A052970EE200AC2
:103CF000F6DBB1EE041A80EE810A70470000000086
:103D0000FEE7FEE770477047FEF700BD30B593B0A1
:103D100030216846FCF79FFC14210CA8FCF79BFCA3
:103D20001D480025016841F080510160006800F0E5
:103D3000805011901948016841F480410160006889
:103D4000022400F4804011900120009000040190B2
:103D50008001CDE9064008AA0420A82182E81300CA
:103D60000B906846FEF748FE08B172B6FEE70CA954
:103D70000F2081E831004FF4A0500F904FF4805095
:103D8000109005210CA8FEF74DFD002801D072B659
:103D9000FEE713B030BD0000403802400070004024
:103DA0000248016841F470010160704788ED00E04D
:103DB000F0B50268294C2A4D2A4E2B4F2B4B4FF061
:103DC000804CA04209D0604507D0A84205D0B0423F
:103DD00003D0B84201D0984204D122F0700E4A6854
:103DE00042EA0E02A0421BD0604519D0A84217D06B
:103DF000B04215D0B84213D0984211D01C4DA84201
:103E00000ED01C4DA8420BD01B4DA84208D01B4D14
:103E1000A84205D01A4DA84202D01A4DA84203D19B
:103E200022F44075CA682A434D6922F080022A4371
:103E300002608A68C2620A688262A04201D0984227
:103E400001D109690163012141610169C90703D0F9
:103E5000016921F001010161F0BD00000000014095
:103E60000004004000080040000C00400004014035
:103E7000004001400044014000480140001800405B
:103E8000001C00400020004010B501F01F0301217C
:103E9000046A99408C430462016A9A4011430162AA
:103EA00010BD0000F0B5036A026A22F0010202624E
:103EB00042688469124E24F073050C682C4323F089
:103EC00002058B682B430D4DA84201D0B04205D1AD
:103ED00023F00807CB683B4323F00403A84201D03A
:103EE000B04205D14D6922F4407215438A692A43D4
:103EF00042608461496841630362F0BD0000014093
:103F000000040140F0B5026A036A23F01003036263
:103F1000436884690D6824F4E64444EA05248D6806
:103F200022F0200242EA05120F4D104EA84201D0A5
:103F3000B04206D1CF6822F0800242EA071222F096
:103F40004002A84201D0B04207D14D6923F440633A
:103F500043EA85038D6943EA8503436084614968C8
:103F600081630262F0BD00000000014000040140D6
:103F7000F0B5026A036A23F4807303624368C4697C
:103F800022F4007224F073050C68124E2C438D68E5
:103F900042EA05220E4DA84201D0B04206D1CF68B8
:103FA00022F4006242EA072222F48062A84201D091
:103FB000B04207D14D6923F4405343EA05138D699C
:103FC00043EA05134360C4614968C1630262F0BDFE
:103FD000000001400004014030B5046A026A22F486
:103FE000805202624268C3690D6823F4E64343EAE3
:103FF00005238D6824F4005444EA0534084DA84292
:1040000002D0084DA84204D14D6922F4804242EA10
:1040100085124260C36149680164046230BD0000DA
:10402000000001400004014001680C3151E8002FFC
:1040300022F4907241E80023002BF5D1016814317D
:1040400051E8002F22F0010241E80023002BF5D1B6
:10405000016B012909D101680C3151E8002F22F0D0
:10406000100241E80023002BF5D1202180F84210F6
:10407000002101637047000070B5044600680169C3
:10408000E26821F44051114301612169A068E269AD
:1040900008436169114308432168CA6849F20C6307
:1040A0009A430243CA6020684169A26921F44071C1
:1040B0001143416131492068884202D03049884229
:1040C00002D1FEF759FC01E0FEF746FCE26900234D
:1040D000192164253226B2F5004F626828D0A0FB72
:1040E0000101930F9200FCF72FF90146B0FBF5F0A8
:1040F0006FF01802504301EB800006EB0010B0FB9C
:10410000F5F000F0F002B1FBF5F002EB0012B1FBAC
:10411000F5F06FF01803584301EB800006EB001038
:10412000B0FBF5F000F00F0021681044886070BD0E
:10413000A0FB010192185B41FCF706F90146B0FBB8
:10414000F5F00201B1FBF5F06FF01803584301EBF5
:10415000800006EBC000B0FBF5F000F0F80002EBC9
:104160004002B1FBF5F0584301EB800006EBC000C4
:10417000B0FBF5F000F00700D6E7000000100140AA
:10418000001401402DE9F843984617460D460446B1
:10419000089E24E0701C22D0FEF720F8A0EB080057
:1041A000B0421AD8CEB12068C168490717D5802D12
:1041B00015D0402D13D00168C94309070FD40168F9
:1041C0000025406800902046FFF72EFF082060641D
:1041D00084F840500120BDE8F8830320FBE7206805
:1041E000006835EA000004D00020B842D2D0002098
:1041F000F1E70120F9E7FEE703B4019841000098D8
:1042000050EAC12018BF04204A0D18BF40F0010039
:1042100040F2FF72B2EB515F08BF40F0020001288C
:1042200008BF052002B070474100080218BF0420F3
:104230000A0E18BF40F001004FF07F4232EA010140
:1042400008BF40F00200012808BF05207047090799
:10425000090E002804DB00F1E02080F8001470470C
:1042600000F00F0000F1E02080F8141D70470000FE
:1042700070B54FF068422DED048BF0EE408A18EED9
:10428000900AB0EE608A18EE101A02EB4003B3F108
:10429000654F3CBF02EB4102B2F1654F7DD200BFDA
:1042A000C0F3C753C1F3C7529A1A1B2A09DD10F095
:1042B000004F14BF9FED830A9FED830ABDEC048B72
:1042C00070BD12F11A0F36DA11F0004F09D010F05C
:1042D000004F0CBF9FED7D0A9FED7D0ABDEC048B66
:1042E00070BD88EE889A19EE100AFFF79DFF04282A
:1042F00008BF00F033F918EE900AFFF795FF054666
:1043000018EE100AFFF790FF044619EE100AFFF7A7
:104310008BFF042D18BF052D08D1042C18BF052CC8
:1043200004D1002804BF0220FCF717FAB0EE490AB6
:10433000BDEC048B70BD4200B2EB410F3AD910F0D6
:10434000004F19BFDFED630A9FED630ADFED630ADB
:104350009FED630AB0EE481A0A46B1EE688A80F013
:104360000041F0EE418A10460A1A5200B2F1807FF5
:1043700034D2484010F0004FDFED5A1A9FED5A2A10
:104380001DBFBEEE001A70EEE10A30EE420AB6EE34
:10439000001A08BF70EEA10A00E040E008BF30EE4E
:1043A000020AB0EE682A01EE482A08EE818AC2EEBF
:1043B000081A15E011F0004F04BF9FED4C0AF0EE13
:1043C000400AD1D010F0004F19BFDFED490A9FED30
:1043D000490ADFED490A9FED490AC5E7C8EE881A88
:1043E00021EEA11A9FED462ADFED462A41EE022A70
:1043F0009FED452A01EE222ADFED442A41EE022AF2
:104400009FED432ABDEC048B01EE222A21EE811A96
:1044100001EE020A30EE210A30EE200A70BD4FF0A4
:104420007F42B2EB400F28BFB2EB410F09D2F0EE52
:10443000480AB0EE680ABDEC048BBDE8704000F09D
:104440008AB840EA01035B0008BF41F0FF410BD08E
:10445000B2EB400F08BFB2EB410F08D120F0804013
:1044600008EE900A21F0804108EE101A18E7B2EB2E
:10447000400F12BF5FEA410340F0FF4001F00041EE
:104480003FF40EAFB2EB410F12BF5FEA400200F003
:10449000004041F0FF413FF403AF4A0092EA40037D
:1044A0003FF5FEAE002AACBF9FED1A0A9FED1A0A37
:1044B00068EE808A28EE008A18EE900A18EE101A2C
:1044C000EEE60000DB0FC9BFDB0FC93FDB0F494041
:1044D000DB0F49C00000C9BF22AAFDB90000C93FD7
:1044E00022AAFD390060ED3EC30ACE37000000006D
:1044F000000049C022AA7DBA0000494022AA7D3AA4
:104500002DAD65BD8FB8D53D0FB511BE61C84C3E10
:10451000A8AAAABE0000804F0000802F10B52DED84
:10452000028BB1EEC08A18EE100A20F00040C0F1F4
:10453000FF40C00F0AD010EE100A20F00040C0F17A
:10454000FF40C00F04BF0120FCF707F9B0EE480A96
:10455000BDEC028B10BD30EE200A70479FED020AC1
:1045600020EE000A704700000000001030380A28D2
:1045700001D20120704700207047000070B5514CF7
:10458000002208212046FDF723FEC820FDF7D0FCBD
:10459000012208212046FDF71BFE6420FDF7C8FC20
:1045A000494D04202870AC1C2078484A2078207897
:1045B0004FF6FF76217806EA00200143918044A05F
:1045C000FBF73AFF36202870002020703A20287030
:1045D00005202070B22028700C2020702070002050
:1045E0002070332020702070B72028703520207074
:1045F000BB20287037202070C02028702C2020700D
:10460000C220287001202070C32028701220207042
:10461000C420287020202070C62028700F20207011
:10462000D0202870A4202070A1202070E0202870C5
:10463000D0202070042020700D20207011202070C8
:10464000132020702B2020703F20207054202070D9
:104650004C202070182020700D2020700B2020701E
:104660001F20207023202070E1202870D02020708F
:10467000042020700C202070112020701320207046
:104680002C2020703F20207044202070512020706A
:104690002F2020701F2020702070202020702320C9
:1046A000207021202870112028707820FDF740FC10
:1046B000292028700020FFF7A5F93046BDE870409A
:1046C00000F034B8000C0240FEFF0368EC0100204B
:1046D0004C43442049443A202578000013B54FF458
:1046E0007A73012269460248FEF78CFD00981CBDD2
:1046F000A4010020F0B40B4D0B4EAC7A3470070AC5
:10470000B41C27702070100A20702270287B307033
:10471000080A20702170180A20702370F0BCFFF77F
:1047200081B90000EC010020FEFF036870B5064669
:104730000A4800250188408800FB01F4401E491EFC
:1047400083B28AB229462846FFF7D4FF03E03046F9
:1047500000F0BAF96D1CA542F9D370BDEC01002040
:104760002DE9F05F1D46F023A3EB5503834248D3A8
:10477000C5F1F0038B4244D3203A4FEA5509D4B235
:1047800005FB05FA09FB05F6102D08D0182D68D099
:10479000202D79D0BDE8F05F9E48FBF74DBE01F1BA
:1047A0000F0293B2C21D92B2FFF7A4FF4FF48070C4
:1047B000FBF774FDDFF860E2070001D0002047E05E
:1047C00000276C43F24609FB04F9DFF8508215E03C
:1047D00007EBD90100241AF80150280602D5B8F8D1
:1047E000020001E0B8F8000000F06EF96806641CF1
:1047F000050EE4B2082CF0D37F1CFFB2B7EBD60F46
:10480000E6D3BDE8F09F00BF04FB05F101FB09F111
:1048100000EBD102DFF804B21EF8023000211A06C4
:1048200002D5BBF8022001E0BBF8002001EBC00C70
:104830004FEA122807F81C8007EB4C0C491C8CF837
:1048400001205A06130EC9B20829E8D3401CC0B291
:10485000B0EBD60FD8D35146384600F029F9384688
:1048600071E001F1170293B200F10B0292B2FFF76F
:1048700041FF4FF41070FBF711FD06004FEA0519D8
:104880004FF0000025D056E068E000BF04FB05F0C3
:104890000101634808EBD101475C5FEAC87009D0A9
:1048A0000420DFF878B182460026380604D5BBF82C
:1048B000020003E00820F4E7BBF8000000F004F970
:1048C0007806761C070EF6B25645EED308F10100C5
:1048D000C0B28046B0EBD90FD8D392E704FB05F104
:1048E000090100EBD1024E498B5CC1070BD00427B4
:1048F0000022DFF828E1410801EB410B190604D53D
:10490000BEF8021003E00827F2E7BEF80010082FF7
:104910004FEA112802EB8B0C19D006EB4C0C8CF8EB
:1049200010808CF811105906521C0B0ED2B2BA42EC
:10493000E4D3401CC0B2B0EBD90FCFD351463046C0
:1049400000F0B6F83046BDE8F05FFBF7D6BC06F8DD
:104950001C8006EB4C0C8CF80110E4E701F11F02FF
:1049600093B200F10F0292B2FFF7C4FE4FF48060E1
:10497000FBF794FCDFF8ACE0070001D0002045E035
:1049800000276C4309FB04F9F246DFF8908015E03C
:1049900007EBD90100241AF80150280602D5B8F80F
:1049A000020001E0B8F8000000F08EF86806641C10
:1049B000050EE4B2082CF0D37F1CFFB2B7EBD60F84
:1049C000E6D31EE704FB05F101FB09F100EBD10280
:1049D000DFF848B01EF8023000211A0602D5BBF8F5
:1049E000022001E0BBF8002001EBC00C4FEA1228C6
:1049F00007F81C8007EB4C0C491C8CF801205A0668
:104A0000130EC9B20829E8D3401CC0B2B0EBD60FD0
:104A1000D8D320E7E07D0008184E00086000002091
:104A2000F8530008986500082DE9F0471F460E4628
:104A300005461446102A07D0182C05D0202C03D088
:104A4000114613A0FBF7F8FCF020A0EB5409C4F1C9
:104A5000F0084FF4784A3878002816D0A94502D2D9
:104A60000025301986B2B04504D200252E465046A6
:104A7000FFF75CFE3A78234631462846FFF770FE82
:104A800005EB540085B27F1CE5E7BDE8F087000028
:104A9000666F6E742073697A6528256429206973AE
:104AA000206E6F7420737570706F72742100000037
:104AB000002806D0034B491E03D310F8012B1A70AF
:104AC000F9E7704700000468010A01EB0020014982
:104AD00048807047000004682DED088B82B0FDF718
:104AE0001DFEFFF713F9FEF7FFFFFEF7B7FFFFF715
:104AF00095F86E48FEF7BCF900216C48FEF7B6FA4F
:104B0000FFF73CFDFFF7C0F8FFF768F8FEF7EAFD96
:104B10004FF6FF70FFF70AFE664A9FED658A02F1C5
:104B20001801002001F1180302EB800484ED008AD3
:104B300001EB800484ED008A03EB8004401C84EDCB
:104B4000008A0528F0DB00201075087518759FEDA8
:104B50005A0A5A4880ED010A80ED008A083080ED3B
:104B6000010A80ED008A0830A0F12E0680ED010ACE
:104B700080ED008AB51F9FED529ADFED529AA0F1A9
:104B80004004DFED51AA4D491E39881FFEF7EEFDA6
:104B9000B5F9000000EE100AB5F9020000EE900A27
:104BA000B5F90400B8EEC00AF8EEE00A20EE090AF2
:104BB00060EE890A20EE290A60EEA92A00EE900A2A
:104BC0003C48F8EEE00A60EE890A20EEA92AFFF7D9
:104BD00077F83A48FEF730FF364884ED000AB0EE29
:104BE000620A1830FFF76CF834480830FEF724FFEB
:104BF000304884ED010AB0EE420A3030FFF760F829
:104C00002E481030FEF718FF84ED020AB0EE401A6D
:104C100094EC020A01A96846FDF7D8F8B6F900003D
:104C200000EE100AB6F90200F8EEC02A00EE100AF3
:104C3000B6F90400B8EEC02A00EE100A1F48B8EE1C
:104C4000C00A1838FEF7F8FE1C48F0EE408AB0EEB5
:104C5000620A1038FEF7F0FE1848B0EE40AAB0EE37
:104C6000420A0838FEF7E8FE08EEAA8AB0EE40BA1B
:104C700018EE100A00F04CF841EC100B13A053ECA6
:104C8000102BFBF7D9FBD4EC031AB0EE684AF0EE18
:104C90004B3A9DEC020AB0EE4A3AB0EE481AFEF7E3
:104CA000B1FD3220FDF744F96DE700005C01002002
:104CB0000000000070000020CDCCCC3D3000002072
:104CC000C3F51C41000080380AD7233C5961773A6C
:104CD00020252E32660D0A0010B500290AD008786A
:104CE000002807D005487844FCF7F2FA002801D0E4
:104CF000002010BD0248784410BD0000663100005D
:104D00005E3100000808A0F500114FEA310170473C
:104D100043004FEAD30C4FEA3C0C43401FBF40070F
:104D20000CF1605113F0FE4F70471CF0006F03D17F
:104D300000200CF0004170470CF0004343EA507033
:104D400010B540EACC0000F00EF800BF0000009261
:104D50004FEA0001FFF7D6BF4FF000414FF00000CF
:104D6000A1F5002170470EF1020E2EF0030E5EF841
:104D7000044B244204D44FEA4102B2F17F4F11D8D0
:104D80004FEA4003B3F17F4F0CD80ED14FEAD07CED
:104D9000B2F17F4F0CEB4C0C0CF1020C08BF4CEB4A
:104DA000D17C04E04FF0080C01E04FEAD17C0CEB21
:104DB0004C0324FA03F404F00704B4F1040C06D203
:104DC0000EEB840CBDE810404CF0010C6047DFE8AE
:104DD0000CF0070802024FF00040A0F5800010BD63
:104DE0000846420018BFD2F1807288BF00F0004030
:104DF00010BD4FF04070E1EE100A7047FBF7E5BDC3
:104E0000000000000000000001020304060708097A
:104E10000000000001020304000000000000000088
:104E20000000000000000000000000101010101032
:104E300010000010100000000000002828282800A2
:104E400000000000000000000000001212167F2485
:104E500024FE284848000000000008083E49486831
:104E60003E0B09493E080800000000609090620C6B
:104E700030460909060000000000001C20203030E8
:104E8000494545623D000000000000101010100070
:104E9000000000000000000000000C0808101010C6
:104EA0001010100808040000000030101008080856
:104EB000080808101030000000000008493E1C6B74
:104EC00008000000000000000000000000101010AA
:104ED000FE101010000000000000000000000000A4
:104EE0000000001818102000000000000000000062
:104EF000003800000000000000000000000000007A
:104F0000000000181800000000000002040404085B
:104F100008101020202040000000001C22414149C0
:104F2000414141221C000000000000182808080828
:104F3000080808083E0000000000003E430101028E
:104F4000060C10207F0000000000003E4101031C01
:104F5000030101433E000000000000060A1A12226D
:104F6000427F0202020000000000007E40407C42BE
:104F7000010101423C0000000000001E3160405E63
:104F8000634141231E0000000000007F030204046F
:104F900008081010200000000000003E4141413E82
:104FA000634141633E0000000000003C62414163F8
:104FB0003D0103463C0000000000000000001818FE
:104FC0000000001818000000000000000000181881
:104FD00000000018181020000000000000010E382A
:104FE00040380E01000000000000000000007F00BB
:104FF000007F000000000000000000000040380EAC
:10500000010E3840000000000000003844040C1875
:1050100010100010100000000000001E332147494E
:105020004949494720300E000000000814141414A8
:10503000223E2241410000000000007E4141417EAD
:10504000434141437E0000000000001E21404040DB
:10505000404040211E0000000000007C42414141D0
:10506000414141427C0000000000007F4040407F01
:10507000404040407F0000000000007F4040407FF3
:1050800040404040400000000000001E21404040E1
:10509000434141211E000000000000414141417F89
:1050A00041414141410000000000007C10101010FF
:1050B000101010107C0000000000001C0404040408
:1050C00004040444380000000000004244485070CA
:1050D0007848444642000000000000404040404004
:1050E000404040407F00000000000063635555557C
:1050F00049414141410000000000006161515149B6
:1051000049454543430000000000001C2241414145
:10511000414141221C0000000000007E4341414308
:105120007E404040400000000000001C2241414100
:10513000414141221E0602000000007E43414143DE
:105140007C424141400000000000001E61404030B0
:105150000E0101433E000000000000FE1010101080
:1051600010101010100000000000004141414141AA
:10517000414141633E0000000000004141222222E3
:1051800014141414080000000000008181815A5A90
:105190005A6666666600000000000041221414088A
:1051A00014142222410000000000008244442838E8
:1051B00010101010100000000000007F030204080F
:1051C000081020607F00000000001C10101010105C
:1051D00010101010101C00000000004020202010B3
:1051E0001008080404040200000038080808080831
:1051F0000808080808380000000000102844C6000D
:10520000000000000000000000000000000000009E
:1052100000000000000000FF003010080000000047
:10522000000000000000000000000000001C22023E
:105230003E4242463A00000000004040407C64424A
:10524000424242645C00000000000000001C22405A
:10525000404040221C00000000000202023E2642A4
:10526000424242263A00000000000000003C264274
:105270007E4040221C00000000000C10107C10102A
:10528000101010101000000000000000003A26422C
:10529000424242263A02221C00004040405C6242E8
:1052A0004242424242000000000010100070101004
:1052B000101010107C0000000000080800380808DA
:1052C000080808080808087000004040404448509A
:1052D0007048484442000000000070101010101088
:1052E000101010100E00000000000000007E494960
:1052F000494949494900000000000000005C624241
:10530000424242424200000000000000003C66426F
:10531000424242663C00000000000000005C644223
:10532000424242647C40404000000000003A264275
:10533000424242263A02020200000000003C3220B3
:10534000202020202000000000000000003C4240FF
:10535000700E02423C00000000000010107E101091
:10536000101010100E000000000000000042424229
:10537000424242463A00000000000000004242243F
:105380002424181818000000000000000081815A31
:105390005A5A5A2424000000000000000042241839
:1053A00018182424420000000000000000422224BB
:1053B000241418180808103000000000007E0204B1
:1053C000081020407E00000000000C10101010108B
:1053D0006010101010100C000000101010101010B1
:1053E000101010101010101000006010101010108D
:1053F0000C101010101060000000000000000000F1
:10540000000000000000000000000000000000009C
:10541000000000000000000000000000000000008C
:10542000000000000000000000000000000000007C
:10543000060006000600060006000600060006003C
:10544000060006000000000006000600060000003E
:10545000000000000000000000000000000000004C
:1054600019801980198019801980198000000000A6
:10547000000000000000000000000000000000002C
:10548000000000000000000000000000000000001C
:10549000066004400CC00CC07FF07FF008801980CB
:1054A0001980FFE0FFE033003300220022000000FB
:1054B00000000000000000000000000000000200EA
:1054C00002000F801FC03A40320032003A001F0035
:1054D00007C002E00260026022E03FC01F800200BD
:1054E00002000200000000000000000000000000B8
:1054F00078004800CC00CC00CC00484079C00E00B9
:1055000073C00240066006600660024003C00000EF
:10551000000000000000000000000000000000008B
:105520000F801F801800180018000C001E00363075
:10553000633063B061A060E030C03F600E70000077
:10554000000000000000000000000000000000005B
:105550000600060006000600060006000000000027
:10556000000000000000000000000000000000003B
:10557000000000000000000000000000000001002A
:10558000020002000600060004000C000C000C00E3
:105590000C000C000C000C000400060006000200C9
:1055A00002000100000000000000000000000800F0
:1055B00004000400060006000200030003000300CC
:1055C00003000300030003000200060006000400BD
:1055D00004000800000000000000000000000000BF
:1055E00004000400444035800E000E003580444025
:1055F00004000400000000000000000000000000A3
:10560000000000000000000000000000000000009A
:1056100000000000060006000600060006007FE00D
:105620007FE00600060006000600060000000000FD
:10563000000000000000000000000000000000006A
:10564000000000000000000000000000000000005A
:105650000000000000000000060006000600060032
:105660000C000C0000000000000000000000000022
:10567000000000000000000000000000000000002A
:105680001F001F00000000000000000000000000DC
:10569000000000000000000000000000000000000A
:1056A00000000000000000000000000000000000FA
:1056B00000000000000000000600060006000000D8
:1056C00000000000000000000000000000000000DA
:1056D000006000C000C001800180030003000600DC
:1056E000060006000C000C00180018003000300006
:1056F000600000000000000000000000000000004A
:105700001E003F80318071C060C060C066C066C04E
:1057100060C060C060C071C031803F800E0000007A
:105720000000000000000000000000000000000079
:1057300007001F001B000300030003000300030019
:10574000030003000300030003001FE01FE000004C
:105750000000000000000000000000000000000049
:105760003F007F8041C000C000C000C001C0018078
:10577000030006000C00180030007FC07FC000004E
:105780000000000000000000000000000000000019
:105790003F007F8041C000C000C001C00F800F806B
:1057A000018000C000C000C041C07F803F000000F9
:1057B00000000000000000000000000000000000E9
:1057C00003800380078005800D8009801980318067
:1057D000318061807FE07FE00180018001800000F6
:1057E00000000000000000000000000000000000B9
:1057F0003F803F803000300030003F003F8021C0BC
:1058000000C000C000C000C041807F803E0000009A
:105810000000000000000000000000000000000088
:105820000F001F8038803000700060006F007F80A4
:1058300071C060C060C060C031C03F801F00000008
:105840000000000000000000000000000000000058
:105850007FC07FC00180018001800300030003003E
:105860000600060006000C000C000C0018000000EA
:105870000000000000000000000000000000000028
:105880001F003F8071C060C060C031801F003F803A
:10589000318060C060C060C071C03F801F000000E8
:1058A00000000000000000000000000000000000F8
:1058B0001F003F80718060C060C060C071C03FC089
:1058C0001EC000C000C0018023803F001E000000F9
:1058D00000000000000000000000000000000000C8
:1058E00000000000000000000600060006000000A6
:1058F0000000000000000000060006000600000096
:105900000000000000000000000000000000000097
:105910000000000000000000060006000600000075
:10592000000000000000000006000600060006005F
:105930000C000C000000000000000000000000004F
:10594000000000000000002001E007801E00700041
:1059500070001E00078001E0002000000000000031
:105960000000000000000000000000000000000037
:105970000000000000000000000000007FE07FE069
:10598000000000007FE07FE0000000000000000059
:105990000000000000000000000000000000000007
:1059A000000000000000400078001E00078000E0BA
:1059B00000E007801E0078004000000000000000AA
:1059C00000000000000000000000000000000000D7
:1059D0000F801FC01060006000E001C0038006005F
:1059E0000600060000000000060006000600000099
:1059F00000000000000000000000000000000000A7
:105A00000000078018C03060306023E0626066608C
:105A10006660666066606660626033E03000180051
:105A20001C000780000000000000000000000000D3
:105A3000060006000F000F000F001F80198019805C
:105A400019803FC03FC030C030C06060606000005F
:105A50000000000000000000000000000000000046
:105A60007F007F8061C060C060C061C07F807F8038
:105A700060C060606060606060E07FC07F80000048
:105A80000000000000000000000000000000000016
:105A900007C01FE038203000600060006000600038
:105AA000600060006000300038201FE007C0000088
:105AB00000000000000000000000000000000000E6
:105AC0007E007F8061C060C0606060606060606018
:105AD00060606060606060C061C07F807E000000C8
