:020000040800F2
:100000001019002065020008A7350008A132000879
:10001000A5350008BD1D0008EB3F000800000000EA
:10002000000000000000000000000000F1360008A1
:10003000BF1D000800000000A9350008FD3A0008B7
:100040007F0200087F0200087F0200087F0200088C
:100050007F0200087F0200087F0200087F0200087C
:100060007F0200087F0200087F0200087F0200086C
:100070007F0200087F0200087F0200087F0200085C
:100080007F0200087F0200087F0200087F0200084C
:100090007F0200087F0200087F0200087F0200083C
:1000A0007F0200087F0200087F0200087F0200082C
:1000B0007F0200087F0200087F0200087F0200081C
:1000C0007F0200087F0200087F0200087F0200080C
:1000D0007F0200087F0200087F0200087F020008FC
:1000E0007F0200087F0200087F0200087F020008EC
:1000F0007F0200087F0200087F0200087F020008DC
:100100007F0200087F0200087F0200087F020008CB
:100110007F0200087F0200087F0200087F020008BB
:100120007F0200087F0200087F0200087F020008AB
:100130007F0200087F0200087F0200087F0200089B
:100140007F0200087F0200087F0200087F0200088B
:100150007F0200087F0200087F0200087F0200087B
:100160007F0200087F0200087F0200087F0200086B
:100170007F0200087F0200087F02000800000000E4
:100180007F0200087F02000800F002F800F05AF831
:100190000AA090E8000C82448344AAF10107DA45E2
:1001A00001D100F04FF8AFF2090EBAE80F0013F0DA
:1001B000010F18BFFB1A43F001031847A87900008C
:1001C000C8790000103A24BF78C878C1FAD852071D
:1001D00024BF30C830C144BF04680C6070470000C1
:1001E0000023002400250026103A28BF78C1FBD840
:1001F000520728BF30C148BF0B607047662904F022
:100200009984642900F03C81752900F039817829AE
:1002100000F07281002070471FB504F086FC9DE855
:10022000030000F063FA00F033FD04000020002119
:1002300004F0EEFBE06000F045FE1FBD10B500F0DD
:10024000AAFE10BD00F015FF1146FFF7E5FF04F010
:100250006BFB00F0F3FF03B4FFF7F0FF03BC01F00A
:100260006BF800000948804709480047FEE7FEE7B1
:10027000FEE7FEE7FEE7FEE7FEE7FEE7FEE7FEE756
:1002800004480549054A064B70470000953B0008A5
:1002900089010008101300201019002010150020FB
:1002A0001015002070B5064600F004FA056806F146
:1002B0000B0020F00704B4429CBF002070BD2B4609
:1002C0006A68BAB11068A04210D304F108018842EC
:1002D0003CBF5068586007D35168101941601168DD
:1002E000091B016058601460101D70BD13465268F0
:1002F000002AE7D12146284600F0E4F90028DED1A3
:1003000070BD70B50446051F00F0D4F90068002CDC
:1003100014BF446870BD002C18BFAC423CBF2046DF
:100320006468F8D301680A18AA4218BF456003D16F
:100330002A6805461144016028684119A1421CBF82
:100340006C6070BD6168696021680844286070BD98
:1003500053EA020C00F069802DE9F04B4FF00006E3
:10036000002B1FBFB3FA83F503FA05F424FA05F650
:100370005E4012BF1643B2FA82F502FA05F4C5F1E7
:1003800020051EBF22FA05FC44EA0C04203556EA7B
:10039000044C4FEA144418BF641C4FF000084FF09F
:1003A0000009904271EB030C39D3002919BFB1FA4F
:1003B00081F701FA07F6B0FA80F700FA07F6C7F1FD
:1003C00020071EBF20FA07FC46EA0C062037B6FBC2
:1003D000F4FCA7EB0507103F07F01F0BCBF120063D
:1003E0000CFA0BFB2CFA06F644BFB3460026202F6E
:1003F000A4BF5E464FF0000B5BEA060C08BF4FF04F
:10040000010B19EB0B09ABFB027C48EB0608C01B88
:1004100006FB02CC0BFB03CC71EB0C01C1E70B46D6
:10042000024641464846BDE8F08B13B54FF0000048
:100430004FF00001AFF30080BDE81C4070470000A2
:100440000FB4044910B503AA029800F00BFC10BCCD
:100450005DF814FB081200200FB41CB5074B06AA68
:100460007B4469460090059800F0E3FB0020694654
:1004700000F0F2FB1CBC5DF814FB0000F507000067
:100480002DE9F0410646002410687529314616A56D
:1004900010D0AFF30080002802DA404213A507E035
:1004A00031688A0701D512A502E0490704D511A5D4
:1004B000012401E0AFF3008000210A2206F12407A5
:1004C00009E0B0FBF2FCB0FBF2F302FB1C003030A1
:1004D00078541846491C0028F3D123462A46304652
:1004E000BDE8F04100F038B9000000002D00000028
:1004F0002B0000002000000070B504460D46214688
:100500001068AFF300802188090502D50F4A7A44AC
:1005100002E00E4A7A440E32002104F1240305E081
:1005200000F00F060009965D5E54491C0028F7D1C3
:1005300020780023000704D5702D02D009B10223D2
:1005400011322046BDE8704000F006B93E7500004B
:100550002DE9F0474FF0000A89460446C0F820A074
:100560002046E1688847002876D0252806D0D4E9BF
:1005700001219047206A401C2062F1E7E168204693
:1005800000258847C4F81CA006460027C4F818A018
:100590002A2E09D0304603F0D3FE38B304EB870887
:1005A000303EC8F8186019E059F8041B204604EBE7
:1005B00087029161E1688847012F064618D1E069FA
:1005C000002820DA25F020051DE0D8F8180000EBFF
:1005D000800006EB40003038C8F818002046E1687B
:1005E0008847064603F0ACFE0028EED1012F0AD062
:1005F0002E2E08D12046E16888477F1C0646022F30
:1006000045F02005C4DBA069002803DA404245F02C
:100610000105A061E80701D025F01005B6B1A6F1EB
:100620004100192802D8203645F400654A46314673
:10063000204625604D46FFF7E1FD58B1012806D060
:10064000ED1D25F0070000F1080989E704E005F138
:10065000040985E730468AE7206ABDE8F0874FF055
:10066000000200B5134694469646203922BFA0E802
:100670000C50A0E80C50B1F12001BFF4F7AF09070E
:1006800028BFA0E80C5048BF0CC05DF804EB8900FF
:1006900028BF40F8042B08BF704748BF20F8022B42
:1006A00011F0804F18BF00F8012B7047704770475A
:1006B0007047000000487047B8120020704770472C
:1006C0007047704738B504460A4600206946AFF3C4
:1006D0000080002808BF38BD02460099204600F07F
:1006E000DBFA012038BD012000F088BCF8B5AFF37B
:1006F0000080054600200C46102000BF0646A819C1
:10070000A0420DD9324669460020AFF300800700B1
:1007100008BF00F073FC0098A04218BF0546C4193A
:10072000FFF7C8FF05600746F01D20F007004619D7
:10073000284600F00AF8B44208BFF8BDA21B3146B3
:100740003868BDE8F84000F0A7BA00210160C0E9B0
:1007500001107047102070472DE9F0470D4699466B
:100760009246044600F124080168880604D5E06931
:1007700021F01001216000E00120A84201DD471BAB
:1007800000E00027A1697A1902EB0900081AA061AC
:100790002078C00602D42046AFF30080002608E08F
:1007A000D4E901211AF806009047206A401C761C03
:1007B00020624E45F4DB2078C0060AD52046AFF310
:1007C000008006E0D4E9012130209047206A401CD7
:1007D0002062381EA7F10107F4DC07E0D4E901210B
:1007E00018F805009047206A401C2062281EA5F1D9
:1007F0000105F3DC2046AFF300802078000602D527
:100800000220BDE8F0870120FBE770472DE9FF4F8C
:100810000C461E464FF0FF378BB0D2E90001DDF8E1
:1008200060800A908A46C1F30A5505B93D46002109
:1008300008464FF00000BAF1000F00F4400005DA5E
:1008400000EB80004FF4400101EA50004FEA90595C
:10085000B9F1010F00DDB9460A9850EA4A000ED0FE
:1008600044F61050A5F2FF3545432F14B8F1000FA0
:100870001ED07542291E1EDDC9F100021CE0B8F130
:10088000010F4FF0000001D0302103E0F24305E0FA
:100890002154401CB042FBDB304600220021215491
:1008A0000B99C1F80880C1E900200FB0BDE8F08FB6
:1008B000BD1B6D1CDEE74A4600DA694206A800F05F
:1008C0008BFA06AB93E8070003AB83E807005046BA
:1008D0000A9900F0ABFE8DE80700A0F500501F3824
:1008E00000900398002D0ADD42F21F014A46084499
:1008F000002303A90390684601F014F909E0A0F56C
:1009000000504A461F38002303A90390684601F0AF
:100910001EF98DE807000004000C03D04FF0FF30F3
:10092000410800E01046B8F1000F03D00022009209
:1009300015461EE0751E05D400F0C8F93032625528
:100940006D1EF9D5B3460122084302D000227F1C58
:1009500004E02078302801D100227F1E002A099768
:1009600084D01DE0112D07DA00F0B0F93032625565
:100970006D1C50EA0102F5D1084302D00098C8B1BD
:100980000EE00021681E05E0235C625C6354225483
:10099000401E491C8142F7DBAB46A81B401E099054
:1009A000002004F80B000B98099AC0F80880C0E9F1
:1009B000002B7AE711264FF0000857E72DE9F04F9A
:1009C00088460446D21D22F0070191B0D1E900010A
:1009D000CDE90A0103F08CFC02460B98C00F01D050
:1009E0002D2007E02068810701D52B2002E020217F
:1009F00001EAC000032A099001D0072A05DB03465B
:100A00004146204600F0A8F90BE12078800601D588
:100A1000E06900E00620B8F1650F814606D0B8F124
:100A2000660F18D0B8F1670F70D131E00020B9F12E
:100A3000110F009001DB112301E009F101030AAA63
:100A400001A90CA8FFF7E2FEDDE90C70002609F110
:100A50000105834647E001204B4600904FF00047D8
:100A60000AAA01A90CA8FFF7D1FEDDE90DB00C9987
:100A70005D46002610B909F101000D18B9EB05001B
:100A800003D4C0F1FF3609F10105A5EB09002BE005
:100A9000B9F1010F01DA4FF001090020B9F1110F8E
:100AA0000090484601DD112300E003460AAA01A98F
:100AB0000CA8FFF7ABFEDDE90C704D46002683461F
:100AC000207800070AD4AB4500DA5D4601A8012D65
:100AD00004DD411911F8011C302907D04F4502DA15
:100AE00017F1040F04DA012082460FE06D1EEEE7D5
:100AF000002F02DCED1B3E4403E0781CA84200DD21
:100B00007D1CB81B00F1010A4FF000472078000758
:100B100003D4AA4501DB4FF0FF3A0021B7F1004FA3
:100B20000DF143088DF8431024D002202B23002F11
:100B300001DA7F422D230A21021EA0F1010000DC10
:100B40005FB197FBF1FC97FBF1F201FB1C7C1746B0
:100B50000CF1300C08F801CDEEE7A8F101000370AC
:100B60002188090501D5452100E06521A0F1010892
:100B700000F8011C09980FA9A1EB0807FF1D00B19F
:100B80000120411901EBEA70A1693844081A401E9E
:100B9000A0612078C00602D42046AFF300800998F7
:100BA00028B1D4E901219047206A401C20622078B6
:100BB000C00622D52046AFF300801EE0002E04DBE5
:100BC000B34502DD01A8805D00E03020D4E90121B9
:100BD0009047206A401C2062761CAAF101005FEA5F
:100BE000000A0AD100F054F8C0680168405CD4E9FA
:100BF00001219047206A401C2062281EA5F10105B2
:100C0000DCDC07E0D4E9012118F8010B9047206AE9
:100C1000401C2062381EA7F10107F3DC2046AFF329
:100C20000080032011B041E601694A1C0261087886
:100C3000704700B58FB0CDE901310021059105491C
:100C40007944CDE9031011466846FFF781FC0FB0E7
:100C500000BD0000E5FFFFFF0A6802F8010B0A6013
:100C600070470000074B70B50D467B44FFF7E1FF6E
:100C70000446284600F022F910B14FF0FF3070BD55
:100C8000204670BD5B38000000487047B01200205D
:100C900000487047D0120020034640688C46002868
:100CA00018BF88423CBF03464068F8D31868184410
:100CB000884207D00CF1030020F00700001D411A04
:100CC000521A0146081D0A60FFF71BBB30B5B0F190
:100CD0000A024FEA900E71F100034EEA817EB0EBFA
:100CE0000E0061EB91014FEA101E4EEA017E10EBFF
:100CF0000E0041EB11114FEA102E4EEA016E10EB7F
:100D00000E0041EB11214FEA104E4EEA014E10EB5E
:100D10000E0041EB1141401841F100014FEAD000B3
:100D200040EA41704FEAD10110EB80054FEA81049F
:100D300044EA907444EB01046D1944EB0404521B23
:100D4000A3414FF0000348BF0A3200D530BD401C1C
:100D500041F1000130BD00002DE9F0411F4604467D
:100D600003260168072A01F4006004DB08B116A518
:100D700005E016A503E008B115A500E015A521F0D2
:100D800010002060A069C01EA0610FB1401EA061CC
:100D90002046AFF300804FB1D4E901213846904797
:100DA000206A401C2062C01C206206E0206AFAE72C
:100DB000D4E9012115F8010B9047761EF8D22046A0
:100DC000AFF30080BDE8F0814E414E006E616E00D1
:100DD000494E4600696E66002DE9F0478146164689
:100DE0008AB0354878440DC88DE80D003248784403
:100DF000801C03AC0DC884E80D0041F69B3008440C
:100E0000372190FBF1F290FBF1F5A5F1800501FB94
:100E100012041B3C02D56442012000E00020DFF8F0
:100E200098A080460027FA44AAF1BE0A0EE0E00727
:100E30000AD03246684607EB470101230AEB8101DD
:100E400000F085FE8DE8070064107F1C002CEED1B9
:100E5000194F7F44AE3F19E0E80715D007EB0410A7
:100E60000DF1180A90E80E008AE80E00C068F04202
:100E700001D1981908903246012306A903A800F071
:100E800066FE03AB83E807006D10641C002DE3D100
:100E90004FF0010332466946B8F1000F03A802D0B3
:100EA00000F040FE01E000F052FEC9E90001C9F87F
:100EB00008200AB0BDE8F0870C6D0000007B00F050
:100EC0008000704710B542485421FFF7C8FB4148E5
:100ED0005421FFF7C4FB40485421FFF7C0FB3F49B2
:100EE0003B483C4A3F4B08603D490A603A4919601B
:100EF000531C0365481C1065012008653B48344AB3
:100F000039A1784400F0FEF820B9384878440A380E
:100F100000F0A2F937482F4A35A1784400F0F2F8E2
:100F200020B9344878440A3800F096F932482A4A01
:100F30002FA1784400F0E6F820B92F4878440A3809
:100F400000F08AF940232248DC000021224600F00C
:100F5000B5F820B125487844543800F07DF91D4893
:100F600022464023002100F0A9F820B1214878440E
:100F7000543800F071F9184822461023002100F07F
:100F80009DF8002806D01C487844BDE8104056382B
:100F900000F062B910BD104870B5006D20F001047A
:100FA0000B4800F025F90B4800F022F90A4800F040
:100FB0001FF909E0206D20F00105204600F018F926
:100FC0002046FFF79EF92C46002CF3D170BD00009F
:100FD000B4110020081200205C120020280000201C
:100FE0002C0000203000002072000000066C000081
:100FF00077000000F26B0000DE6B000010B500F01F
:1010000033F9BDE8104000F022B90EB5CDE900017A
:1010100000F0C0FA029069460120ABBE0EBD08B5D3
:10102000694600900220ABBE08BD1FB58DE80700E1
:1010300069460520ABBE04B010BD1FB58DE80F009A
:1010400069460620ABBEF6E708B569460090092060
:10105000ABBE08BD1CB5CDE9000169460A20ABBE98
:101060001CBD704708B5694600900C20ABBE08BD9A
:1010700070477546FFF708FEAE46050069465346C1
:1010800020F00700854618B020B5FFF7F9F8BDE855
:1010900020404FF000064FF000074FF000084FF0DF
:1010A000000B21F00701AC46ACE8C009ACE8C00970
:1010B000ACE8C009ACE8C0098D46704770B5C4689B
:1010C000A50713D0650211D4B2F5807F09D0B2F51F
:1010D000007F06D0B2F5806F08D1012300F1240112
:1010E00006E05D1E6FF07F46B54201D3012070BD62
:1010F0000161C361416024F470611143C16000204B
:1011000070BD00002DE9F0410C460746164610461A
:1011100000F06EF82078611C61280AD0722802D095
:1011200077283CD102E00125002405E002250424B3
:1011300002E0082448F2020511F8010B2B2806D022
:10114000622809D011F8010C74280AD00BE045F090
:10115000030544F00204EFE745F0040544F0010400
:10116000EAE744F0100438462146FFF74EFF411CE1
:1011700015D00021316171604FF40071F560F161AB
:101180007061200704D530460222002100F0DAF811
:10119000306D40F0010030653046BDE8F081002040
:1011A000FBE72DE9F0410D460646104C206DC107C6
:1011B00004D0410804D020F00104F7E722460EE0F5
:1011C0005420FFF76FF807000ED0206D47F00101A3
:1011D0000843542120653846FFF741FA3A4629462C
:1011E0003046BDE8F0418DE70020D6E7B41100207D
:1011F0002DE9F04704464FF000094FF0FF37C5686E
:10120000D4E90486A80707D0204600F04BF9304601
:10121000FFF705FF002802DA3846BDE8F087280509
:1012200002D54046FFF76DF84C212046FFF717FA2C
:10123000206D20F0010020654846EEE710B5044619
:10124000AFF300802046BDE81040FFF704B8002847
:1012500001D000F071B8704710B500F081F9BDE819
:101260001040FFF7F4BF000010B5012805D00021A1
:1012700003A000F05BF9012010BD09A1F8E7000010
:1012800053494752544D454D3A204F7574206F666F
:101290002068656170206D656D6F727900000000D7
:1012A0003A2048656170206D656D6F727920636FBB
:1012B00072727570746564004FF0013C50F8042B35
:1012C00051F8043B9A4221D1A2EB0C03934313EA59
:1012D000CC1317D150F8042B51F8043B9A4215D186
:1012E000A2EB0C03934313EACC130BD150F8042B5D
:1012F00051F8043B9A4209D1A2EB0C03934313EA41
:10130000CC13DBD04FF00000704700BFD01A01BAF9
:10131000B1FA81F101F0180122FA01F0CB40C1F1DC
:101320002001DBB2C0B2C01A2CFA01F3D11A9143EA
:1013300011EAC311E6D1704701491820ABBEFEE7A0
:10134000260002002DE9F041044616460D46476985
:10135000007B80072ED03846FFF776FE50BB3EB3A9
:10136000012E02D0022E25D104E0204600F038F9EB
:1013700005441DE03846FFF775FEE168002841F09E
:101380001001E16005DA204600F058F80120BDE8C0
:10139000F081C9030BD56268E16A914200D8114619
:1013A000A26911442269891A814200DD0846054478
:1013B000002D01DA0220EAE7E16A6068E268814212
:1013C00006D29103E06203D522F4003141F010020D
:1013D000A6690027AE4213DCE16A814201D90B46BF
:1013E00000E0034603EB060C2369ACEB030CAC45B1
:1013F00006DD814201D98C4600E084469C4505D13A
:10140000A760276042F02000A5620DE0AD1BE669F1
:10141000AE1B8142A66000D90846C01A281A206077
:101420005819606022F0200003490840E060002065
:1014300084F84870ABE70000BFCFD7FFC16821F444
:10144000001141F08001C16000218160016070479E
:101450002DE9F047814614460E464FF0FF383248DA
:10146000D5685769054209D03846A169FFF7F2FDF2
:10147000002811DB2C48C0430540E5602B4632466E
:1014800049463846FFF7D1FDA16920F00042B21A63
:1014900011440028A16103D02046FFF7CFFF40464A
:1014A000BDE8F08770B504460569C06A6168884286
:1014B00000D80846E16821F42011E160C90312D583
:1014C000A84208D02246411B2846FFF7C1FF10B1B1
:1014D0004FF0FF3070BD0020E562C4E90150E068C4
:1014E00020F48030E060002070BD10B50446C06874
:1014F00020F02000E060A16AA06988420DD020465B
:10150000FFF7D0FFE06820F4405040F01000E060AA
:10151000A06AA0612069E062606044F24001E06876
:101520008843E06010BD00001000020070B5054661
:101530000C460A2000E06D1C00F04BF835B128780D
:101540000028F8D102E0641C00F043F814B12078C0
:101550000028F8D1BDE870400A2000F03AB8000039
:1015600010B5014602A0FFF7E1FF012010BD000009
:1015700053494752545245443A2052656469726552
:1015800063743A2063616E2774206F70656E3A2031
:101590000000000010B5431C02E010F8011B71B1FF
:1015A0008107FAD14FF0013202C88C1A8C4314EA39
:1015B000C211F9D0C01A0A0603D0C01E10BDC01A4D
:1015C00010BD0A0401D0801E10BD0902FCD0401ECF
:1015D00010BD08B569468DF800000320ABBE08BDFC
:1015E00010B50146C268900703D0900607D5886AF7
:1015F0000AE000F017F801210160881E10BD8B6918
:10160000486818440B69C01A91F848301BB191F82A
:101610004910401A10BD1103FCD50028FADD401E08
:1016200010BD000000487047B01200205FEA400C77
:1016300008BF91F0000F4FEA8C234FEAC12243EA22
:1016400051514FEA1C5018BF00F5F0404FEA3000EE
:1016500018BF41F000415FEA6C5C00F02980BCF1EA
:10166000FF3F08BF40F080407047130C06BF1204D4
:101670004FF0100C4FF0000C130E04BF12020CF1CF
:10168000080C130F04BF12010CF1040C930F04BFDC
:1016900092000CF1020CD30F04BF52000CF1010CAC
:1016A00011464FF00002A0F11F00A0EB0C007047A4
:1016B00011F0004F08BF704731F000413FF4D5AF43
:1016C0000B0C06BF09044FF0100C4FF0000C0B0E72
:1016D00004BF09020CF1080C0B0F04BF09010CF147
:1016E000040C8B0F04BF89000CF1020CCB0F04BF5C
:1016F00049000CF1010CCCF12003A0EB0C0022FA04
:1017000003F302FA0CF241EA030100F10100704711
:1017100020F07F4C80EA030023F07F47ACEB070307
:1017200003F57C5300F0004003F1FF032DE98049ED
:101730004FEA154B09B44FEA144325EA0B4E24EA4D
:1017400003480FF2042606EB132749083E785FEAA8
:10175000320203FB0667C7F5000707FB06F64FEAF0
:1017600054374FEAD64606F1020607FB066CCCF169
:10177000005C4FEA1C472CEA074C07FB06F40CFB05
:1017800006F504EB15464FEA961634BF00204FF0DD
:1017900000404FEAD13706FB07FC4FEA1C4C0CFB1C
:1017A0000BF7D21B03FB0CF761EB07010CFB0EF7E9
:1017B000B0EB074072EB17420CFB08F734BFA2EB0B
:1017C0000742B2EB074261EB17414FEA0C444FEA84
:1017D000910706FB07FC4FEA1C4C0CFB0BF7B0EB28
:1017E000C74072EB573203FB0CF734BFA2EBC74282
:1017F000B2EBC74261EB57310CFB0EF7B0EBC70001
:1018000072EB57720CFB08F734BFA2EBC702B2EBC6
:10181000C70261EB5771039F4FEA816141EA921160
:1018200004EBCC044FEAD1374FEA826206FB07FC97
:1018300042EA90124FEA80604FEA1C4C0CFB0BF717
:10184000D21B03FB0CF761EB07010CFB0EF7B0EBAF
:10185000074072EB17420CFB08F734BFA2EB0742BC
:10186000B2EB074261EB17414FEA8C554FEA910703
:1018700004EB9C2406FB07FC4FEA1C4C0CFB0BF70B
:10188000B0EBC74072EB573203FB0CF734BFA2EB4F
:10189000C742B2EBC74261EB57310CFB0EF7B0EB1E
:1018A000C70072EB57720CFB08F734BFA2EBC702FC
:1018B000B2EBC70261EB577115EB4C254FEA816122
:1018C00041EA92114FEA82624FEAD13742EA90121E
:1018D00006FB07FC44F100044FEA80604FEA1C4C11
:1018E0000CFB0BF7D21B03FB0CF761EB07010CFBA6
:1018F0000EF7B0EB074072EB17420CFB08F734BF52
:10190000A2EB0742B2EB074261EB174115EB1C1546
:101910004FEA813141EA92414FEA823242EA9042F3
:101920004FEA80304FEA0C7644F1000448EA034362
:101930004EEA0B484FF0000EB2EB080C71EB0307B8
:1019400024BF624639464EEB0E0E4FF0000B0018D6
:10195000524149414BEB0B0BB2EB080C71EB030707
:101960007BF1000B24BF624639464EEB0E0E4FF062
:10197000000B0018524149414BEB0B0BB2EB080C2A
:1019800071EB03077BF1000B24BF624639464EEB37
:101990000E0E51EA020718BF46F0010616EB0E764E
:1019A00055F1000254F1000103D5BDE88901BDE8FD
:1019B0000088BDE88901BDE80048B619524141EBF5
:1019C0000101A3F10103704780807F7E7D7C7B7ADB
:1019D0007978777676757473727171706F6E6E6DDB
:1019E0006C6C6B6A6A696868676666656464636381
:1019F00062616160605F5F5E5E5D5D5C5C5B5B5A07
:101A00005A59595858575756565555555454535373
:101A100052525251515050504F4F4F4E4E4D4D4DCE
:101A20004C4C4C4B4B4B4A4A4A4949494848484719
:101A30004747474646464545454444444443434357
:101A40004342424242414141002B9C4630D4770000
:101A50002BD01CB54FEA370703B44FF010004FF0FE
:101A60001001BAF1000F06D0BCF1000FDCBF40F04E
:101A7000080040F008014FF000000FBCBDE8104026
:101A80000BF1010BBBF1010F08BF5FEA170722BF83
:101A900012F1010211F101014FF0004143F1000385
:101AA00000F0004043EA00007047F9D35708D0E740
:101AB00046EA064613F1400F4FEA16461FDD13F1C2
:101AC000200FDFBF16430A46002120335B42BED001
:101AD000C3F1200746EA064602FA07F74FEA164620
:101AE00046EA0706C3F1200722FA03F201FA07F7D4
:101AF00021FA03F14FF0000342EA0702A7E746EAA2
:101B0000020646EA06464FEA164646EA0106BCBF0A
:101B100046EA0646360C4FF000034FF000024FF045
:101B2000000194E72DE9804C9A46934670B491E801
:101B3000380007C831EA400C48BF34EA430C03D5EB
:101B4000FFF7E6FDFFF780FFF0BCBDE8008C2DE954
:101B5000804C9A46934670B491E8380007C810F05C
:101B6000804F08BF13F0804F03D100F005F8FFF756
:101B70006BFFF0BCBDE8008C20F07F4780EA0300DB
:101B800023F07F4C07EB0C03A3F57C5300F00040DF
:101B9000A3F1FE0392F0000F00F0B38095F0000F68
:101BA00000F077802DE901494FEA11404FEA1446D1
:101BB00021EA004800FB06FC24EA064708FB06F67B
:101BC00007FB08F800FB07F718EB06484CEB164C30
:101BD0004FEA124B18EB07484FEA15464CEB1740FB
:101BE00022EA0B4E0BFB06FC25EA06470EFB06F627
:101BF00007FB0EFE0BFB07F71EEB064E4CEB164CDD
:101C00004FF000061EEB074E4CEB174B18EB0B0882
:101C100040F1000018EB0E0B58EB000840F10000FB
:101C20008F1A4FF000013CBFC943661B14BFB5EBD0
:101C3000040C00213CBFC943F61B4FEA17444EEA8F
:101C40008E0E27EA04454FEA1C4704FB07622CEA84
:101C5000074C05FB07F70CFB05F604FB0CFC16EB29
:101C6000074642EB174216EB0C4642EB1C421BEBBD
:101C7000060658EB0202414146EA9E0601D5BDE840
:101C80000189B619524141EB0101A3F10103BDE8FD
:101C900001894FEA14454FEA114724EA054621EA33
:101CA000074C05FB07F406FB07F70CFB06F105FBE9
:101CB0000CFC11EB074144EB17444FEA124711EBC0
:101CC0000C4144EB1C4422EA074C05FB07F206FBDF
:101CD00007F70CFB06F605FB0CFC16EB074642EB80
:101CE000174216EB0C4642EB1C456A1854F10001F2
:101CF00048BF7047B619524141EB0101A3F10103FE
:101D0000704795F0000F37D04FEA11424FEA144761
:101D100021EA024624EA074C02FB07F106FB07F71B
:101D20000CFB06F402FB0CFC14EB074441EB1741DF
:101D30004FEA154714EB0C4441EB1C4125EA074CD4
:101D400002FB07F506FB07F70CFB06F602FB0CFC93
:101D500016EB074645EB174516EB0C4645EB1C42C8
:101D6000121951F1000148BF7047B619524141EBB9
:101D70000101A3F1010370474FEA14454FEA1147EF
:101D800024EA054621EA074C05FB07F106FB07F7A5
:101D90000CFB06F24FF0000605FB0CFC12EB0742B1
:101DA00041EB174112EB0C4251EB1C4148BF70470D
:101DB000921841EB0101A3F101037047FEE7704760
:101DC00072B6FEE730B5B3F5804F05D06FF07041C5
:101DD00040F82210002030BD8C690B688D682343C9
:101DE0004C688989240144EA0524234343EA0141DC
:101DF00050F82230014C23401943E9E70000F0CFAE
:101E000010B50A6850F8223023F0010340F8223060
:101E10008C68082C23D000234A682243CC681C43DA
:101E20000B6922431A434B690E4C1A43CB691A4380
:101E30000B6A1A434B6A1A438B6A1A43CB6A1A43DA
:101E40000B6B1A438B691343CA6B09681A4350F82A
:101E50002130A343134340F82130002010BD40231C
:101E6000DAE700007FFF0F0030B5D1E9003443EA24
:101E700004138C688D89240244EA054423430C8AA8
:101E8000094D00EB820005EB045423430C7D6D01EA
:101E900005EB0464896923430B43416801F0404129
:101EA0000B434360002030BD0000F0FF70B50446D6
:101EB00000F056F90546601C02D00448007804443E
:101EC00000F04EF9401BA042FAD370BD1400002070
:101ED000F0B587B014216846FEF7C1FB1A480168C7
:101EE00000292ED10121016018480024016841F029
:101EF000010101600068022500F0010005904FF427
:101F0000F060CDE9000502AA03260C2782E8D00084
:101F100069460F4800F022F84EF23300CDE9000583
:101F200002AA694682E8D0000A4800F017F8680261
:101F3000CDE9000502AA694682E8D000064800F013
:101F40000DF807B0F0BD000008000020383802404E
:101F500000100240000C0240001802402DE9F84F2A
:101F6000DFF8BCA10022012503264FF00F090AF17A
:101F7000040BAAF1040E00BF0B6805FA02F423401B
:101F8000A34270D10F7907F00307012F01D0022F70
:101F900016D187684FEA420806FA08FC27EA0C07C0
:101FA000D1F80CC00CFA08FC4CEA070CC0F808C0C9
:101FB0004768A7430C79C4F3001494403C43446041
:101FC0000C79E443A4070AD0C4684FEA420C06FA2D
:101FD0000CF7BC438F6807FA0CF72743C7600C79EE
:101FE00004F00304022C12D1D40800EB840CDCF8BA
:101FF00020405707FF0E09FA07F824EA0804D1F831
:10200000108008FA07F848EA0408CCF82080046831
:102010004FEA420C06FA0CF7BC430F7907F00307AE
:1020200007FA0CF7274307604C6814F4403F70D060
:102030003C4C276847F480472760246822F0030758
:1020400004F480440094384C07EB040CDCF8084896
:1020500097074FEA177809FA08F7BC43334FB8429D
:1020600002D1002724E054E0314FB84201D10127CA
:102070001EE0304FB84201D1022719E02E4FB8427E
:1020800001D1032714E02D4FB84201D104270FE0FE
:102090002B4FB84201D105270AE02A4FB84201D19F
:1020A000062705E0284FB84201D1072700E008279E
:1020B00007FA08F72743CCF80878DAF800405746C3
:1020C000D1F804C09C435FEACC2C00D51C433C6093
:1020D000DBF800405F46D1F804C09C435FEA8C2CDB
:1020E00000D51C433C60DEF800407746D1F804C0C0
:1020F0009C435FEA8C3C00D51C433C60084F083F82
:102100003C68D1F804C09C435FEACC3C00D51C433A
:102110003C60521C102AFFF42FAFBDE8F88F00007E
:10212000083C0140443802400030014000000240B9
:102130000004024000080240000C0240001002406F
:102140000014024000180240001C024000690840D0
:1021500000D0012070470AB1816170470904FBE794
:102160000148806870470000140000200248816820
:102170000278114481607047140000200B4810B5AC
:10218000016841F400710160016841F480610160FF
:10219000016841F480710160032000F061F80F20B4
:1021A00000F006F800F024F8002010BD003C0240CA
:1021B00070B50D4D04464FF47A712878B1FBF0F0FC
:1021C0000A490968B1FBF0F000F0CAFC48B9102CCC
:1021D00007D200222146501E00F022F800206C6039
:1021E00070BD012070BD0000140000202000002000
:1021F0000A4808B5016841F480410160006800F4B4
:10220000804000900548001F016841F08051016046
:10221000006800F08050009008BD00004438024083
:10222000F0B40E4B1B680C46C3F30223C3F1070541
:10223000042D00D90425191D072901D2002300E02F
:10224000DB1E012606FA05F1491E214099409E40F9
:10225000761E16403143F0BC02F062B80CED00E08F
:10226000064900F0070208684FF6FF03184040EAED
:102270000220034A10430860704700000CED00E0A4
:102280000000FA052DE9F0470E46050065D0DFF89D
:102290001481D8F80000F7B200F00700B04207D26E
:1022A00088F80070D8F8000000F00700B04254D160
:1022B00028683D4C810712D5400703D5206840F4BB
:1022C000E05020602878000703D5206840F4604083
:1022D00020602068A96820F0F0000843206028787A
:1022E000C0072DD0304968680839012812D002286B
:1022F00013D0032811D00968890700292DDA216835
:1023000021F0030101432160FFF72AFF814641F2DA
:10231000883A0EE009688903EFE709688901ECE76C
:10232000FFF71EFFA0EB0901514502D90320BDE8CC
:10233000F0872068696800F00C00B0EB810FEFD1E6
:10234000D8F80010404601F00701B14207D90770E4
:10235000006800F00700B04201D00120E7E72878CC
:10236000400705D52068E96820F4E0500843206064
:102370002878000706D52068296920F4604040EAE3
:10238000C100206000F038F82168084AC1F3031149
:10239000515CC8400649086006480068FFF708FF1E
:1023A0000020C4E7003C024008380240384B0008D7
:1023B0002000002018000020044805490068096832
:1023C000044AC1F38221515CC840704720000020BC
:1023D00008380240484B000804480549006809686D
:1023E000044AC1F34231515CC840704720000020CC
:1023F00008380240484B0008154810B5006810F036
:102400000C02144813D04110042A0FD0082A0ED110
:102410000F4C241F2268236802F03F025B0207D59D
:102420002068C0F38810A0FB010106E0084610BD3B
:102430002168C1F38811A1FB00010023FDF788FF8B
:102440002168C1F30141491C4900B0FBF1F010BD06
:10245000083802400024F4002DE9F84F04006ED043
:102460002078DFF84C93C007A9F104054AD009F1A0
:1024700004000168C1F38101012908D00068C0F39C
:10248000810002280AD1D9F80000400206D5286848
:10249000800337D560680028E1D033E06068B0F58C
:1024A000803F10D0B0F5A02F286810D020F48030E5
:1024B0002860286820F4802028606068A8B1FFF7B1
:1024C0004FFE06460DE0286840F48030F4E740F403
:1024D00080202860F7E700BFFFF742FE801B6428DA
:1024E00073D828688003F7D50CE0FFF739FE06465D
:1024F00005E000BFFFF734FE801B6428F0D8286891
:102500008003F7D42078DFF8AC8280074FF0000A10
:102510003ED5A748001D016811F00C0F08D00068D7
:10252000C0F3810002280BD1D9F80000400207D483
:102530002868800716D5E068012800D112E033E151
:10254000E068B8B10120C8F80000FFF709FE0646B0
:1025500005E000BFFFF704FE801B0228C0D82868F2
:102560008007F7D52868216920F0F80040EAC1000B
:1025700028600DE0C8F800A0FFF7F2FD064604E071
:10258000FFF7EEFD801B02281FD828688007F7D4CC
:102590002078000722D5864F87486169703771B16E
:1025A00001210160FFF7DCFD064604E0FFF7D8FDDE
:1025B000801B022809D838688007F7D50EE0C0F8DC
:1025C00000A0FFF7CDFD064605E082E0FFF7C8FD5D
:1025D000801B02287DD838688007F7D42078400710
:1025E00068D5DFF8CCB100270BF13C0BDBF800001D
:1025F000C0000BD4DBF8001041F08051CBF8001084
:10260000DBF80000012700F0805000906B4E30682E
:10261000C00510D4306840F480703060FFF7A0FD32
:10262000009005E0FFF79CFD0099401A022850D861
:102630003068C005F6D55E4EA0686C3601280FD014
:102640000528306810D020F001003060306820F09C
:1026500004003060A068B8B1FFF782FD00900FE081
:10266000306840F00100F4E740F004003060F7E724
:10267000FFF776FD0099411A41F28830814266D811
:1026800030688007F4D50EE0FFF76AFD009007E0A0
:10269000FFF766FD0099411A41F28830814256D811
:1026A00030688007F4D42FB1DBF8001021F080519E
:1026B000CBF80010A069C8B33D49091D0968C1F3F2
:1026C000810102294AD00228504607D0C8F860008C
:1026D00000E03CE0FFF744FD04463BE04746C8F815
:1026E0006000FFF73DFD064605E000BFFFF738FD3F
:1026F000801B02282BD828688001F7D4D4E9070171
:102700000843A16A2E4A490802EB0141626A41EA84
:102710008211084394F82C1040EA0161C9F80010B6
:1027200001203866FFF71CFD044606E03EE000BFCE
:10273000FFF716FD001B022809D828688001F7D58D
:1027400034E000BFFFF70CFD001B022802D9032074
:10275000BDE8F88F28688001F4D427E00128F7D07D
:10276000D9F80000E26900F4800191421CD1226A8C
:1027700000F03F01914217D147F6C071626A0140F3
:10278000B1EB821F10D1A26A4FF0FF3300F4403149
:1027900003EB5202B1EB024F06D194F82C1000F07B
:1027A0007060B0EB016F01D00120D1E70020CFE7CE
:1027B0000438024000004742800E4742007000404B
:1027C0000000FFFF70B5040009D0606A002540B129
:1027D00025616561A56294F8510040B10CE00120CB
:1027E00070BD6068B0F5827FF4D0E561F2E784F8EF
:1027F0005050204600F044F8022084F85100206830
:10280000016821F040010160A088218900F48270F4
:1028100001F404410843A18901F400610843217CCB
:1028200001F002010843217D01F001010843218BE1
:1028300001F400710843217F01F03801084394F846
:10284000201001F080010843218D01F4005108435C
:1028500021680860A069042101EA104094F824105E
:1028600001F010010843216848602068C16921F423
:102870000061C1616565012084F85100002070BDD0
:10288000F0B587B0044614216846FDF7E8FE1C4900
:102890002068884232D11B480024016841F48041FD
:1028A0000160006800F48040059016481038016807
:1028B00041F004010160016801F004010591016823
:1028C00041F0020101600068022500F0020005905D
:1028D0000C20CDE9000502AA0326052782E8D000D6
:1028E00069460948FFF73AFB2803CDE9000502AA2B
:1028F000694682E8D0000548FFF730FB07B0F0BD1D
:102900000038004040380240000802400004024005
:102910002DE9FF4F81B01D46934604464FF0010953
:102920000E9EFFF71DFC074694F8510061680128D0
:1029300006D0B1F5827F3CD1A168C9BB042838D14B
:102940000298002871D0BBF1000FFBD0002DF9D008
:1029500094F8500001282CD04FF0010A84F850A0C0
:1029600094F85100042802D0052084F851004FF05B
:102970000008C4F85480C4F838B0E587A5870299E8
:102980002163E586A586C4F84080C4F844802068A9
:102990000168490603D4016841F040010160E06824
:1029A000B0F5006F606808D0F0B3012D49D081E028
:1029B000FFE7022005B0BDE8F08F08B1012D39D145
:1029C000206B21680088C860206B801C2063E08E2B
:1029D000401EE0862EE02068816889070FD5E18ED1
:1029E00069B1B9F1010F0AD1216B0988C160206B6F
:1029F000801C2063E08E401EE0864FF000092068B6
:102A00008168C9070CD0E18F51B1C068A16B088003
:102A1000A06B801CA063E08F401EE0874FF001098F
:102A2000FFF79EFBC01B01E00BE067E0B04201D363
:102A3000701C50D1E08E0028CDD1E08F0028CAD183
:102A40003EE0206B216800780873206B401C2063F7
:102A5000E08E401EE0862DE02068816889070FD552
:102A6000E18E69B1B9F1010F0AD1216B09780173C7
:102A7000206B401C2063E08E401EE0864FF0000972
:102A800020688168C9070CD0E18F51B1C068A16B83
:102A90000870A06B401CA063E08F401EE0874FF0E1
:102AA0000109FFF75DFBC01BB04202D3701C01D0CF
:102AB00011E086B1E08E0028CED1E08F0028CBD186
:102AC0003A463146204600F081FD50B12020606535
:102AD00084F8508012E084F851A084F850800320DC
:102AE00068E7A06818B92068C1688068009084F819
:102AF00051A084F85080606D0028F1D0012059E782
:102B000070B515460E46040003D094F8490010B184
:102B100007E0012070BD002084F84800204600F046
:102B20001DF804F108012068FFF76AF93146A26830
:102B30002068FFF799F9D4E901022946236BFFF7D2
:102B400041F92168A06851F8202042F0010241F8C3
:102B50002020012084F84900002070BDFFF7B8B99B
:102B600010B5401EB0F1807F01D3012010BD4FF0A1
:102B7000E02460610F21601701F0D2FB0020A0610A
:102B800007202061002010BD10B5040003D094F888
:102B90003D0010B107E0012010BD002084F83C008A
:102BA000204600F01FF8022084F83D00211D206817
:102BB00000F0F8FF012084F8460084F83E0084F815
:102BC0003F0084F8400084F8410084F8420084F813
:102BD000430084F8440084F8450084F83D00002058
:102BE00010BD000008B500680649884208D10648B3
:102BF000016841F480710160006800F48070009009
:102C000008BD0000002000404038024090F83D1010
:102C1000012901D001207047022180F83D10016890
:102C2000CA6842F00102CA6000681149884214D0A3
:102C3000B0F1804F11D00F4988420ED00E49884222
:102C40000BD00E49884208D00D49884205D00D4965
:102C5000884202D00C49884204D1816801F0070102
:102C6000062903D0016841F001010160002070478E
:102C7000000001400004004000080040000C00403B
:102C800000040140004001400018004010B586B02B
:102C9000044614216846FDF7E2FC0E49206888428C
:102CA00016D10D480021026842F02002026000683F
:102CB00000F0200005904FF4007000900220CDE954
:102CC00001010920CDE9031069460448FFF746F9E0
:102CD00006B010BD00200040303802400014024011
:102CE00070B5044690F83C0000260D4601280FD030
:102CF000012084F83C006AB1042A1DD0082A2FD094
:102D00000C2A3FD00126002084F83C00304670BDDC
:102D1000022070BD206800F0BFFF2068816941F08B
:102D2000080181612068816921F0040181612068C6
:102D300081692A69114311E0206800F0DDFF2068F5
:102D4000816941F4006181612068816921F48061B9
:102D50008161206881692A6941EA02218161D2E7A3
:102D6000206800F0FFFF2068C16941F00801C161DF
:102D70002068C16921F00401C1612068C1692A6924
:102D8000114311E0206801F021F82068C16941F485
:102D90000061C1612068C16921F48061C16120685E
:102DA000C1692A6941EA0221C161ACE710B504009A
:102DB00003D094F83D0010B107E0012010BD0020C1
:102DC00084F83C00204600F01EF8022084F83D0004
:102DD000211D206800F0E6FE012084F8460084F8FA
:102DE0003E0084F83F0084F8400084F8410084F8F5
:102DF000420084F8430084F8440084F8450084F8D5
:102E00003D00002010BD704710B50446022249B1B4
:102E100004290ED0082913D094F84100012816D0B7
:102E2000012010BD94F83E000128F9D184F83E201D
:102E30000FE094F83F000128F2D184F83F2008E029
:102E400094F840000128EBD184F8402001E084F898
:102E500041200122206800F011FF16492068164A1F
:102E6000884201D0904203D1436C43F40043436451
:102E70002068884213D0B0F1804F10D00F498842AB
:102E80000DD00F4988420AD00E49884207D090429F
:102E900005D00D49884202D00C49884204D181688E
:102EA00001F00701062903D0016841F0010101602A
:102EB000002010BD0000014000040140000400405B
:102EC00000080040000C0040004001400018004095
:102ED00070B5040004D094F84100002510B106E05C
:102EE000012070BD84F84050204600F023F82420D3
:102EF00084F841002068C16821F40051C160204677
:102F000000F0B4FF2068016921F49041016120685C
:102F1000416921F02A0141612068C16841F40051F2
:102F2000C1606564202084F8410084F84200656334
:102F3000002070BD10B586B0044614216846FDF728
:102F40008EFB14492068884221D113480021026871
:102F500042F010020260006800F0100005900E4878
:102F60001438026842F001020260006800F00100BB
:102F700005904FF4C06000900220CDE901010320CC
:102F800003900720049069460448FEF7E7FF06B067
:102F900010BD000000100140443802400000024013
:102FA0002DE9F843044690F84100984616460D4630
:102FB000202802D00220BDE8F88385B17EB1002030
:102FC0006064212084F84100FFF7CAF8A684814696
:102FD000E684A0682027B0F5805F02D003E00120DE
:102FE000E9E7206910B12E4600250EE000260CE02E
:102FF0008021204600F0C0FFA8B9C6B116F8010B29
:1030000021684860E08C401EE084E08C4B464FF025
:103010000002CDF800800028EAD14FF040012046A0
:1030200000F0AAFF40B184F841700320C3E735F8EF
:10303000020BC0F30800E3E784F841700020BAE710
:103040002DE9F0412DED028B8AB04FF6FF7001F0B3
:103050008FFA0F2158A32022084601F00DFC002012
:1030600058491A22B0FBF2F302FB130341330B540D
:10307000401C1A28F6D300278F761B21514801F0F7
:1030800066F9514E707001F02BFA04461B220021A4
:103090004C4801F06BF801F023FA051B29464BA0C0
:1030A000FDF7CEF94FF47A784046FEF7FFFE01F0C7
:1030B00017FA044643481B2200211B3000F0C8FFCA
:1030C00001F00EFA041B214646A0FDF7B9F940466F
:1030D000FEF7ECFE3B481B211B30877601F037F9E9
:1030E000B0707178814201D144A300E048A310225E
:1030F0003721142001F0C0FB4AA310224B211420D9
:1031000001F0BAFB2F4B10221B335F21142001F07A
:10311000B3FB00EE105AF8EE400A9FED450AC0EEF0
:10312000208A00EE904AF8EE600A80EE208A18EEBF
:10313000900A01F089FC41EC100B3EA153EC102BDE
:103140006846FDF789F918EE100A01F07DFC41ECA4
:10315000100B3DA153EC102B05A8FDF77DF93EA304
:1031600010227821142001F087FB6B4610228C215D
:10317000142001F081FB05AB1022AA21142001F0DC
:103180007BFB18EE900A01F05FFC41EC100B38A0BD
:1031900053EC102BFDF754F918EE100A01F054FC13
:1031A00041EC100B38A053EC102BFDF749F90AB095
:1031B000BDEC028BBDE8F081484420535049204DBE
:1031C0006F646500340000200000002057726974AD
:1031D00065206475726174696F6E3A20257520757B
:1031E000730A000052656164206475726174696FCE
:1031F0006E3A2025752075730A00000044617461E1
:1032000020436865636B2050617373656400000040
:103210004461746120436865636B204661696C6535
:10322000640000005265616420446174613A0000EA
:1032300000F0D24657726974653A20252E32662016
:103240004B422F7300000000526561643A20252E26
:103250003266204B422F730053706565642073689B
:103260006F77696E672061637469766174653A008F
:1032700057726974652053706565643A20252E3253
:1032800066204B422F730A005265616420537065BB
:1032900065643A20252E3266204B422F730A0000C7
:1032A000FEE700002DE9F041124F002401213846CD
:1032B000FEF74CFF104E012528B110213846FEF7CD
:1032C00045FF50B111E03220FEF7F0FD01213846F4
:1032D000FEF73CFF48B9357007E03220FEF7E6FD07
:1032E00010213846FEF732FF10B12046BDE8F081CC
:1032F0000124F0E7000802400000002030B5064934
:10330000F0222C2388710A802A244A800B812B25E5
:103310004C818D8130BD0000A4110020024803497A
:10332000007A087070470000A4110020FEFF0368B7
:1033300010B58EB01C216846FDF791F91C2107A835
:10334000FDF78DF91B484FF020414FF4805201608A
:1033500019494160042181600021C160016141611E
:103360008161C1610162C0E909129200C0E90B12DA
:103370004163816341640F203C220090CDE901024A
:1033800003AC1022112384E80E0009240691CDE934
:10339000074009AC082084E80F000D9107AA694690
:1033A0000448FFF7ADFB002801D0FEF709FD0EB081
:1033B00010BD00006C000020040100A02DE9F041C8
:1033C00086B014216846FDF74AF9374800250168A0
:1033D00041F004010160016801F0040105910168F8
:1033E00041F020010160016801F0200105910168B0
:1033F00041F080010160016801F0800105910168E0
:1034000041F010010160016801F0100105910168AF
:1034100041F002010160016801F0020105910168BB
:1034200041F008010160016801F00801059101689F
:1034300041F001010160016801F00101059101689D
:1034400041F0400101600068012200F04000174F88
:103450001603059031463846FEF77DFEDFF85080B2
:10346000012208214046FEF776FE3320CDE9000513
:103470000124694602940F48FEF770FD0220CDE951
:103480000250CDE9006469463846FEF767FD082022
:10349000CDE900040294694640460394FEF75EFDC0
:1034A00006B0BDE8F0810000303802400004024060
:1034B000000C024000080240104810B50E4901609F
:1034C0004FF482714160002102228160C0E9031241
:1034D00001224261520282610822C0E90721416251
:1034E00081620A21C162FFF76DF9002803D0BDE8AF
:1034F0001040FEF765BC10BD00380040BC00002045
:1035000010B588B01C216846FDF7A9F81648154982
:10351000002401601421C0E9011440F69F71C0E944
:1035200003148461FFF730FB08B1FEF749FC0E4835
:10353000FFF73CFC08B1FEF743FC602000904FF41D
:103540004860CDE901040022694607480494FFF76A
:10355000C7FB08B1FEF734FC0348FFF797FB08B040
:1035600010BD000000200040140100200C4810B5E0
:103570000A4901604FF4E1314160002181600C2271
:10358000C160C0E904128161C161FFF7A1FC00289C
:1035900003D0BDE81040FEF713BC10BD0010014081
:1035A0005C010020FEE7FEE77047000001B582B035
:1035B0004FF47A700090012301AA02A90248FFF794
:1035C000A7F99DF804000EBDBC000020F8B5154613
:1035D0000E460B46009204460122022100F02CF810
:1035E000A0B9134813490068B0FBF1F04FF47A71A9
:1035F000484300906068B0F5827F0DD133460022C9
:1036000080212046009500F017F870B1606D40F001
:10361000200060650320F8BD009830B1401E009086
:1036200020688068C0430006F6D50020F8BD000081
:103630002000002000366E012DE9F8431E46914619
:1036400088460446089DFEF78BFD401B351AFEF7A1
:1036500087FD074625480068C0F3CB30684338E053
:10366000701C37D0FEF77CFDC01BA84203D215B1F9
:10367000009860B32CE02068416821F0E0014160CF
:103680006068B0F5827F0BD1A068B0F5004F02D022
:10369000B0F5806F04D12068016821F0400101601D
:1036A000A06AB0F5005F09D12068016821F40051DB
:1036B00001602068016841F400510160012084F834
:1036C0005100002084F850000320BDE8F883002555
:1036D000401E00902068816838EA010004D0002173
:1036E0004945BDD10020F0E70121F9E72000002085
:1036F000704700002DE9F0412DED028B8AB04FF6A6
:10370000FF7000F035FF0F2158A32022084601F07A
:10371000B3F8002059491A22B0FBF2F302FB13035D
:1037200041330B54401C1A28F6D300278F761B21F7
:10373000524800F00CFE524E707000F0D1FE04466C
:103740001B2200214D4800F0D4F900F0C9FE051BF2
:1037500029464CA0FCF774FE4FF47A784046FEF7F9
:10376000A5FB00F0BDFE044644481B2200211B308F
:1037700000F0BAF900F0B4FE041B214647A0FCF7A4
:103780005FFE4046FEF792FB3C481B211B308776CC
:1037900000F0DDFDB0707178814201D145A300E0F9
:1037A00049A310223721142001F066F84BA3102200
:1037B0004B21142001F060F8304B10221B335F21A5
:1037C000142001F059F800EE105AF8EE400A9FED6F
:1037D000460AC0EE208A00EE904AF8EE600A80EEBB
:1037E000208A18EE900A01F02FF941EC100B3FA14E
:1037F00053EC102B6846FCF72FFE18EE100A01F070
:1038000023F941EC100B3EA153EC102B05A8FCF75B
:1038100023FE3FA310227821142001F02DF86B46DF
:1038200010228C21142001F027F805AB1022A021D2
:10383000142001F021F818EE900A01F005F941EC8E
:10384000100B35A053EC102BFCF7FAFD18EE100A04
:1038500001F0FAF841EC100B35A053EC102BFCF7FB
:10386000EFFD0AB0BDEC028BBDE8F0814750494F37
:1038700020535049204D6F64650000003400002043
:103880000000002057726974652064757261746964
:103890006F6E3A2025752075730A000052656164C9
:1038A000206475726174696F6E3A20257520757396
:1038B0000A0000004461746120436865636B205016
:1038C000617373656400000044617461204368653E
:1038D000636B204661696C65640000005265616439
:1038E00020446174613A000000F0D2465772697456
:1038F000653A20252E3266204B422F7300000000CF
:10390000526561643A20252E3266204B422F7300A7
:1039100053706565643A000057726974652053708E
:103920006565643A20252E3266204B422F730A00CB
:10393000526561642053706565643A20252E3266B5
:10394000204B422F730A00002DE9F0410024194F4B
:1039500006462546300601D5012200E000228021DE
:103960003846FEF7F8FB0120FEF7A0FA01222021DD
:103970003846FEF7F0FB0120FEF798FA6006040EC9
:1039800040213846FEF7E2FB012801D144F0010452
:10399000002220213846FEF7DEFB0120FEF786FAE2
:1039A00070066D1C060EEDB2082DD3D32046BDE87F
:1039B000F0810000000002402DE9F04115460E465E
:1039C000044600F07BF8DFF85C804FF4805700225B
:1039D00039464046FEF7BFFB0220FFF7B5FFC4F3B0
:1039E0000740FFF7B1FFC4F30720FFF7ADFFE0B2D8
:1039F000FFF7AAFF002404E0305DFFF7A5FF641C79
:103A0000A4B2AC42F8D3012239464046FEF7A3FBEC
:103A100002E00120FEF74AFA00F036F8C007F8D1BC
:103A2000BDE8F081000402402DE9F041DFF8548048
:103A300015460E4604464FF480570022394640464C
:103A4000FEF789FB0320FFF77FFFC4F30740FFF772
:103A50007BFFC4F30720FFF777FFE0B2FFF774FFA7
:103A6000002405E0FF20FFF76FFF3055641CA4B26F
:103A7000AC42F7D339464046BDE8F0410122FEF79B
:103A80006ABB00000004024070B50B4E4FF4805535
:103A9000002229463046FEF75EFB0520FFF754FF63
:103AA000FF20FFF751FF0446012229463046FEF76A
:103AB00052FB204670BD00000004024070B5094D65
:103AC0004FF48054002221462846FEF744FB06208E
:103AD000FFF73AFF21462846BDE870400122FEF775
:103AE0003ABB0000000402400B4601461846FFF7AF
:103AF0009BBF0B4601461846FFF75EBFFEF736BB7D
:103B000030B593B030216846FCF7A9FD14210CA80C
:103B1000FCF7A5FD1D480025016841F080510160BA
:103B2000006800F0805011901948016841F480410C
:103B300001600068022400F4804011900120009090
:103B4000000401908001CDE9064008AA0420A821C4
:103B500082E813000B906846FEF77EFC08B172B64F
:103B6000FEE70CA90F2081E831004FF4A0500F9020
:103B70004FF48050109005210CA8FEF783FB00281D
:103B800001D072B6FEE713B030BD000040380240ED
:103B9000007000400248016841F470010160704704
:103BA00088ED00E0F0B50268294C2A4D2A4E2B4FD3
:103BB0002B4B4FF0804CA04209D0604507D0A84263
:103BC00005D0B04203D0B84201D0984204D122F0CF
:103BD000700E4A6842EA0E02A0421BD0604519D01E
:103BE000A84217D0B04215D0B84213D0984211D095
:103BF0001C4DA8420ED01C4DA8420BD01B4DA84214
:103C000008D01B4DA84205D01A4DA84202D01A4D2B
:103C1000A84203D122F44075CA682A434D6922F0B4
:103C200080022A4302608A68C2620A688262A042F5
:103C300001D0984201D10969016301214161016903
:103C4000C90703D0016921F001010161F0BD000045
:103C5000000001400004004000080040000C00404B
:103C60000004014000400140004401400048014080
:103C700000180040001C00400020004010B501F07A
:103C80001F030121046A99408C430462016A9A402F
:103C90001143016210BD0000F0B5036A026A22F010
:103CA0000102026242688469124E24F073050C68B6
:103CB0002C4323F002058B682B430D4DA84201D005
:103CC000B04205D123F00807CB683B4323F004033F
:103CD000A84201D0B04205D14D6922F4407215438B
:103CE0008A692A4342608461496841630362F0BD86
:103CF0000000014000040140F0B5026A036A23F0AD
:103D000010030362436884690D6824F4E64444EABE
:103D100005248D6822F0200242EA05120F4D104E54
:103D2000A84201D0B04206D1CF6822F0800242EA18
:103D3000071222F04002A84201D0B04207D14D69DB
:103D400023F4406343EA85038D6943EA85034360B6
:103D50008461496881630262F0BD00000000014097
:103D600000040140F0B5026A036A23F48073036221
:103D70004368C46922F4007224F073050C68124E83
:103D80002C438D6842EA05220E4DA84201D0B04274
:103D900006D1CF6822F4006242EA072222F4806250
:103DA000A84201D0B04207D14D6923F4405343EA01
:103DB00005138D6943EA05134360C4614968C16313
:103DC0000262F0BD000001400004014030B5046A09
:103DD000026A22F4805202624268C3690D6823F4C9
:103DE000E64343EA05238D6824F4005444EA05348D
:103DF000084DA84202D0084DA84204D14D6922F4D2
:103E0000804242EA85124260C361496801640462EB
:103E100030BD0000000001400004014001680C3189
:103E200051E8002F22F4907241E80023002BF5D1D5
:103E30000168143151E8002F22F0010241E800230B
:103E4000002BF5D1016B012909D101680C3151E832
:103E5000002F22F0100241E80023002BF5D1202191
:103E600080F84210002101637047000070B50446DD
:103E700000680169E26821F4405111430161216940
:103E8000A068E26908436169114308432168CA6870
:103E900049F20C639A430243CA6020684169A269EF
:103EA00021F440711143416131492068884202D0B8
:103EB0003049884202D1FEF78FFA01E0FEF77CFA22
:103EC000E2690023192164253226B2F5004F6268A9
:103ED00028D0A0FB0101930F9200FCF739FA0146AC
:103EE000B0FBF5F06FF01802504301EB800006EBD9
:103EF0000010B0FBF5F000F0F002B1FBF5F002EBC2
:103F00000012B1FBF5F06FF01803584301EB80008D
:103F100006EB0010B0FBF5F000F00F002168104434
:103F2000886070BDA0FB010192185B41FCF710FA9C
:103F30000146B0FBF5F00201B1FBF5F06FF018039C
:103F4000584301EB800006EBC000B0FBF5F000F039
:103F5000F80002EB4002B1FBF5F0584301EB8000A2
:103F600006EBC000B0FBF5F000F00700D6E700005C
:103F700000100140001401402DE9F843984617460F
:103F80000D460446089E24E0701C22D0FEF7E8F897
:103F9000A0EB0800B0421AD8CEB12068C16849072A
:103FA00017D5802D15D0402D13D00168C9430907BE
:103FB0000FD401680025406800902046FFF72EFFCF
:103FC0000820606484F840500120BDE8F883032095
:103FD000FBE72068006835EA000004D00020B84202
:103FE000D2D00020F1E70120F9E7FEE770B5040325
:103FF00000F00AF900F0B2F8134E4FF48055002299
:1040000029463046FEF7A7F82020FFF7CFFA0F48E1
:104010000088A0F56F41183902D1200EFFF7C6FACB
:10402000C4F30740FFF7C2FAC4F30720FFF7BEFA54
:10403000E0B2FFF7BBFA012229463046FEF78BF8C3
:10404000BDE8704000F08AB8000402401000002073
:104050002DE9F041DFF8648015460C4606464FF422
:104060008057002239464046FEF775F80320FFF7D7
:104070009DFA13480088A0F56F41183902D1200E2F
:10408000FFF794FAC4F30740FFF790FAC4F3072050
:10409000FFF78CFAE0B2FFF789FA002405E0FF2071
:1040A000FFF784FA3055641CA4B2AC42F7D339460A
:1040B0004046BDE8F0410122FEF74DB80004024041
:1040C0001000002070B5124E00244FF48055224697
:1040D00029463046FEF73FF89020FFF767FA0020A8
:1040E000FFF764FA0020FFF761FA0020FFF75EFA9D
:1040F000FF20FFF75BFA44EA0024FF20FFF756FA9F
:104100000443012229463046FEF725F8204670BDBB
:104110000004024070B5012803D0022803D0032810
:1041200003D0052402E0352400E015240A4E4FF4A4
:104130008055002229463046FEF70DF82046FFF74D
:1041400035FAFF20FFF732FA0446012229463046AD
:10415000FEF701F8204670BD0004024010B50120B2
:10416000FFF7D8FFC007FAD110BD00002DE9F05FBE
:10417000C1F30B06DFF88C800F0BC6F5805489461F
:1041800082461546A24200D8144639038B464FF4A6
:1041900080524046FFF75CFF002006E0321818F816
:1041A0000210FF2903D1401C80B2A042F6D3A042E6
:1041B00022D23846FFF71AFF002006E01AF8002046
:1041C0008319401C08F8032080B2A042F6D3594658
:1041D0004FF480524FEA080000F02CF8A5420FD0AF
:1041E000281BA244A144002685B24FF480547F1CB2
:1041F000A542CAD82C46C8E7224649465046EBE7B6
:10420000BDE8F09FA401002070B5094D4FF4805423
:10421000002221462846FDF79EFF0620FFF7C6F93B
:1042200021462846BDE870400122FDF794BF0000FA
:10423000000402402DE9F0410746C8B2C0F5807481
:104240000E461546A24200D814464FF48078224606
:104250003146384600F00EF8A54208D0281B274406
:10426000264485B24446A542F1D82C46EFE7BDE886
:10427000F08100002DE9F04115460C460646FFF797
:10428000C3FFDFF864804FF4805700223946404670
:10429000FDF761FF0220FFF789F914480088A0F5B7
:1042A0006F41183902D1200EFFF780F9C4F307409F
:1042B000FFF77CF9C4F30720FFF778F9E0B2FFF7C6
:1042C00075F9002404E0305DFFF770F9641CA4B2B6
:1042D000AC42F8D3012239464046FDF73CFFBDE829
:1042E000F041FFF73BBF0000000402401000002037
:1042F00003B401984100009850EAC12018BF04207F
:104300004A0D18BF40F0010040F2FF72B2EB515F5E
:1043100008BF40F00200012808BF052002B0704726
:104320000907090E002804DB00F1E02080F80014E2
:10433000704700F00F0000F1E02080F8141D704776
:1043400030380A2801D20120704700207047034608
:1043500010B50020024604E09C5C521C2044C0B210
:1043600092B28A42F8D310BD70B5514C0022082198
:104370002046FDF7F0FEC820FDF798FD0122082138
:104380002046FDF7E8FE6420FDF790FD494D04202E
:104390002870AC1C2078484A207820784FF6FF76A9
:1043A000217806EA00200143918044A0FCF748F8F8
:1043B00036202870002020703A20287005202070B8
:1043C000B22028700C202070207000202070332034
:1043D00020702070B720287035202070BB202870F6
:1043E00037202070C02028702C202070C220287018
:1043F00001202070C320287012202070C420287053
:1044000020202070C62028700F202070D020287017
:10441000A4202070A1202070E0202870D0202070DF
:10442000042020700D202070112020701320207097
:104430002B2020703F202070542020704C202070B2
:10444000182020700D2020700B2020701F2020705D
:1044500023202070E1202870D020207004202070BC
:104460000C20207011202070132020702C20207030
:104470003F20207044202070512020702F20207079
:104480001F202070207020202070232020702120E9
:104490002870112028707820FDF708FD2920287049
:1044A0000020FEF72BFF3046BDE8704000F060B8FA
:1044B000000C0240FEFF0368A41100204C4344207E
:1044C00049443A202578000013B54FF47A7301224D
:1044D00069460248FEF764FD00981CBD5C0100209F
:1044E0007CB5FDF73DFE4FF0E0250446A86900903D
:1044F000FDF736FEA96901916969491CA0420DD0FA
:10450000019A4FF47A738A1A5A43B2FBF1F100EB25
:104510004002C2EBC01001EBC0007CBD00984FF41C
:104520007A72081A5043B0FBF1F004EB4401C1EB7E
:10453000C41100EBC1007CBDF0B40B4D0B4EAC7A46
:104540003470070AB41C27702070100A2070227083
:10455000287B3070080A20702170180A20702370A0
:10456000F0BCFEF7DBBE0000A4110020FEFF0368D4
:1045700070B506460A4800250188408800FB01F412
:10458000401E491E83B28AB229462846FFF7D4FF4F
:1045900003E0304600F0C0F96D1CA542F9D370BDB0
:1045A000A4110020014A108051807047240000208F
:1045B0002DE9F05F1D46F023A3EB5503834248D35A
:1045C000C5F1F0038B4244D3203A4FEA5509D4B2E7
:1045D00005FB05FA09FB05F6102D08D0182D68D04B
:1045E000202D79D0BDE8F05F9E48FBF729BF01F18F
:1045F0000F0293B2C21D92B2FFF79EFF4FF480707C
:10460000FBF750FEDFF860E2070001D0002047E032
:1046100000276C43F24609FB04F9DFF8508215E0ED
:1046200007EBD90100241AF80150280602D5B8F882
:10463000020001E0B8F8000000F06EF96806641CA2
:10464000050EE4B2082CF0D37F1CFFB2B7EBD60FF7
:10465000E6D3BDE8F09F00BF04FB05F101FB09F1C3
:1046600000EBD102DFF804B21EF8023000211A0676
:1046700002D5BBF8022001E0BBF8002001EBC00C22
:104680004FEA122807F81C8007EB4C0C491C8CF8E9
:1046900001205A06130EC9B20829E8D3401CC0B243
:1046A000B0EBD60FD8D35146384600F029F938463A
:1046B00071E001F1170293B200F10B0292B2FFF721
:1046C0003BFF4FF41070FBF7EDFD06004FEA0519B4
:1046D0004FF0000025D056E068E000BF04FB05F075
:1046E0000101634808EBD101475C5FEAC87009D05B
:1046F0000420DFF878B182460026380604D5BBF8DE
:10470000020003E00820F4E7BBF8000000F004F921
:104710007806761C070EF6B25645EED308F1010076
:10472000C0B28046B0EBD90FD8D392E704FB05F1B5
:10473000090100EBD1024E498B5CC1070BD0042765
:104740000022DFF828E1410801EB410B190604D5EE
:10475000BEF8021003E00827F2E7BEF80010082FA9
:104760004FEA112802EB8B0C19D006EB4C0C8CF89D
:1047700010808CF811105906521C0B0ED2B2BA429E
:10478000E4D3401CC0B2B0EBD90FCFD35146304672
:1047900000F0B6F83046BDE8F05FFBF7B2BD06F8B2
:1047A0001C8006EB4C0C8CF80110E4E701F11F02B1
:1047B00093B200F10F0292B2FFF7BEFE4FF4806099
:1047C000FBF770FDDFF8ACE0070001D0002045E00A
:1047D00000276C4309FB04F9F246DFF8908015E0EE
:1047E00007EBD90100241AF80150280602D5B8F8C1
:1047F000020001E0B8F8000000F08EF86806641CC2
:10480000050EE4B2082CF0D37F1CFFB2B7EBD60F35
:10481000E6D31EE704FB05F101FB09F100EBD10231
:10482000DFF848B01EF8023000211A0602D5BBF8A6
:10483000022001E0BBF8002001EBC00C4FEA122877
:1048400007F81C8007EB4C0C491C8CF801205A0619
:10485000130EC9B20829E8D3401CC0B2B0EBD60F82
:10486000D8D320E7187B0008504B00082400002014
:1048700030510008D06200082DE9F0471F460E466F
:1048800005461446102A07D0182C05D0202C03D03A
:10489000114613A0FBF7D4FDF020A0EB5409C4F19E
:1048A000F0084FF4784A3878002816D0A94502D28B
:1048B0000025301986B2B04504D200252E46504658
:1048C000FFF756FE3A78234631462846FFF770FE3A
:1048D00005EB540085B27F1CE5E7BDE8F0870000DA
:1048E000666F6E742073697A652825642920697360
:1048F000206E6F7420737570706F727421000000E9
:10490000002806D0034B491E03D310F8012B1A7060
:10491000F9E7704700000468010A01EB0020014933
:104920004880704700000468FDF728FCFFF7E8F8AE
:10493000FEF744FDFEF7C0FDFEF718FEFEF7F8FC9B
:10494000FEF7DEFD1F48FEF761F900211D48FEF766
:104950005BFAFFF709FD4FF6FF742046FFF708FEEC
:1049600000212046FFF71EFEFFF7ACFB164C4FF46C
:104970007A764EF61675A08009E0014613A0FBF783
:104980005FFD3046FDF792FAFFF79CFBA080FFF732
:1049900099FBA080A842F0D181B218A0FBF750FD8E
:1049A0005FF00005FEF77EFC21780129FAD128B1DD
:1049B0000128F7D1FEF79EFE2570F3E7FEF740FBD6
:1049C000FAE70000140100200000002057323551A2
:1049D00031323820436865636B204661696C6564D9
:1049E0002121212121212121212120466C6173686F
:1049F0004944203D20307825580A0000466C6173F8
:104A0000685F4944203D20307825580A00000000A6
:104A100010B500290AD00878002807D00548784446
:104A2000FCF74AFC002801D0002010BD0248784461
:104A300010BD0000663100005E3100000808A0F5DE
:104A400000114FEA3101704743004FEAD30C4FEA9F
:104A50003C0C43401FBF40070CF1605113F0FE4F68
:104A600070471CF0006F03D100200CF0004170472C
:104A70000CF0004343EA507010B540EACC0000F05F
:104A80000EF800BF000000924FEA0001FFF7D6BF0A
:104A90004FF000414FF00000A1F5002170470EF1EA
:104AA000020E2EF0030E5EF8044B244204D44FEAAB
:104AB0004102B2F17F4F11D84FEA4003B3F17F4F6B
:104AC0000CD80ED14FEAD07CB2F17F4F0CEB4C0CDE
:104AD0000CF1020C08BF4CEBD17C04E04FF0080C49
:104AE00001E04FEAD17C0CEB4C0324FA03F404F010
:104AF0000704B4F1040C06D20EEB840CBDE81040A0
:104B00004CF0010C6047DFE80CF0070802024FF0A0
:104B10000040A0F5800010BD0846420018BFD2F149
:104B2000807288BF00F0004010BD4FF04070E1EE91
:104B3000100A7047FBF742BF0000000000000000B1
:104B40000102030406070809000000000102030433
:104B50000000000000000000000000000000000055
:104B600000000010101010101000001010000000C5
:104B70000000002828282800000000000000000095
:104B80000000001212167F2424FE2848480000006E
:104B9000000008083E4948683E0B09493E080800E5
:104BA000000000609090620C304609090600000089
:104BB0000000001C20203030494545623D000000C7
:104BC00000000010101010000000000000000000A5
:104BD00000000C0808101010101010080804000045
:104BE00000003010100808080808081010300000F5
:104BF00000000008493E1C6B080000000000000097
:104C00000000000000101010FE1010100000000046
:104C10000000000000000000000000181810200034
:104C2000000000000000000000380000000000004C
:104C30000000000000000000000000181800000044
:104C40000000000204040408081010202020400086
:104C50000000001C22414149414141221C0000004A
:104C60000000001828080808080808083E0000008E
:104C70000000003E43010102060C10207F000000EE
:104C80000000003E4101031C030101433E000000FF
:104C9000000000060A1A1222427F020202000000EF
:104CA0000000007E40407C42010101423C000000C7
:104CB0000000001E3160405E634141231E00000081
:104CC0000000007F03020404080810102000000008
:104CD0000000003E4141413E634141633E0000000F
:104CE0000000003C624141633D0103463C0000007E
:104CF0000000000000001818000000181800000054
:104D00000000000000001818000000181810200013
:104D10000000000000010E3840380E0100000000C5
:104D20000000000000007F00007F00000000000085
:104D3000000000000040380E010E38400000000066
:104D40000000003844040C1810100010100000007F
:104D50000000001E332147494949494720300E00D1
:104D60000000000814141414223E224141000000E7
:104D70000000007E4141417E434141437E000000EE
:104D80000000001E21404040404040211E00000025
:104D90000000007C42414141414141427C00000011
:104DA0000000007F4040407F404040407F000000C6
:104DB0000000007F4040407F4040404040000000F5
:104DC0000000001E21404040434141211E000000E0
:104DD000000000414141417F41414141410000000B
:104DE0000000007C10101010101010107C0000004B
:104DF0000000001C040404040404044438000000FF
:104E00000000004244485070784844464200000088
:104E10000000004040404040404040407F000000D3
:104E20000000006363555555494141414100000070
:104E3000000000616151514949454543430000006C
:104E40000000001C22414141414141221C00000060
:104E50000000007E434141437E404040400000004E
:104E60000000001C22414141414141221E06020036
:104E70000000007E434141437C424141400000002C
:104E80000000001E614040300E0101433E00000062
:104E9000000000FE10101010101010101000000084
:104EA0000000004141414141414141633E00000059
:104EB00000000041412222221414141408000000B2
:104EC0000000008181815A5A5A66666666000000B9
:104ED0000000004122141408141422224100000092
:104EE0000000008244442838101010101000000008
:104EF0000000007F03020408081020607F0000000B
:104F000000001C101010101010101010101C0000C9
:104F100000000040202020101008080404040200B3
:104F200000003808080808080808080808380000C1
:104F3000000000102844C60000000000000000002F
:104F4000000000000000000000000000000000FF62
:104F50000030100800000000000000000000000009
:104F600000000000001C22023E4242463A000000BF
:104F700000004040407C6442424242645C000000C9
:104F800000000000001C2240404040221C000000A5
:104F900000000202023E2642424242263A0000003F
:104FA00000000000003C26427E4040221C00000021
:104FB00000000C10107C10101010101010000000D9
:104FC00000000000003A2642424242263A02221CD9
:104FD00000004040405C62424242424242000000C7
:104FE0000000101000701010101010107C00000055
:104FF00000000808003808080808080808080870B1
:10500000000040404044485070484844420000007E
:105010000000701010101010101010100E00000082
:1050200000000000007E4949494949494900000003
:1050300000000000005C6242424242424200000026
:1050400000000000003C6642424242663C00000014
:1050500000000000005C6442424242647C404040E8
:1050600000000000003A2642424242263A02020272
:1050700000000000003C3220202020202000000002
:1050800000000000003C4240700E02423C00000064
:1050900000000010107E1010101010100E00000004
:1050A0000000000000424242424242463A000000F4
:1050B00000000000004242242424181818000000B8
:1050C000000000000081815A5A5A5A24240000002E
:1050D0000000000000422418181824244200000098
:1050E0000000000000422224241418180808103080
:1050F00000000000007E0204081020407E00000036
:1051000000000C10101010106010101010100C0087
:1051100000001010101010101010101010101010AF
:1051200000006010101010100C1010101010600013
:10513000000000000000000000000000000000006F
:10514000000000000000000000000000000000005F
:10515000000000000000000000000000000000004F
:105160000000000000000000060006000600060027
:10517000060006000600060006000600000000000B
:10518000060006000600000000000000000000000D
:1051900000000000000000001980198019801980AB
:1051A00019801980000000000000000000000000CD
:1051B00000000000000000000000000000000000EF
:1051C0000000000000000000066004400CC00CC09D
:1051D0007FF07FF0088019801980FFE0FFE0330046
:1051E0003300220022000000000000000000000048
:1051F000000000000000020002000F801FC03A40C3
:10520000320032003A001F0007C002E00260026074
:1052100022E03FC01F8002000200020000000000E8
:10522000000000000000000078004800CC00CC0026
:10523000CC00484079C00E0073C002400660066092
:105240000660024003C000000000000000000000F3
:1052500000000000000000000F801F8018001800F0
:1052600018000C001E003630633063B061A060E0AF
:1052700030C03F600E700000000000000000000021
:105280000000000000000000060006000600060006
:105290000600060000000000000000000000000002
:1052A00000000000000000000000000000000000FE
:1052B00000000000000001000200020006000600DD
:1052C00004000C000C000C000C000C000C000C0086
:1052D00004000600060002000200010000000000B9
:1052E00000000000000008000400040006000600A2
:1052F0000200030003000300030003000300030097
:10530000020006000600040004000800000000007F
:10531000000000000000000004000400444035804C
:105320000E000E0035804440040004000000000020
:10533000000000000000000000000000000000006D
:105340000000000000000000000000000600060051
:105350000600060006007FE07FE00600060006006B
:105360000600060000000000000000000000000031
:10537000000000000000000000000000000000002D
:10538000000000000000000000000000000000001D
:1053900006000600060006000C000C0000000000DD
:1053A00000000000000000000000000000000000FD
:1053B00000000000000000001F001F0000000000AF
:1053C00000000000000000000000000000000000DD
:1053D00000000000000000000000000000000000CD
:1053E00000000000000000000000000000000000BD
:1053F000060006000600000000000000000000009B
:105400000000000000000000006000C000C001803B
:105410000180030003000600060006000C000C00DB
:10542000180018003000300060000000000000008C
:1054300000000000000000001E003F80318071C0AD
:1054400060C060C066C066C060C060C060C071C03F
:1054500031803F800E0000000000000000000000CE
:10546000000000000000000007001F001B000300F8
:105470000300030003000300030003000300030014
:1054800003001FE01FE0000000000000000000001B
:1054900000000000000000003F007F8041C000C00D
:1054A00000C000C001C00180030006000C0018000D
:1054B00030007FC07FC0000000000000000000003E
:1054C00000000000000000003F007F8041C000C0DD
:1054D00000C001C00F800F80018000C000C000C06C
:1054E00041C07F803F00000000000000000000007D
:1054F000000000000000000003800380078005809A
:105500000D80098019803180318061807FE07FE0EB
:105510000180018001800000000000000000000008
:1055200000000000000000003F803F80300030009D
:1055300030003F003F8021C000C000C000C000C05C
:1055400041807F803E00000000000000000000005D
:1055500000000000000000000F001F8038803000B5
:10556000700060006F007F8071C060C060C060C06C
:1055700031C03F801F00000000000000000000005C
:1055800000000000000000007FC07FC0018001809B
:1055900001800300030003000600060006000C0063
:1055A0000C000C00180000000000000000000000CB
:1055B00000000000000000001F003F8071C060C0BC
:1055C00060C031801F003F80318060C060C060C01B
:1055D00071C03F801F0000000000000000000000BC
:1055E00000000000000000001F003F80718060C0CC
:1055F00060C060C071C03FC01EC000C000C001805C
:1056000023803F001E00000000000000000000009A
:10561000000000000000000000000000000000008A
:105620000600060006000000000000000000000068
:105630000600060006000000000000000000000058
:10564000000000000000000000000000000000005A
:105650000600060006000000000000000000000038
:1056600006000600060006000C000C00000000000A
:10567000000000000000000000000000000000200A
:1056800001E007801E00700070001E00078001E02E
:1056900000200000000000000000000000000000EA
:1056A00000000000000000000000000000000000FA
:1056B000000000007FE07FE0000000007FE07FE06E
:1056C00000000000000000000000000000000000DA
:1056D000000000000000000000000000000040008A
:1056E00078001E00078000E000E007801E007800C0
:1056F000400000000000000000000000000000006A
:1057000000000000000000000F801FC0106000605B
:1057100000E001C003800600060006000000000053
:105720000600060006000000000000000000000067
:1057300000000000000000000000078018C030607A
:10574000306023E062606660666066606660666026
:10575000626033E0300018001C0007800000000089
:105760000000000000000000060006000F000F000F
:105770000F001F801980198019803FC03FC030C0C2
:1057800030C06060606000000000000000000000A9
:1057900000000000000000007F007F8061C060C04A
:1057A00060C061C07F807F8060C06060606060605A
:1057B00060E07FC07F80000000000000000000006B
:1057C000000000000000000007C01FE0382030008B
:1057D00060006000600060006000600060003000F9
:1057E00038201FE007C0000000000000000000009B
:1057F00000000000000000007E007F8061C060C0EB
:10580000606060606060606060606060606060C038
:1058100061C07F807E0000000000000000000000EA
:1058200000000000000000007FE07FE060006000FA
:10583000600060007FE07FE060006000600060006A
:1058400060007FE07FE0000000000000000000003A
:1058500000000000000000007FE07FE060006000CA
:10586000600060007FC07FC060006000600060007A
:105870006000600060000000000000000000000008
:1058800000000000000000000F801FC03840300002
:1058900060006000600061E061E060606060306056
:1058A00038601FE00F8000000000000000000000D2
:1058B00000000000000000006060606060606060E8
:1058C000606060607FE07FE060606060606060609A
:1058D0006060606060600000000000000000000088
:1058E00000000000000000003FC03FC006000600AE
:1058F0000600060006000600060006000600060078
:1059000006003FC03FC00000000000000000000093
:1059100000000000000000001F801F800180018047
:10592000018001800180018001800180018001806F
:1059300043807F003E0000000000000000000000E7
:105940000000000000000000606060C06180630033
:1059500066006C007C007E007600630063806180DE
:1059600060C060E060600000000000000000000017
:1059700000000000000000006000600060006000A7
:105980006000600060006000600060006000600017
:1059900060007FE07FE000000000000000000000E9
:1059A000000000000000000070E070E070E079E0AE
:1059B000696069606F6066606660666060606060B4
:1059C0006060606060600000000000000000000097
:1059D0000000000000000000706070607860786077
:1059E0006C606C606460666062606360636061E00C
:1059F00061E060E060E000000000000000000000E6
:105A000000000000000000000F003FC030C070E048
:105A1000606060606060606060606060606070E0F6
:105A200030C03FC00F000000000000000000000078
:105A300000000000000000007F807FC060E0606028
:105A40006060606060E07FC07F8060006000600038
:105A50006000600060000000000000000000000026
:105A600000000000000000000F003FC030C070E0E8
:105A7000606060606060606060606060606070E096
:105A800030C01F800F00018000C0008000000000B7
:105A900000000000000000007F007FC060E0606048
:105AA0006060606060C07FC07F8061C060C0606017
:105AB0006060603060300000000000000000000006
:105AC00000000000000000001F803FC07040600028
:105AD000600070003E001F8001C000600060006038
