:020000040800F2
:1000000070070020A10100089F250008F11E0008CC
:100010009D250008E9090008D72A00080000000013
:10002000000000000000000000000000E5250008BE
:10003000EB09000800000000A1250008E7250008E2
:10004000BB010008BB010008BB010008BB010008A0
:10005000BB010008BB010008BB010008BB01000890
:10006000BB010008BB010008BB010008BB01000880
:10007000BB010008BB010008BB010008BB01000870
:10008000BB010008BB010008BB010008BB01000860
:10009000BB010008BB010008BB010008BB01000850
:1000A000BB010008BB010008BB010008BB01000840
:1000B000BB010008BB010008BB010008BB01000830
:1000C000BB010008BB010008BB010008BB01000820
:1000D000BB010008BB010008BB010008BB01000810
:1000E000BB010008BB010008BB010008BB01000800
:1000F000BB010008BB010008BB010008BB010008F0
:10010000BB010008BB010008BB010008BB010008DF
:10011000BB010008BB010008BB010008BB010008CF
:10012000BB010008BB010008BB010008BB010008BF
:10013000BB010008BB010008BB010008BB010008AF
:10014000BB010008BB010008BB010008BB0100089F
:10015000BB010008BB010008BB010008BB0100088F
:10016000BB010008BB010008BB010008BB0100087F
:10017000BB010008BB010008BB0100080000000033
:10018000BB010008BB010008DFF810D000F04CFBF9
:1001900000480047AD390008AFF300807007002029
:1001A0000648804706480047FEE7FEE7FEE7FEE711
:1001B000FEE7FEE7FEE7FEE7FEE7FEE78126000832
:1001C000890100082DE9F05F0546002092469B4614
:1001D00088460646814640241BE02846414647465D
:1001E000224600F0CBF953465A46C01A914110D32B
:1001F00011461846224600F0B2F92D1A67EB0108A5
:100200004F4622460120002100F0A9F917EB000912
:100210004E41201EA4F10104DFDC484631462A4647
:100220004346BDE8F09FD2B201E000F8012B491E21
:10023000FBD270470022F6E710B513460A46044683
:100240001946FFF7F0FF204610BD2DE9FE4F80460E
:1002500081EA0300C00F0C46009021F0004123F01A
:100260000045B8EB0200A94105D240462146904620
:100270001C460B46024623F00040104347D0270D92
:10028000C7F30A00C3F30A510290401A01904028B4
:100290006BDAC3F3130040F4801B0098924620B140
:1002A0000023D2EB030A63EB0B0B01985946C0F114
:1002B0004002504600F053F906460D465046594656
:1002C000019A00F06BF910EB08006141002487EA05
:1002D000115284EAE7731A4340D0009A62B3019A3C
:1002E000012A4FEA075215DC001B61EB02014FF0B7
:1002F000004202EA0752CDE90042001C41F580119C
:1003000032462B4600F0A2F903B0BDE8F08F40461C
:100310002146F9E7001B61EB0201001C41F5801347
:1003200000185B412018A2F5001747EB030140EAD3
:10033000D570B6196D4111E06D084FEA360645EAF1
:10034000C0754FEA0752001B61EB0201001C41F52A
:10035000801149084FEA30000019514132462B46BE
:1003600003B0BDE8F04F00F062B9009801224000F0
:100370000023D0EB020263EBE073009821464FEAC2
:10038000E074B8EB000061EB0401E9E783F000439F
:100390005BE781F0004158E72DE9FE4F81EA030455
:1003A00004F0004421F0004100944FF0000B23F0D2
:1003B000004350EA01045ED052EA03045BD0C3F369
:1003C0000A54C1F30A552C44A4F2F3340194A0FB5F
:1003D0000254C1F3130141F48011C3F3130343F436
:1003E000801301FB024400FB034E840A970A44EA8F
:1003F000815447EA8357A4FB076802958D0A05FBE1
:1004000007854FEA932C04FB0C542705029D4FEA05
:10041000065847EA1637B5EB08056EEB070C870E52
:10042000920E47EA811742EA8312A7FB0201B6EB5C
:100430000B0164EB00042B0D43EA0C335E1844EB14
:100440001C50DA465146E7FB0201C5F313044FEA9C
:100450000B3343EA14534FEA0432019C43EA060388
:10046000A4F10C040294009CCDE900B400F0EEF875
:1004700003B0BDE8F08F00200146F9E70EB540F269
:10048000334102910021CDE900110A460B4600F0EC
:10049000DDF803B000BD70B5C1F30A5201F00045AC
:1004A0000024C1F3130140F2FF3341F480119A425A
:1004B00001DA002070BD40F233439A42A2F2334287
:1004C00003DC524200F05AF800E090402C43F1D097
:1004D000404270BD00F0004230F000400AD0C10D33
:1004E00001F56071C0F3160042EA0151C2084007ED
:1004F0001143704700200146704701F0004330B4BB
:1005000021F0004150EA010206D00A0DA2F5607206
:10051000C1F31301002A02DC30BC00207047440FF5
:1005200044EAC104C100E01830BC00EBC25000F046
:1005300047B830B50B46014600202022012409E0CF
:1005400021FA02F59D4205D303FA02F5491B04FA8C
:1005500002F52844151EA2F10102F1DC30BD202A6B
:1005600004DB203A00FA02F1002070479140C2F10A
:10057000200320FA03F3194390407047202A04DB3C
:10058000203A21FA02F00021704721FA02F3D0400C
:10059000C2F120029140084319467047202A06DB29
:1005A000CB17203A41FA02F043EAE07306E041FA41
:1005B00002F3D040C2F1200291400843194670472F
:1005C0000029A8BF7047401C490008BF20F0010067
:1005D000704710B4B0FA80FC00FA0CF050EA010445
:1005E00004BF10BC704749B1CCF1200421FA04F4D7
:1005F00011FA0CF118BF012121430843A3EB0C01B0
:10060000CB1D4FEA00614FEA102042BF002010BC12
:10061000704700EBC35010440029A4BF10BC7047C2
:10062000401C490008BF20F0010010BC704710B505
:10063000141E73F1000408DA401C41F10001921805
:100640005B411A4301D120F0010010BD2DE9F04DAE
:1006500092469B4611B1B1FA81F202E0B0FA80F203
:1006600020329046FFF77BFF04460F4640EA0A001F
:1006700041EA0B0153465A46084313D0114653EA48
:10068000010019D0C8F140025046FFF777FF054638
:100690000E46504659464246FFF761FF084305D0D3
:1006A000012004E020463946BDE8F08D00200543D6
:1006B00046EAE0762C4337430A986305E40AA0EB48
:1006C00008000022FD0A44EA47540A3002D50020FF
:1006D0000146E9E7010510196941DDE908450019FE
:1006E0006941BDE8F04DA2E72DE9F04D81EA030430
:1006F00004F0004B21F0004514464FF0000A23F0AF
:10070000004150EA050220D054EA01021DD0C5F391
:100710000A570246C5F31303C1F31300C1F30A5687
:1007200040F4801543F48013A7EB0608101BD6464F
:1007300008F2FD3873EB050002D308F1010801E06F
:1007400092185B41B8F1000F03DA00200146BDE8C2
:10075000F08D00204FF48011064684460EE0171BF2
:1007600073EB050705D3121B63EB050306434CEA45
:10077000010C49084FEA300092185B4150EA01072A
:10078000EDD152EA030012D082EA040083EA0501A7
:10079000084305D0101BAB4106D20122002306E01E
:1007A00000224FF0004302E06FF0010253101AEBF9
:1007B00006004CEB085110EB0A0041EB0B01BDE8C1
:1007C000F04DFFF734BFC1F30A52C1F3130140F2F9
:1007D000FF3341F480119A4202DA0020014670474B
:1007E00040F233439A42A2F2334202DC5242FFF714
:1007F000C5BEFFF7B4BE000030B5041E71F10004A1
:1008000004DB4FF00044404264EB0101141E73F11D
:10081000000405DB1C464FF00043524263EB040327
:10082000994208BF904230BD064C074D06E0E06893
:1008300040F0010394E8070098471034AC42F6D327
:10084000FFF7A6FCD0690008F069000810B5042184
:10085000002000F0B7F8322000F090F903210020CA
:1008600000F0B0F8002000F01FF8032804D003A027
:10087000BDE8104002F030B906A0F9E7415033322C
:1008800031364320496E6974204661696C65642184
:100890000D0A00004150333231364320496E6974ED
:1008A000204F4B210D0A00001FB56423012203A92C
:1008B0008DE80E00134602463C21034800F07EFB03
:1008C0009DF80C0004B010BD7800002030B5002465
:1008D0002DED028B83B09FED268A6D4604F10C004E
:1008E000C0B2FFF7E1FF45F82400641C022CF5DBE1
:1008F000DDE9000100EB01241020FFF7D5FFC0F374
:10090000011030B101280CD0022821D0032819D1C0
:1009100026E02046FFF7B2FD41EC100B9FED151BC2
:1009200006E02046FFF7AAFD41EC100B9FED131BDC
:1009300051EC100B53EC112BFFF72EFDFFF7DDFDF3
:1009400008EE100A03B0B0EE480ABDEC028B30BDD1
:100950002046FFF793FD41EC100B9FED0A1BE7E7E4
:100960002046FFF78BFD41EC100B9FED081BDFE7E6
:1009700000000000666666666666D63FB1BFEC9E04
:100980003C2CB43FB1BFEC9E3C2C943F6EA301BC09
:100990000512743F7CB500244FEA0D0504F10E00EA
:1009A000C0B2FFF781FF45F82400641C022CF5DB80
:1009B000DDE9000100EB0120C0F3052161F31F1008
:1009C0007CBD000003B583B06423012204A98DE837
:1009D0000E00134602463C21024800F0F1FB05B030
:1009E00000BD000078000020FEE7704730B589B0F8
:1009F000054601F0D7FD10EE104A2846FFF73EFDF0
:100A000041EC100B16A153EC102B684602F074F861
:100A10006B46202246211E2002F070FF2046FFF781
:100A200059FD41EC100B11A153EC102B684602F05C
:100A300063F86B4620226E211E2002F05FFF2946DC
:100A40000DA002F049F82046FFF744FD41EC100BE1
:100A50000CA053EC102B02F03FF809B030BD0000A1
:100A600050533A20252E316600000000414C533A85
:100A700020252E316600000050533A2025640D0ACF
:100A800000000000414C533A20252E31660D0A002B
:100A900072B6FEE730B5B3F5804F05D06FF0704108
:100AA00040F82210002030BD8C690B688D6823430C
:100AB0004C688989240144EA0524234343EA01411F
:100AC00050F82230014C23401943E9E70000F0CFF1
:100AD00010B50A6850F8223023F0010340F82230A4
:100AE0008C68082C23D000234A682243CC681C431E
:100AF0000B6922431A434B690E4C1A43CB691A43C4
:100B00000B6A1A434B6A1A438B6A1A43CB6A1A431D
:100B10000B6B1A438B691343CA6B09681A4350F86D
:100B20002130A343134340F82130002010BD40235F
:100B3000DAE700007FFF0F0030B5D1E9003443EA67
:100B400004138C688D89240244EA054423430C8AEB
:100B5000094D00EB820005EB045423430C7D6D012D
:100B600005EB0464896923430B43416801F040416C
:100B70000B434360002030BD0000F0FF70B5044619
:100B800000F052F90546601C02D004480078044485
:100B900000F04AF9401BA042FAD370BD08000020C3
:100BA000F0B587B014216846FFF744FB1A48016886
:100BB00000292ED10121016018480024016841F06C
:100BC000010101600068022500F0010005904FF46A
:100BD000F060CDE9000502AA03260C2782E8D000C8
:100BE00069460F4800F022F84EF23300CDE90005C7
:100BF00002AA694682E8D0000A4800F017F86802A5
:100C0000CDE9000502AA694682E8D000064800F056
:100C10000DF807B0F0BD0000000000203838024099
:100C200000100240000C0240001802402DE9F84F6D
:100C3000DFF8BCA10022012503264FF00F090AF1BD
:100C4000040BAAF1040E00BF0B6805FA02F423405E
:100C5000A34270D10F7907F00307012F01D0022FB3
:100C600016D187684FEA420806FA08FC27EA0C0703
:100C7000D1F80CC00CFA08FC4CEA070CC0F808C00C
:100C80004768A7430C79C4F3001494403C43446084
:100C90000C79E443A4070AD0C4684FEA420C06FA70
:100CA0000CF7BC438F6807FA0CF72743C7600C7931
:100CB00004F00304022C12D1D40800EB840CDCF8FD
:100CC00020405707FF0E09FA07F824EA0804D1F874
:100CD000108008FA07F848EA0408CCF82080046875
:100CE0004FEA420C06FA0CF7BC430F7907F00307F2
:100CF00007FA0CF7274307604C6814F4403F70D0A4
:100D00003C4C276847F480472760246822F003079B
:100D100004F480440094384C07EB040CDCF80848D9
:100D200097074FEA177809FA08F7BC43334FB842E0
:100D300002D1002724E054E0314FB84201D101270D
:100D40001EE0304FB84201D1022719E02E4FB842C1
:100D500001D1032714E02D4FB84201D104270FE041
:100D60002B4FB84201D105270AE02A4FB84201D1E2
:100D7000062705E0284FB84201D1072700E00827E1
:100D800007FA08F72743CCF80878DAF80040574606
:100D9000D1F804C09C435FEACC2C00D51C433C60D6
:100DA000DBF800405F46D1F804C09C435FEA8C2C1E
:100DB00000D51C433C60DEF800407746D1F804C003
:100DC0009C435FEA8C3C00D51C433C60084F083FC5
:100DD0003C68D1F804C09C435FEACC3C00D51C437E
:100DE0003C60521C102AFFF42FAFBDE8F88F0000C2
:100DF000083C0140443802400030014000000240FD
:100E00000004024000080240000C024000100240B2
:100E10000014024000180240001C02400AB1816127
:100E200070470904FBE70000014880687047000034
:100E30000800002070B5040025D094F83D0000257E
:100E400020B984F83C50204600F052FA242084F85F
:100E50003D002068016821F00101016020680168FF
:100E600041F4004101602068016821F40041016003
:100E700000F098FB4D4A6168914201D84C4900E06E
:100E80004C49884201D2012070BD4B492368B0FB18
:100E9000F1F15E6826F03F060E435E6063689342A0
:100EA00006D94FF4967359434FF47A73B1FBF3F1BB
:100EB0002368491C1E6A26F03F06314319626168A7
:100EC000914210D84900401EB0FBF1F2521CC2F30F
:100ED0000B02042A01D2042022E0B0FBF1F0401CF6
:100EE000C0F30B001CE0A268F2B301EBC10303EBFB
:100EF0000116431EB3FBF6F35B1C43F480431B0552
:100F000049D092B301EBC10202EB0111401EB0FBCC
:100F1000F1F0401CC0F30B0040F4804040F400406E
:100F20002168CA694CF6FF739A431043C861D4E93B
:100F3000071001432068026822F0C00211430160DB
:100F4000D4E9030101432068826848F2FF339A43E1
:100F500011438160D4E9050108432168CA6822F081
:100F6000FF021043C86001E00EE016E0206801684F
:100F700041F0010101602564202084F83D002563D3
:100F800084F83E50002070BD01EB4106431EB3FBC8
:100F9000F6F35B1CB3E70120C2E701EB4101401E01
:100FA000B0FBF1F0401CC0F30B00B7E7A0860100D6
:100FB00080841E0000093D0040420F002DE9FF4FD4
:100FC00083B09A46DDE9118793460446DDF84090E8
:100FD000FFF72AFF054694F83D00202870D1192319
:100FE000012274492046009501F098F80028F5D1B7
:100FF00094F83C00012863D0012084F83C0020686C
:101000000168C90703D1016841F00101016020684E
:10101000016821F400610160222084F83D00402035
:1010200084F83E0000262664C4F82490A4F82A80A0
:10103000608D20856048E062CDE9007553465A46D0
:101040002046049900F06CFF002879D1208DD0B1A2
:10105000012821D00228206824D0416980690090AD
:10106000208D032866D801282BD0544902283B46FE
:101070004FF00002009557D08846204601F04EF808
:1010800000285DD13AE020684169816900910168DA
:1010900041F4007101607DE02068016821F4806105
:1010A0000160F0E7016821F4806101602068016857
:1010B00041F400610160206841698069009069E045
:1010C00075E02A463946204601F0CEF888BB54E048
:1010D0002068016841F40071016020680069616A5C
:1010E0000870606A401C6062218D491E2185618DF7
:1010F000491E618521680969017042E02068016824
:1011000021F48061016020680069616A0870606A8A
:10111000401C6062208D401E2085608D401E6085D1
:101120003B46002241460095204600F0F7FF00B9FB
:10113000CEE705E02A463946204601F095F818B179
:10114000012007B0BDE8F08F20680069616A08706F
:10115000606A401C6062208D401E81B22185608DD6
:10116000401E608520684269D243520712D4032989
:1011700003D1016821F48061016020680069616A1F
:101180000870606A401C6062208D401E2085608D62
:10119000401E6085208D00287FF462AF202084F8F7
:1011A0003D0084F83E6084F83C600020C9E70220DE
:1011B000C7E70000020010000000FFFF040001006C
:1011C0002DE9FF4F83B09A46DDE911979346044617
:1011D000DDF84080FFF728FE054694F83D00202802
:1011E0007FD11923012240492046009500F096FF47
:1011F000002876D194F83C00012872D0012084F8B0
:101200003C0020680168C90703D1016841F0010171
:1012100001602068016821F400610160212084F8E8
:101220003D00402084F83E0000262664C4F8248057
:10123000A4F82A90608D20852C48E062CDE90075E5
:1012400053465A462046049900F0E8FE70B930E053
:101250002A463946204601F03FF858B1206C042850
:1012600004D12068016841F400710160012007B0D9
:10127000BDE8F08F606A216800780861606A401CF0
:101280006062218D491E89B22185628D521E628560
:1012900022685369DB435B070BD469B100781061A6
:1012A000606A401C6062208D401E2085608D401E5B
:1012B0006085208D0028CBD12A463946204600F093
:1012C00001FF0028CAD154F83D0B016841F40071B8
:1012D0000160202004F81E09E67766770020C6E743
:1012E000FFE70220C3E70000020010000000FFFF3C
:1012F00010B586B0044614216846FEF79BFF1349DB
:10130000206888421FD112480021026842F0200262
:1013100002600068122200F0200005900320CDE951
:101320000210CDE900020420049069460948FFF745
:101330007DFC07481030016841F4800101600068BD
:1013400000F48000059006B010BD00000058004079
:10135000303802400014024002488168027811448B
:1013600081607047080000200B4810B5016841F407
:1013700000710160016841F480610160016841F41D
:1013800080710160032000F061F8002000F006F891
:1013900000F024F8002010BD003C024070B50D4D57
:1013A00004464FF47A712878B1FBF0F00A490968D5
:1013B000B1FBF0F000F02CFB48B9102C07D2002252
:1013C0002146501E00F022F800206C6070BD012004
:1013D00070BD000008000020140000200A4808B575
:1013E000016841F480410160006800F48040009091
:1013F0000548001F016841F080510160006800F05D
:101400008050009008BD000044380240F0B40E4BFC
:101410001B680C46C3F30223C3F10705042D00D952
:101420000425191D072901D2002300E0DB1E012637
:1014300006FA05F1491E214099409E40761E16404D
:101440003143F0BC01F06CBB0CED00E0064900F04C
:10145000070208684FF6FF03184040EA0220034ADB
:1014600010430860704700000CED00E00000FA0532
:101470002DE9F0470E46050065D0DFF81481D8F855
:101480000000F7B200F00700B04207D288F8007001
:10149000D8F8000000F00700B04254D128683D4C55
:1014A000810712D5400703D5206840F4E050206042
:1014B0002878000703D5206840F460402060206849
:1014C000A96820F0F000084320602878C0072DD0DC
:1014D000304968680839012812D0022813D003283F
:1014E00011D00968890700292DDA216821F003014C
:1014F00001432160FFF798FC814641F2883A0EE0F3
:1015000009688903EFE709688901ECE7FFF78CFCBC
:10151000A0EB0901514502D90320BDE8F0872068FE
:10152000696800F00C00B0EB810FEFD1D8F8001023
:10153000404601F00701B14207D90770006800F08A
:101540000700B04201D00120E7E72878400705D521
:101550002068E96820F4E0500843206028780007FC
:1015600006D52068296920F4604040EAC100206067
:1015700000F038F82168084AC1F30311515CC840F3
:101580000649086006480068FFF708FF0020C4E726
:10159000003C0240083802406C3A00081400002069
:1015A0000C0000200448054900680968044AC1F39A
:1015B0008221515CC8407047140000200838024066
:1015C0007C3A00080448054900680968044AC1F3E8
:1015D0004231515CC8407047140000200838024076
:1015E0007C3A0008154810B5006810F00C02144849
:1015F00013D04110042A0FD0082A0ED10F4C241FFB
:101600002268236802F03F025B0207D52068C0F31E
:101610008810A0FB010106E0084610BD2168C1F357
:101620008811A1FB00010023FEF7CCFD2168C1F366
:101630000141491C4900B0FBF1F010BD08380240DF
:101640000024F4002DE9F84F04006ED02078DFF874
:101650004C93C007A9F104054AD009F104000168C0
:10166000C1F38101012908D00068C0F3810002287C
:101670000AD1D9F80000400206D52868800337D582
:1016800060680028E1D033E06068B0F5803F10D09A
:10169000B0F5A02F286810D020F48030286028688A
:1016A00020F4802028606068A8B1FFF7BDFB0646E3
:1016B0000DE0286840F48030F4E740F48020286092
:1016C000F7E700BFFFF7B0FB801B642873D82868DA
:1016D0008003F7D50CE0FFF7A7FB064605E000BF47
:1016E000FFF7A2FB801B6428F0D828688003F7D49A
:1016F0002078DFF8AC8280074FF0000A3ED5A7487B
:10170000001D016811F00C0F08D00068C0F38100C3
:1017100002280BD1D9F80000400207D428688007BE
:1017200016D5E068012800D112E033E1E068B8B1D5
:101730000120C8F80000FFF777FB064605E000BF70
:10174000FFF772FB801B0228C0D828688007F7D5F6
:101750002868216920F0F80040EAC10028600DE007
:10176000C8F800A0FFF760FB064604E0FFF75CFB4B
:10177000801B02281FD828688007F7D4207800072C
:1017800022D5864F87486169703771B101210160A8
:10179000FFF74AFB064604E0FFF746FB801B0228E2
:1017A00009D838688007F7D50EE0C0F800A0FFF729
:1017B0003BFB064605E082E0FFF736FB801B022874
:1017C0007DD838688007F7D42078400768D5DFF8DF
:1017D000CCB100270BF13C0BDBF80000C0000BD4B0
:1017E000DBF8001041F08051CBF80010DBF800006E
:1017F000012700F0805000906B4E3068C00510D477
:10180000306840F480703060FFF70EFB009005E018
:10181000FFF70AFB0099401A022850D83068C0052B
:10182000F6D55E4EA0686C3601280FD005283068CA
:1018300010D020F001003060306820F004003060EB
:10184000A068B8B1FFF7F0FA00900FE0306840F000
:101850000100F4E740F004003060F7E7FFF7E4FA36
:101860000099411A41F28830814266D83068800779
:10187000F4D50EE0FFF7D8FA009007E0FFF7D4FAAE
:101880000099411A41F28830814256D83068800769
:10189000F4D42FB1DBF8001021F08051CBF8001008
:1018A000A069C8B33D49091D0968C1F38101022936
:1018B0004AD00228504607D0C8F8600000E03CE05B
:1018C000FFF7B2FA04463BE04746C8F86000FFF76E
:1018D000ABFA064605E000BFFFF7A6FA801B022818
:1018E0002BD828688001F7D4D4E907010843A16AFE
:1018F0002E4A490802EB0141626A41EA821108431B
:1019000094F82C1040EA0161C9F8001001203866F3
:10191000FFF78AFA044606E03EE000BFFFF784FACC
:10192000001B022809D828688001F7D534E000BFE1
:10193000FFF77AFA001B022802D90320BDE8F88FCE
:1019400028688001F4D427E00128F7D0D9F80000F6
:10195000E26900F4800191421CD1226A00F03F014B
:10196000914217D147F6C071626A0140B1EB821F04
:1019700010D1A26A4FF0FF3300F4403103EB520262
:10198000B1EB024F06D194F82C1000F07060B0EB70
:10199000016F01D00120D1E70020CFE704380240D9
:1019A00000004742800E4742007000400000FFFFE9
:1019B00070B515460E46040003D094F8490010B1E6
:1019C00007E0012070BD002084F84800204600F0A8
:1019D0001DF804F108012068FFF77AF83146A26883
:1019E0002068FFF7A9F8D4E901022946236BFFF725
:1019F00051F82168A06851F8202042F0010241F816
:101A00002020012084F84900002070BDFFF7C8B8ED
:101A100010B5401EB0F1807F01D3012010BD4FF002
:101A2000E02460610F21601701F07AF80020A061C6
:101A300007202061002010BD10B5040003D094F8E9
:101A40003D0010B107E0012010BD002084F83C00EB
:101A5000204600F01FF8022084F83D00211D206878
:101A600000F016FE012084F8460084F83E0084F859
:101A70003F0084F8400084F8410084F8420084F874
:101A8000430084F8440084F8450084F83D000020B9
:101A900010BD000008B500680649884208D1064814
:101AA000016841F480710160006800F4807000906A
:101AB00008BD0000002000404038024090F83D1072
:101AC000012901D001207047022180F83D100168F2
:101AD000CA6842F00102CA6000681149884214D005
:101AE000B0F1804F11D00F4988420ED00E49884284
:101AF0000BD00E49884208D00D49884205D00D49C7
:101B0000884202D00C49884204D1816801F0070163
:101B1000062903D0016841F00101016000207047EF
:101B2000000001400004004000080040000C00409C
:101B300000040140004001400018004010B586B08C
:101B4000044614216846FEF775FB0E49206888425A
:101B500016D10D480021026842F0200202600068A0
:101B600000F0200005904FF4007000900220CDE9B5
:101B700001010920CDE9031069460448FFF756F832
:101B800006B010BD00200040303802400014024072
:101B900070B5044690F83C0000260D4601280FD091
:101BA000012084F83C006AB1042A1DD0082A2FD0F5
:101BB0000C2A3FD00126002084F83C00304670BD3E
:101BC000022070BD206800F0DDFD2068816941F0D1
:101BD000080181612068816921F004018161206828
:101BE00081692A69114311E0206800F0FBFD20683B
:101BF000816941F4006181612068816921F480611B
:101C00008161206881692A6941EA02218161D2E704
:101C1000206800F01DFE2068C16941F00801C16123
:101C20002068C16921F00401C1612068C1692A6985
:101C3000114311E0206800F03FFE2068C16941F4C3
:101C40000061C1612068C16921F48061C1612068BF
:101C5000C1692A6941EA0221C161ACE710B50400FB
:101C600003D094F83D0010B107E0012010BD002022
:101C700084F83C00204600F01EF8022084F83D0065
:101C8000211D206800F004FD012084F8460084F83E
:101C90003E0084F83F0084F8400084F8410084F856
:101CA000420084F8430084F8440084F8450084F836
:101CB0003D00002010BD704710B50446022249B116
:101CC00004290ED0082913D094F84100012816D019
:101CD000012010BD94F83E000128F9D184F83E207F
:101CE0000FE094F83F000128F2D184F83F2008E08B
:101CF00094F840000128EBD184F8402001E084F8FA
:101D000041200122206800F02FFD16492068164A64
:101D1000884201D0904203D1436C43F400434364B2
:101D20002068884213D0B0F1804F10D00F4988420C
:101D30000DD00F4988420AD00E49884207D0904200
:101D400005D00D49884202D00C49884204D18168EF
:101D500001F00701062903D0016841F0010101608B
:101D6000002010BD000001400004014000040040BC
:101D700000080040000C00400040014000180040F6
:101D800070B5040004D094F84100002510B106E0BD
:101D9000012070BD84F84050204600F023F8242034
:101DA00084F841002068C16821F40051C1602046D8
:101DB00000F0D2FD2068016921F4904101612068A2
:101DC000416921F02A0141612068C16841F4005154
:101DD000C1606564202084F8410084F84200656396
:101DE000002070BD10B586B0044614216846FEF789
:101DF00021FA14492068884221D113480021026841
:101E000042F010020260006800F0100005900E48D9
:101E10001438026842F001020260006800F001001C
:101E200005904FF4C06000900220CDE9010103202D
:101E300003900720049069460448FEF7F7FE06B0B9
:101E400010BD000000100140443802400000024074
:101E50002DE9F843044690F84100984616460D4691
:101E6000202802D00220BDE8F88385B17EB1002091
:101E70006064212084F84100FEF7D6FFA6848146E5
:101E8000E684A0682027B0F5805F02D003E001203F
:101E9000E9E7206910B12E4600250EE000260CE08F
:101EA0008021204600F0DEFDA8B9C6B116F8010B6E
:101EB00021684860E08C401EE084E08C4B464FF087
:101EC0000002CDF800800028EAD14FF04001204602
:101ED00000F0C8FD40B184F841700320C3E735F835
:101EE000020BC0F30800E3E784F841700020BAE772
:101EF000FEE701684A69D24352050FD46FF480624D
:101F00004A61002140F8301F202242738173026928
:101F100042F0040202610173012070470020704703
:101F20002DE9F84F0446006889460B9D01689846E4
:101F3000174641F4806101602068016841F48071B6
:101F4000016000954FF0011B0022594620460A9B74
:101F500000F0E4F84FF4007A40B120680068C00552
:101F600001D5C4F840A00320BDE8F88F216809F02E
:101F7000FE0008612B46284920460A9A00F016F90F
:101F8000F0BB20684169806900902A4620460A9982
:101F900000F0A2F940B1206C04283AD12068016811
:101FA00041F40071016034E0FEB2B8F1010F09D0D4
:101FB0002168380A08612A4620460A9900F08CF9FF
:101FC0000028E8D1206806612A4620460A9900F0D8
:101FD00083F90028DFD12068016841F48071016035
:101FE00000950022594620460A9B00F097F80028E9
:101FF000B3D1216809F0FF0040F00100086100E062
:1020000007E02B46044920460A9A00F0CFF8002842
:10201000AAD00120A8E70000020001002DE9F84342
:10202000044600680D46DDE90897016898461646A3
:1020300041F4807101604B4600224FF001112046AF
:10204000009700F06BF848B120680068C00502D521
:102050004FF4007020640320BDE8F883216805F088
:10206000FE0008613B464A461549204600F09EF8AE
:1020700088B920684169806900903A4649462046FF
:1020800000F02AF948B1206C042804D120680168C6
:1020900041F4007101600120DEE7F5B2B8F1010FF3
:1020A00009D02168300A08613A464946204600F0C6
:1020B00013F90028E7D1206805610020CCE7000073
:1020C0000200010070B516460D4604461EE020468B
:1020D000FFF70FFF08B1012070BD681C16D0FEF796
:1020E000A3FE801BA84200D885B920684069C04380
:1020F00040070BD5002044F8300F20216173A073F6
:10210000216941F0200121612073E4E720684069E2
:10211000C0434007DBD4002070BD00002DE9F0472C
:10212000984617460D460446C1F30746DDF8209051
:102130002AE000BFB8F1FF3F26D0FEF775FEA0EB06
:102140000901414502D8B8F1000F1DD12068012EC8
:1021500016D0806925EA00000004000C12D000208F
:10216000B84211D1002044F8300F20216173A073D0
:10217000216941F02001216120730120BDE8F08731
:102180004069E7E70120EBE72068012E0AD080696B
:1021900025EA00000004000C06D00020B842C9D097
:1021A0000020EBE74069F3E70120F7E72DE9F0476E
:1021B000984616460D4604464FF000094FF0200A97
:1021C000C1F3074723E020684069C043400515D4A8
:1021D0002068016841F40071016021686FF480603B
:1021E0004861C4F8309084F83DA084F83E90216C9A
:1021F00041F00401216484F83C9021E0701C06D079
:10220000FEF712FEA0EB0800B04203D816B1012F72
:102210001FD021E02068012F15D0806925EA000039
:102220000004000C18D000BF44F8309F84F80DA0C3
:1022300084F80E90216941F02001216184F80C900E
:102240000120BDE8F087406925EA00000004000C89
:10225000EAD12068406901E02068806925EA000031
:102260000004000CAFD1ECE72DE9F04100259046C9
:102270000E460446202728E04069C043C0060CD41F
:1022800054F8301B6FF01000486144F8105967771C
:10229000A577206A2062257714E0FEF7C5FDA0EB44
:1022A0000800B04200D886B920684069C0434006A3
:1022B0000BD544F8305F6773A573206940F02000A8
:1022C000206125730120BDE8F08120684169C94380
:1022D0004906D1D40020F6E770B516460D460446EF
:1022E0001EE02046FFF705FE08B1012070BD681C06
:1022F00016D0FEF799FD801BA84200D885B920684A
:102300004069C04300060BD5002044F8300F20215F
:102310006173A073216941F0200121612073E4E71A
:1023200020684069C0430006DBD4002070BD000077
:1023300030B50649F0222C2388710A802A244A806D
:102340000B812B254C818D8130BD00005C0100206C
:1023500010B501F04FF84FF6FF74204601F04AF92E
:102360002046BDE81040002101F05EB90248034953
:10237000007A0870704700005C010020FEFF0368CF
:1023800010B58EB01C216846FDF754FF1C2107A82C
:10239000FDF750FF1B484FF020414FF48052016081
:1023A00019494160042181600021C16001614161DE
:1023B0008161C1610162C0E909129200C0E90B129A
:1023C0004163816341640F203C220090CDE901020A
:1023D00003AC1022112384E80E0009240691CDE9F4
:1023E000074009AC082084E80F000D9107AA694650
:1023F0000448FFF7DDFA002801D0FEF749FB0EB0D4
:1024000010BD000028000020040100A010B586B017
:1024100014216846FDF70EFF2548016841F00401CC
:102420000160016801F004010591016841F020019B
:102430000160016801F020010591016841F080010F
:102440000160016801F080010591016841F010010F
:102450000160016801F010010591016841F0080177
:102460000160016801F008010591016841F0010176
:102470000160016801F001010591016841F040012E
:10248000016000680B4C00F040000590012208211B
:102490002046FEF7C3FC01210820CDE9000102918E
:1024A000039169462046FEF7C1FB06B010BD00004F
:1024B00030380240000C02400D4810B50B49016055
:1024C0000C49416000214FF480428160C0E9031251
:1024D00041618161C1610162FEF7ACFC002803D05B
:1024E000BDE81040FEF7D4BA10BD0000005800400F
:1024F00078000020A086010010B588B01C21684635
:10250000FDF798FE16481549002401601421C0E922
:10251000011440F69F71C0E903148461FFF78CFA3F
:1025200008B1FEF7B5FA0E48FFF798FB08B1FEF7C1
:10253000AFFA602000904FF44860CDE9010400221A
:10254000694607480494FFF723FB08B1FEF7A0FA99
:102550000348FFF7F3FA08B010BD00000020004068
:10256000CC0000200C4810B50A4901604FF4E1315D
:102570004160002181600C22C160C0E904128161C8
:10258000C161FFF7FDFB002803D0BDE81040FEF756
:102590007FBA10BD0010014014010020FEE7FEE7E5
:1025A0007047000010B52DED028BB2EE048A20EECC
:1025B000080A10EE100AFDF78DFF9FED081B53EC83
:1025C000112BFDF742FEFDF766FF00EE100AF8EE54
:1025D000C00A80EE880ABDEC028B10BD000000002E
:1025E0000000E03F7047FEF7B7BE000030B593B083
:1025F00030216846FDF71EFE14210CA8FDF71AFED7
:102600001D480025016841F080510160006800F01C
:10261000805011901948016841F4804101600068C0
:10262000022400F4804011900120009000040190E9
:102630008001CDE9064008AA0420A82182E8130001
:102640000B906846FEF7FEFF08B172B6FEE70CA9D4
:102650000F2081E831004FF4A0500F904FF48050CC
:10266000109005210CA8FEF703FF002801D072B6D8
:10267000FEE713B030BD000040380240007000405B
:102680000248016841F470010160704788ED00E084
:10269000F0B50268294C2A4D2A4E2B4F2B4B4FF098
:1026A000804CA04209D0604507D0A84205D0B04276
:1026B00003D0B84201D0984204D122F0700E4A688B
:1026C00042EA0E02A0421BD0604519D0A84217D0A2
:1026D000B04215D0B84213D0984211D01C4DA84238
:1026E0000ED01C4DA8420BD01B4DA84208D01B4D4C
:1026F000A84205D01A4DA84202D01A4DA84203D1D3
:1027000022F44075CA682A434D6922F080022A43A8
:1027100002608A68C2620A688262A04201D098425E
:1027200001D109690163012141610169C90703D030
:10273000016921F001010161F0BD000000000140CC
:102740000004004000080040000C0040000401406C
:102750000040014000440140004801400018004092
:10276000001C00400020004010B501F01F030121B3
:10277000046A99408C430462016A9A4011430162E1
:1027800010BD0000F0B5036A026A22F00102026285
:1027900042688469124E24F073050C682C4323F0C0
:1027A00002058B682B430D4DA84201D0B04205D1E4
:1027B00023F00807CB683B4323F00403A84201D071
:1027C000B04205D14D6922F4407215438A692A430B
:1027D00042608461496841630362F0BD00000140CA
:1027E00000040140F0B5026A036A23F0100303629B
:1027F000436884690D6824F4E64444EA05248D683E
:1028000022F0200242EA05120F4D104EA84201D0DC
:10281000B04206D1CF6822F0800242EA071222F0CD
:102820004002A84201D0B04207D14D6923F4406371
:1028300043EA85038D6943EA8503436084614968FF
:1028400081630262F0BD000000000140000401400D
:10285000F0B5026A036A23F4807303624368C469B3
:1028600022F4007224F073050C68124E2C438D681C
:1028700042EA05220E4DA84201D0B04206D1CF68EF
:1028800022F4006242EA072222F48062A84201D0C8
:10289000B04207D14D6923F4405343EA05138D69D3
:1028A00043EA05134360C4614968C1630262F0BD35
:1028B000000001400004014030B5046A026A22F4BD
:1028C000805202624268C3690D6823F4E64343EA1A
:1028D00005238D6824F4005444EA0534084DA842C9
:1028E00002D0084DA84204D14D6922F4804242EA48
:1028F00085124260C36149680164046230BD000012
:10290000000001400004014001680C3151E8002F33
:1029100022F4907241E80023002BF5D101681431B4
:1029200051E8002F22F0010241E80023002BF5D1ED
:10293000016B012909D101680C3151E8002F22F007
:10294000100241E80023002BF5D1202180F842102D
:10295000002101637047000070B5044600680169FA
:10296000E26821F44051114301612169A068E269E4
:1029700008436169114308432168CA6849F20C633E
:102980009A430243CA6020684169A26921F44071F8
:102990001143416131492068884202D03049884260
:1029A00002D1FEF70FFE01E0FEF7FCFDE269002315
:1029B000192164253226B2F5004F626828D0A0FBA9
:1029C0000101930F9200FDF7FDFB0146B0FBF5F00E
:1029D0006FF01802504301EB800006EB0010B0FBD3
:1029E000F5F000F0F002B1FBF5F002EB0012B1FBE4
:1029F000F5F06FF01803584301EB800006EB001070
:102A0000B0FBF5F000F00F0021681044886070BD45
:102A1000A0FB010192185B41FDF7D4FB0146B0FB1E
:102A2000F5F00201B1FBF5F06FF01803584301EB2C
:102A3000800006EBC000B0FBF5F000F0F80002EB00
:102A40004002B1FBF5F0584301EB800006EBC000FB
:102A5000B0FBF5F000F00700D6E7000000100140E1
:102A6000001401402DE9F843984617460D460446E8
:102A7000089E24E0701C22D0FEF7D6F9A0EB0800D7
:102A8000B0421AD8CEB12068C168490717D5802D49
:102A900015D0402D13D00168C94309070FD4016830
:102AA0000025406800902046FFF72EFF0820606454
:102AB00084F840500120BDE8F8830320FBE720683C
:102AC000006835EA000004D00020B842D2D00020CF
:102AD000F1E70120F9E7FEE70FB4054B10B503A9B4
:102AE000044A029800F0FEF810BC5DF814FB0000E8
:102AF000553500081C0000200FB4084B10B504A980
:102B000002AA039800F0EEF8044602A9002000F0A3
:102B10006CFC204610BC5DF814FB0000EB33000891
:102B20000907090E002804DB00F1E02080F80014FA
:102B3000704700F00F0000F1E02080F8141D70478E
:102B400002E008C8121F08C1002AFAD17047704776
:102B5000002001E001C1121F002AFBD170470000D4
:102B60002DE9FF5F82B00021DDE90430020DDDF8C0
:102B700040B0034318D044F61050A2F2FF32424353
:102B80001514119801281FD0A5EB0B00401C5FEA1B
:102B9000000A4FF000064E4FDFF83891B04650461D
:102BA00015D5CAF1000413E0119801244AA30128A5
:102BB00001D16FEA0B010298119AC0E90031C0E916
:102BC000024206B0BDE8F09FCBF10000DFE704460B
:102BD0000021404A491842EB0450CDE9001012E0B0
:102BE000E00707D032463B4640464946FDF7D4FB56
:102BF0008046894632463B4610461946FDF7CCFBD7
:102C000006460F466410002CEAD1DDE90401DDE937
:102C10000023BAF1000F06DAFDF7BEFB42464B4631
:102C2000FDF7BAFB05E0FDF75FFD42464B46FDF7B9
:102C30005BFD04460E460022284BFDF7DDFD03D860
:102C40004FF0FF30014607E00022254B2046314679
:102C5000FDF7FBFAFDF7B7FD102409E0002C0ADBB5
:102C60000A220023FDF7AEFA039B30321A55641E88
:102C700050EA0102F2D1641C039AC4F11103144416
:102C8000119A012A03D0012208430DD10AE008431A
:102C900004D000204FF0110B119072E7A3EB0B054D
:102CA0006D1E0DE05B4504DD4FF0000205F10105EE
:102CB00004E003DA4FF00002A5F10105002AECD090
:102CC00002981199C0E90231C0E9004579E7000096
:102CD000000014400000F03F300000000000F0430E
:102CE0000000E03F2DE9FF4F95B09A468846064622
:102CF0000025EEE1252877D100242746F94A012155
:102D0000039400E0044316F8013F203B01FA03F06E
:102D10001042F7D130782A2811D06FF02F03307885
:102D2000A0F13002092A16D8039A44F0020402EBFB
:102D3000820203EB42021044761C0390EFE758F83E
:102D4000042B0392002A03DA504244F40054039007
:102D500044F00204761C30782E2816D116F8010FA4
:102D600044F004042A280DD06FF02F023078A0F12F
:102D70003003092B09D807EB870302EB4303C7187D
:102D8000761CF3E758F8047B761C30786C280FD05B
:102D900006DC4C2817D068280DD06A2814D104E02E
:102DA000742810D07A280FD10DE044F400140AE002
:102DB00044F4801401E044F440147278824202D159
:102DC00004F58014761C761C307866280BD013DC52
:102DD000582877D009DC002875D04528F6D0462839
:102DE000F4D047281AD193E118E0632835D064283D
:102DF00079D0652812D18BE1702873D008DC672860
:102E0000F1D069286FD06E280DD06F2806D1ACE0C4
:102E100073282CD0752874D0782853D0524617992F
:102E200090476D1C54E1C4F30250022809D00328D6
:102E30000DD0D8F8001004280DD00D6008F104085A
:102E400046E1D8F80010EA17C1E90052F6E7D8F8D1
:102E500000100D80F2E70D70F0E718F8041B8DF8F4
:102E6000001000208DF80100EB46012003E058F827
:102E700004BB4FF0FF3061074FF0000102D40DE0BA
:102E800009F101018946B9420FDA8145F8DB1BF8E7
:102E900009100029F4D108E009F1010189468142B5
:102EA000FADB1BF809100029F6D103985346A0EB72
:102EB000090721463846179A00F080FA284400EBAB
:102EC000090507E044E008E10DE01BF8010B52465C
:102ED00017999047B9F10109F7D253462146384670
:102EE000179AF2E039E00A21C4F302524FF0000BC6
:102EF0000091022A06D058F8040BC117032A09D002
:102F00000AE023E008F1070020F00702F2E80201DE
:102F1000904605E000B2C117042A01D140B2C117A2
:102F2000002906DA0A460021404261EB02012D2207
:102F300002E0220504D52B228DF80420012203E0B3
:102F4000E20701D02022F7E7914657E00A2100E08E
:102F500010214FF0000B00910BE010214FF0000BFF
:102F600044F004040827009103E008204FF0000B10
:102F70000090C4F30252022A05D058F8040B002135
:102F8000032A08D008E008F1070020F00702F2E861
:102F90000201904603E080B2042A00D1C0B24FF093
:102FA000000922072AD53278702A07D0DDF800C040
:102FB0008CF0100C5CEA0B0C05D00EE040228DF872
:102FC0000420012208E050EA010306D030238DF8E6
:102FD00004308DF8052002229146009B83F00803FF
:102FE00053EA0B030AD150EA010201D1620705D569
:102FF00030228DF804204FF001097F1E3278582AC4
:1030000004D039A20C920CAA02920BE03BA2F9E781
:103010005B46009AFDF7D6F80C9B9B5C029A521E09
:103020000292137050EA0102F2D1029804A9081A20
:1030300000F1200B600702D524F4803400E0012762
:103040005F4502DDA7EB0B0000E0002000EB0B0169
:10305000009003984944401A0390E00306D4534675
:103060002146179A039800F0A9F90544002706E0C5
:1030700001A85246C05D179990476D1C7F1C4F45B3
:10308000F6DBE0030CD553462146179A039800F06F
:1030900095F9054404E030205246179990476D1C7D
:1030A0000099481E00900029F5DC08E0029802997A
:1030B00052460078491C0291179990476D1CBBF14C
:1030C0000001ABF1010BF1DC5BE100F065F90544B7
:1030D000761C307800287FF40DAE19B02846BDE884
:1030E000F08F000009280100303132333435363793
:1030F0003839616263646566000000003031323344
:1031000034353637383941424344454600000000E3
:10311000600700D4062708F1070020F00700F0E858
:103120000223804603F0004C5FEA0C0001D097A018
:1031300009E0200501D596A005E0E00701D095A0A3
:1031400001E0AFF24C001390307823F00043652883
:103150000CD006DC452809D046281DD047287FD151
:103160003BE0662818D067287AD136E00021112F7D
:1031700001DB112000E0781CCDE9000104A90CA8B6
:10318000FFF7EEFCDDE90D010C9A4FF0000B07F1A3
:103190000109109200914EE04FF000400097CDE9F8
:1031A000011004A90CA8FFF7DBFCDDE90D020C9B64
:1031B0000F994FF0000B91461093009211B9791CB2
:1031C00000EB0109B7EB090003D4C0F1FF3B07F1A5
:1031D0000109A9EB0700019042E0012F00DA012765
:1031E0000021112F01DD112000E03846CDE900015A
:1031F00004A90CA8FFF7B4FCDDE90D010C9A0091BD
:103200004FF0000BB946109221070FD4009A4A459F
:1032100003DA914601E0A9F10109B9F1010F05DDD9
:10322000109AA9F10101515C3029F4D0B84202DAB8
:1032300010F1040F03DA0121CDE9011010E000289C
:1032400003DC8344A9EB000102E0411C494500DD99
:103250008946A0EB0B00401C01904FF0004002900B
:10326000200705D40198484502DB4FF0FF3001905C
:1032700000208DF84B0002980DF14B07B0F1004F84
:1032800025D002200C902B200D90029800280CDAFB
:10329000404202902D200D9007E00A210298FDF790
:1032A00048F93031029007F8011D0C99481E0C9026
:1032B0000029F2DC02980028EFD1791E0D980870E1
:1032C000307800F0200040F0450007F8020D11A80A
:1032D000C01BC01D02901398007800B1012000EBC4
:1032E0000901019801EBE071029801440398401A2A
:1032F000401E0390E00306D453462146179A0398D4
:1033000000F05CF805441398007818B152461799FC
:1033100090476D1CE00323D553462146179A039826
:1033200000F04CF805441BE0BBF1000F07DB0098F0
:10333000584504DD1098179910F80B0001E0179913
:1033400030205246904701980BF1010B401E05F1C9
:103350000105019004D12E205246179990476D1C0B
:10336000B9F10001A9F10109DEDC05E017F8010B54
:103370005246179990476D1C0299481E02900029E9
:10338000F4DC53462146179A03989EE62D00000070
:103390002B000000200000002DE9F041044600252C
:1033A0001E461746880404D405E039462020B0475D
:1033B0006D1C641EF9D52846BDE8F0812DE9F04169
:1033C000044600251E469046C80301D5302700E07C
:1033D0002027880404D505E041463846B0476D1CD7
:1033E000641EF9D52846BDE8F0810A68531C0B60BD
:1033F0001070704770B5514C002208212046FDF72F
:103400000DFDC820FDF7BAFB012208212046FDF77B
:1034100005FD6420FDF7B2FB494D04202870AC1C6B
:103420002078484A207820784FF6FF76217806EAFF
:1034300000200143918044A0FFF74EFB3620287006
:10344000002020703A20287005202070B2202870BB
:103450000C202070207000202070332020702070FD
:10346000B720287035202070BB20287037202070AE
:10347000C02028702C202070C220287001202070CD
:10348000C320287012202070C420287020202070B3
:10349000C62028700F202070D0202870A420207013
:1034A000A1202070E0202870D020207004202070FF
:1034B0000D20207011202070132020702B202070F0
:1034C0003F202070542020704C2020701820207045
:1034D0000D2020700B2020701F20207023202070D2
:1034E000E1202870D0202070042020700C20207053
:1034F00011202070132020702C2020703F2020707D
:1035000044202070512020702F2020701F20207018
:10351000207020202070232020702120287011206E
:1035200028707820FDF72AFB292028700020FEF75C
:10353000FFFE3046BDE8704000F05CB8000C024071
:10354000FEFF03685C0100204C43442049443A20BC
:103550002578000013B54FF47A73012269460248BA
:10356000FEF776FC00981CBD1401002010B5002861
:1035700021D0114B0022001F196803E0814203D8BB
:103580000A4649680029F9D152B11368841A9C424D
:1035900004D1006818441060104602E0506000E05A
:1035A000186039B102680B1A934203D10B681A44B0
:1035B00002604968416010BD20000020F0B40B4D4E
:1035C0000B4EAC7A3470070AB41C27702070100AB6
:1035D00020702270287B3070080A20702170180A31
:1035E00020702370F0BCFEF7C1BE00005C0100201B
:1035F000FEFF036870B506460A480025018840882A
:1036000000FB01F4401E491E83B28AB229462846B7
:10361000FFF7D4FF03E0304600F0C0F96D1CA5426F
:10362000F9D370BD5C010020014A108051807047C1
:10363000180000202DE9F05F1D46F023A3EB550391
:10364000834248D3C5F1F0038B4244D3203A4FEA7A
:103650005509D4B205FB05FA09FB05F6102D08D073
:10366000182D68D0202D79D0BDE8F05F9E48FFF777
:1036700033BA01F10F0293B2C21D92B2FFF79EFF5F
:103680004FF4807000F0BCF9DFF860E2070001D071
:10369000002047E000276C43F24609FB04F9DFF8FD
:1036A000508215E007EBD90100241AF801502806D2
:1036B00002D5B8F8020001E0B8F8000000F06EF999
:1036C0006806641C050EE4B2082CF0D37F1CFFB220
:1036D000B7EBD60FE6D3BDE8F09F00BF04FB05F1C2
:1036E00001FB09F100EBD102DFF804B21EF8023051
:1036F00000211A0602D5BBF8022001E0BBF8002029
:1037000001EBC00C4FEA122807F81C8007EB4C0CA9
:10371000491C8CF801205A06130EC9B20829E8D3B7
:10372000401CC0B2B0EBD60FD8D35146384600F09B
:1037300029F9384671E001F1170293B200F10B024A
:1037400092B2FFF73BFF4FF4107000F059F90600FA
:103750004FEA05194FF0000025D056E068E000BFA1
:1037600004FB05F00101634808EBD101475C5FEA07
:10377000C87009D00420DFF878B1824600263806E8
:1037800004D5BBF8020003E00820F4E7BBF8000012
:1037900000F004F97806761C070EF6B25645EED313
:1037A00008F10100C0B28046B0EBD90FD8D392E740
:1037B00004FB05F1090100EBD1024E498B5CC10706
:1037C0000BD004270022DFF828E1410801EB410B70
:1037D000190604D5BEF8021003E00827F2E7BEF888
:1037E0000010082F4FEA112802EB8B0C19D006EBC2
:1037F0004C0C8CF810808CF811105906521C0B0ED2
:10380000D2B2BA42E4D3401CC0B2B0EBD90FCFD38E
:103810005146304600F0B6F83046BDE8F05FFFF79D
:10382000A5BE06F81C8006EB4C0C8CF80110E4E7F2
:1038300001F11F0293B200F10F0292B2FFF7BEFE38
:103840004FF4806000F0DCF8DFF8ACE0070001D056
:10385000002045E000276C4309FB04F9F246DFF83D
:10386000908015E007EBD90100241AF801502806D2
:1038700002D5B8F8020001E0B8F8000000F08EF8B8
:103880006806641C050EE4B2082CF0D37F1CFFB25E
:10389000B7EBD60FE6D31EE704FB05F101FB09F1F8
:1038A00000EBD102DFF848B01EF8023000211A0602
:1038B00002D5BBF8022001E0BBF8002001EBC00CF0
:1038C0004FEA122807F81C8007EB4C0C491C8CF8B7
:1038D00001205A06130EC9B20829E8D3401CC0B211
:1038E000B0EBD60FD8D320E784690008843A0008EB
:1038F0001800002064400008045200082DE9F04739
:103900001F460E4605461446102A07D0182C05D02F
:10391000202C03D0114613A0FFF7DEF8F020A0EB17
:103920005409C4F1F0084FF4784A3878002816D0CA
:10393000A94502D20025301986B2B04504D200252F
:103940002E465046FFF756FE3A7823463146284623
:10395000FFF770FE05EB540085B27F1CE5E7BDE87C
:10396000F0870000666F6E742073697A652825649D
:1039700029206973206E6F7420737570706F727474
:1039800021000000002806D0034B491E03D310F885
:10399000012B1A70F9E7704700000468010A01EB77
:1039A000002001494880704700000468FDF7DCFCF6
:1039B000FEF71CFEFEF72AFDFEF7E2FCFEF77CFD9B
:1039C000FEF79AFDFEF7CEFD0C48FEF777F80021D2
:1039D0000A48FEF771F9FEF7BBFCFCF737FF4FF41E
:1039E000FA6500BFFCF7D6FF0446FCF76FFF2046E0
:1039F000FCF7FCFF2846FDF7C1F8F3E7CC000020F8
:103A0000F0B50B30154D20F007010024144A0FE0EB
:103A100003688B420BD38B4205D95E1A4318476863
:103A2000C3E9006700E04368136002C004E0021DC0
:103A300010680028ECD12046002802D1286808B17F
:103A40000020F0BD064A07481060074A121A22F00B
:103A50000702C0E9002401202860D7E724000020E5
:103A600020000020740100207003002000000000EE
:103A7000000000000102030406070809000000001E
:103A8000010203040000000000000000000000002C
:103A900000000000000000101010101010000010B6
:103AA0001000000000000028282828000000000066
:103AB000000000000000001212167F2424FE284897
:103AC00048000000000008083E4948683E0B0949CC
:103AD0003E080800000000609090620C3046090922
:103AE000060000000000001C2020303049454562DF
:103AF0003D00000000000010101010000000000049
:103B00000000000000000C08081010101010100831
:103B10000804000000003010100808080808081009
:103B20001030000000000008493E1C6B0800000037
:103B3000000000000000000000101010FE10101027
:103B4000000000000000000000000000000000185D
:103B500018102000000000000000000000380000E5
:103B6000000000000000000000000000000000183D
:103B700018000000000000020404040808101020CF
:103B8000202040000000001C2241414941414122C7
:103B90001C00000000000018280808080808080891
:103BA0003E0000000000003E43010102060C102010
:103BB0007F0000000000003E4101031C030101439F
:103BC0003E000000000000060A1A1222427F020294
:103BD000020000000000007E40407C4201010142E2
:103BE0003C0000000000001E3160405E6341412344
:103BF0001E0000000000007F0302040408081010EB
:103C0000200000000000003E4141413E634141630D
:103C10003E0000000000003C624141633D0103465C
:103C20003C00000000000000000018180000001810
:103C30001800000000000000000018180000001824
:103C4000181020000000000000010E3840380E015E
:103C5000000000000000000000007F00007F000066
:103C600000000000000000000040380E010E384047
:103C7000000000000000003844040C181010001070
:103C8000100000000000001E332147494949494700
:103C900020300E000000000814141414223E2241AB
:103CA000410000000000007E4141417E434141430C
:103CB0007E0000000000001E2140404040404021A6
:103CC0001E0000000000007C424141414141414250
:103CD0007C0000000000007F4040407F40404040AA
:103CE0007F0000000000007F4040407F4040404097
:103CF000400000000000001E21404040434141219F
:103D00001E000000000000414141417F414141410E
:103D1000410000000000007C101010101010101066
:103D20007C0000000000001C04040404040404449B
:103D30003800000000000042444850707848444673
:103D400042000000000000404040404040404040F1
:103D50007F00000000000063635555554941414113
:103D6000410000000000006161515149494545434F
:103D7000430000000000001C22414141414141221A
:103D80001C0000000000007E434141437E40404053
:103D9000400000000000001C2241414141414122FD
:103DA0001E0602000000007E434141437C42414127
:103DB000400000000000001E614040300E01014341
:103DC0003E000000000000FE101010101010101037
:103DD0001000000000000041414141414141416368
:103DE0003E0000000000004141222222141414145D
:103DF000080000000000008181815A5A5A666666F8
:103E0000660000000000004122141408141422224D
:103E100041000000000000824444283810101010B7
:103E2000100000000000007F03020408081020605A
:103E30007F00000000001C10101010101010101057
:103E4000101C000000000040202020101008080472
:103E500004040200000038080808080808080808D8
:103E600008380000000000102844C60000000000D0
:103E70000000000000000000000000000000000042
:103E8000000000FF003010080000000000000000EB
:103E90000000000000000000001C22023E424246DA
:103EA0003A00000000004040407C644242424264CC
:103EB0005C00000000000000001C22404040402246
:103EC0001C00000000000202023E2642424242263E
:103ED0003A00000000000000003C26427E404022E4
:103EE0001C00000000000C10107C101010101010AE
:103EF0001000000000000000003A26424242422624
:103F00003A02221C00004040405C6242424242426F
:103F1000420000000000101000701010101010106F
:103F20007C0000000000080800380808080808089D
:103F30000808087000004040404448507048484419
:103F4000420000000000701010101010101010102F
:103F50000E00000000000000007E4949494949491F
:103F60004900000000000000005C62424242424200
:103F70004200000000000000003C664242424266EF
:103F80003C00000000000000005C644242424264C9
:103F90007C40404000000000003A26424242422657
:103FA0003A02020200000000003C322020202020C3
:103FB0002000000000000000003C4240700E024261
:103FC0003C00000000000010107E101010101010B7
:103FD0000E00000000000000004242424242424601
:103FE0003A00000000000000004242242424181877
:103FF00018000000000000000081815A5A5A5A241B
:104000002400000000000000004224181818242496
:10401000420000000000000000422224241418186E
:104020000808103000000000007E02040810204044
:104030007E00000000000C10101010106010101016
:1040400010100C00000010101010101010101010A4
:104050001010101000006010101010100C10101034
:1040600010106000000000000000000000000000D0
:104070000000000000000000000000000000000040
:104080000000000000000000000000000000000030
:104090000000000000000000000000000600060014
:1040A00006000600060006000600060006000600E0
:1040B00000000000060006000600000000000000EE
:1040C00000000000000000000000000019801980BE
:1040D000198019801980198000000000000000007C
:1040E00000000000000000000000000000000000D0
:1040F0000000000000000000000000000660044016
:104100000CC00CC07FF07FF0088019801980FFE0A0
:10411000FFE0330033002200220000000000000016
:1041200000000000000000000000020002000F80FC
:104130001FC03A40320032003A001F0007C002E0C0
:104140000260026022E03FC01F8002000200020005
:10415000000000000000000000000000780048009F
:10416000CC00CC00CC00484079C00E0073C00240A7
:10417000066006600660024003C000000000000008
:104180000000000000000000000000000F801F8001
:104190001800180018000C001E003630633063B0A1
:1041A00061A060E030C03F600E70000000000000C1
:1041B00000000000000000000000000006000600F3
:1041C00006000600060006000000000000000000D7
:1041D00000000000000000000000000000000000DF
:1041E00000000000000000000000010002000200CA
:1041F0000600060004000C000C000C000C000C0073
:104200000C000C0004000600060002000200010081
:10421000000000000000000000000800040004008E
:104220000600060002000300030003000300030071
:10423000030003000200060006000400040008005A
:104240000000000000000000000000000400040066
:10425000444035800E000E003580444004000400C8
:10426000000000000000000000000000000000004E
:10427000000000000000000000000000000000003E
:10428000060006000600060006007FE07FE006004C
:104290000600060006000600000000000000000006
:1042A000000000000000000000000000000000000E
:1042B00000000000000000000000000000000000FE
:1042C0000000000006000600060006000C000C00BE
:1042D00000000000000000000000000000000000DE
:1042E0000000000000000000000000001F001F0090
:1042F00000000000000000000000000000000000BE
:1043000000000000000000000000000000000000AD
:10431000000000000000000000000000000000009D
:10432000000000000600060006000000000000007B
:10433000000000000000000000000000006000C05D
:1043400000C0018001800300030006000600060093
:104350000C000C0018001800300030006000000055
:104360000000000000000000000000001E003F8070
:10437000318071C060C060C066C066C060C060C08F
:1043800060C071C031803F800E000000000000005E
:1043900000000000000000000000000007001F00F7
:1043A0001B000300030003000300030003000300DD
:1043B0000300030003001FE01FE0000000000000F6
:1043C0000000000000000000000000003F007F80AF
:1043D00041C000C000C000C001C001800300060051
:1043E0000C00180030007FC07FC0000000000000FB
:1043F0000000000000000000000000003F007F807F
:1044000041C000C000C001C00F800F80018000C00B
:1044100000C000C041C07F803F00000000000000DD
:104420000000000000000000000000000380038086
:10443000078005800D80098019803180318061807E
:104440007FE07FE00180018001800000000000002B
:104450000000000000000000000000003F803F80DE
:104460003000300030003F003F8021C000C000C05D
:1044700000C000C041807F803E00000000000000BE
:104480000000000000000000000000000F001F807E
:1044900038803000700060006F007F8071C060C0A5
:1044A00060C060C031C03F801F00000000000000FD
:1044B0000000000000000000000000007FC07FC07E
:1044C0000180018001800300030003000600060054
:1044D00006000C000C000C0018000000000000009A
:1044E0000000000000000000000000001F003F80EE
:1044F00071C060C060C031801F003F80318060C0EB
:1045000060C060C071C03F801F000000000000005C
:104510000000000000000000000000001F003F80BD
:10452000718060C060C060C071C03FC01EC000C06C
:1045300000C0018023803F001E000000000000003A
:10454000000000000000000000000000000000006B
:104550000000000006000600060000000000000049
:104560000000000006000600060000000000000039
:10457000000000000000000000000000000000003B
:104580000000000006000600060000000000000019
:104590000000000006000600060006000C000C00EB
:1045A000000000000000000000000000000000000B
:1045B0000000002001E007801E00700070001E0057
:1045C000078001E000200000000000000000000063
:1045D00000000000000000000000000000000000DB
:1045E00000000000000000007FE07FE0000000000D
:1045F0007FE07FE0000000000000000000000000FD
:1046000000000000000000000000000000000000AA
:104610000000400078001E00078000E000E00780F6
:104620001E007800400000000000000000000000B4
:104630000000000000000000000000000F801FC00C
:104640001060006000E001C0038006000600060064
:104650000000000006000600060000000000000048
:1046600000000000000000000000000000000780C3
:1046700018C03060306023E062606660666066602B
:1046800066606660626033E0300018001C000780DE
:10469000000000000000000000000000060006000E
:1046A0000F000F000F001F801980198019803FC074
:1046B0003FC030C030C0606060600000000000009B
:1046C0000000000000000000000000007F007F806C
:1046D00061C060C060C061C07F807F8060C060607A
:1046E0006060606060E07FC07F80000000000000CC
:1046F00000000000000000000000000007C01FE0F4
:1047000038203000600060006000600060006000E1
:104710006000300038201FE007C0000000000000EB
:104720000000000000000000000000007E007F800C
:1047300061C060C0606060606060606060606060B8
:10474000606060C061C07F807E00000000000000EB
:104750000000000000000000000000007FE07FE09B
:1047600060006000600060007FE07FE0600060004B
:104770006000600060007FE07FE00000000000005B
:104780000000000000000000000000007FE07FE06B
:1047900060006000600060007FC07FC0600060005B
:1047A0006000600060006000600000000000000029
:1047B0000000000000000000000000000F801FC08B
:1047C0003840300060006000600061E061E06060DF
:1047D0006060306038601FE00F8000000000000063
:1047E0000000000000000000000000006060606049
:1047F00060606060606060607FE07FE0606060607B
:1048000060606060606060606060000000000000E8
:104810000000000000000000000000003FC03FC09A
:104820000600060006000600060006000600060058
:104830000600060006003FC03FC000000000000068
:104840000000000000000000000000001F801F802A
:104850000180018001800180018001800180018050
:104860000180018043807F003E00000000000000C6
:10487000000000000000000000000000606060C058
:104880006180630066006C007C007E00760063003F
:104890006380618060C060E0606000000000000034
:1048A0000000000000000000000000006000600048
:1048B00060006000600060006000600060006000F8
:1048C0006000600060007FE07FE00000000000000A
:1048D00000000000000000000000000070E070E038
:1048E00070E079E0696069606F606660666066606C
:1048F00060606060606060606060000000000000F8
:104900000000000000000000000000007060706007
:10491000786078606C606C60646066606260636040
:10492000636061E061E060E060E0000000000000C2
:104930000000000000000000000000000F003FC069
:1049400030C070E0606060606060606060606060A7
:10495000606070E030C03FC00F0000000000000049
:104960000000000000000000000000007F807FC009
:1049700060E060606060606060E07FC07F806000D9
:104980006000600060006000600000000000000047
:104990000000000000000000000000000F003FC009
:1049A00030C070E060606060606060606060606047
:1049B000606070E030C01F800F00018000C0008088
:1049C0000000000000000000000000007F007FC029
:1049D00060E060606060606060C07FC07F8061C0D8
:1049E00060C0606060606030603000000000000007
:1049F0000000000000000000000000001F803FC019
:104A000070406000600070003E001F8001C00060C8
:104A10000060006040E07FC03F80000000000000B8
:104A2000000000000000000000000000FFF0FFF0A8
:104A30000600060006000600060006000600060046
:104A40000600060006000600060000000000000048
:104A500000000000000000000000000060606060D6
:104A60006060606060606060606060606060606046
:104A70006060606070E03FC01F80000000000000C8
:104A800000000000000000000000000060606060A6
:104A900030C030C030C030C01980198019801F80EC
:104AA0000F000F000F0006000600000000000000CD
:104AB000000000000000000000000000C030C03016
:104AC000C0306060666066606F606F60696069607A
:104AD00039C039C039C030C030C00000000000000B
:104AE00000000000000000000000000070E030C086
:104AF00039C019800F000F00060006000F000F00DC
:104B00001B80198031C030C060E000000000000050
:104B1000000000000000000000000000E070606085
:104B200030C030C019801F800F000600060006004C
:104B30000600060006000600060000000000000057
:104B40000000000000000000000000007FE07FE0A7
:104B500000C001C001800300070006000E000C0029
:104B60001800380030007FE07FE000000000000007
:104B70000000000000000000000007800780060021
:104B800006000600060006000600060006000600F5
:104B900006000600060006000600060007800780E3
:104BA0000000000000000000000000006000300075
:104BB0003000180018000C000C000600060006006B
:104BC000030003000180018000C000C000600000FD
:104BD000000000000000000000000F000F000300B4
:104BE00003000300030003000300030003000300AD
:104BF0000300030003000300030003000F000F0085
:104C000000000000000000000000000007000F800E
:104C10000D8018C03060603000000000000000000F
:104C20000000000000000000000000000000000084
:104C30000000000000000000000000000000000074
:104C40000000000000000000000000000000000064
:104C50000000000000000000000000000000000054
:104C6000FFF0FFF00000000018000C000600030039
:104C70000000000000000000000000000000000034
:104C80000000000000000000000000000000000024
:104C90000000000000000000000000000000000014
:104CA000000000001F003F8021C000C01FC03FC0A7
:104CB00070C060C061C07FC01CC000000000000068
:104CC00000000000000000000000600060006000C4
:104CD000600060006F007F80718060C060C060C055
:104CE00060C060C071807F806F0000000000000025
:104CF00000000000000000000000000000000000B4
:104D0000000000000F003F80308060006000600005
:104D10006000600030803F800F0000000000000055
:104D20000000000000000000000000C000C000C043
:104D300000C000C01EC03FC031C060C060C060C0C5
:104D400060C060C031C03FC01EC000000000000055
:104D50000000000000000000000000000000000053
:104D6000000000000F003F8031C060C07FC07FC0E6
:104D70006000600030403FC00F8000000000000075
:104D80000000000000000000000001E003E0060059
:104D9000060006003FE03FE00600060006000600B1
:104DA00006000600060006000600000000000000E5
:104DB00000000000000000000000000000000000F3
:104DC000000000001EC03FC031C060C060C060C0B5
:104DD00060C060C031C03FC01EC000C021C03F8065
:104DE0001F00000000000000000060006000600084
:104DF0006000600067007F8071C060C060C060C0FC
:104E000060C060C060C060C060C000000000000002
:104E10000000000000000000000006000600000086
:104E2000000000003E003E000600060006000600EE
:104E30000600060006007FE07FE0000000000000A2
:104E4000000000000000000000000300030000005C
:104E5000000000001F001F00030003000300030008
:104E600003000300030003000300030003003E00EF
:104E70003C000000000000000000600060006000D6
:104E80006000600061C0638067006E007C007C0091
:104E9000760067006300618061C0000000000000D0
:104EA00000000000000000000000FC00FC000C00FE
:104EB0000C000C000C000C000C000C000C000C0092
:104EC0000C000C000E0007C003C000000000000032
:104ED00000000000000000000000000000000000D2
:104EE000000000006DC07FE066606660666066601E
:104EF00066606660666066606660000000000000D4
:104F000000000000000000000000000000000000A1
:104F10000000000067007F8071C060C060C060C09A
:104F200060C060C060C060C060C0000000000000E1
:104F30000000000000000000000000000000000071
:104F4000000000001F003F80318060C060C060C072
:104F500060C060C031803F801F0000000000000082
:104F60000000000000000000000000000000000041
:104F7000000000006F007F80718060C060C060C072
:104F800060C060C071807F806F0060006000600062
:104F900060000000000000000000000000000000B1
:104FA000000000001EC03FC031C060C060C060C0D3
:104FB00060C060C031C03FC01EC000C000C000C0A3
:104FC00000C0000000000000000000000000000021
:104FD000000000000CE00DF00F100E000C000C00A3
:104FE0000C000C000C000C000C0000000000000085
:104FF00000000000000000000000000000000000B1
:10500000000000001F803FC0604060007F001F80E4
:1050100001C000C041C07F803F00000000000000D0
:1050200000000000000000000000000000000C0074
:105030000C000C007FC07FC00C000C000C000C00AA
:105040000C000C000C000FC007C0000000000000A6
:105050000000000000000000000000000000000050
:105060000000000060C060C060C060C060C060C080
:1050700060C060C071C03FC01CC0000000000000E4
:105080000000000000000000000000000000000020
:105090000000000060C071C0318031803B801B0087
:1050A0001B001B000E000E000E00000000000000A0
:1050B00000000000000000000000000000000000F0
:1050C00000000000C030C0306060666066606660EE
:1050D0003FC039C039C039C030C0000000000000F6
:1050E00000000000000000000000000000000000C0
:1050F0000000000071C031801B001F000E000E0078
:105100000E001F001B00318071C000000000000075
:10511000000000000000000000000000000000008F
:105120000000000060C03180318031801B001B0016
:105130001F000E000E0006000C000C000C003800D2
:105140003800000000000000000000000000000027
:10515000000000007FC07FC00380030007000E0036
:105160001C00180030007FC07FC00000000000005D
:105170000000000000000000000003C007C006009F
:10518000060006000600060006003C003C000E007B
:1051900006000600060006000600060007C003C061
:1051A00000000000000000000000060006000600ED
:1051B00006000600060006000600060006000600BF
:1051C00006000600060006000600060006000600AF
:1051D000060006000000000000003C003E00060043
:1051E0000600060006000600060003C003C0070014
:1051F0000600060006000600060006003E003C0011
:10520000000000000000000000000000000000009E
:10521000000000000000000000000000000000008E
:10522000000000000000000000000000000000007E
:10523000000000000000000000000000000000006E
:10524000000000000000000000000000000000005E
:1052500001C001C001C001C001C001C001C001C046
:1052600001C001C001C001C001C001C000000000B8
:10527000000001C001C001C00000000000000000EB
:10528000000000000000000000000000000000001E
:10529000063006300630063006300630063006305E
:1052A00000000000000000000000000000000000FE
:1052B00000000000000000000000000000000000EE
:1052C0000000000000000000000000000000018C51
:1052D000038C030C0318031803187FFF7FFF0630AD
:1052E00006300E300C700C60FFFEFFFE186018C018
:1052F00018C018C030C0318000000000000000005D
:10530000000000000000000000000000000000801D
:105310000080008003F00FFC0E8C1C801C801C8021
:105320001C800E800FE003F800FC009E008E008EB3
:10533000008E109C1FF807F0008000800080008025
:10534000000000000000000000000000000000005D
:105350003C007E00E700C300C300C300E7007E1CE2
:105360003C7801C007003C7870FC01CE01860186C4
:10537000018601CE00FC0078000000000000000063
:10538000000000000000000000000000000000001D
:1053900007C00FE01E201C001C001C001E000E0099
:1053A0000F001F003F8333C371E370E370F6707E1C
:1053B000783C3C3E1FEE07CF0000000000000000DC
:1053C00000000000000000000000000000000000DD
:1053D00001800180018001800180018001800180C5
:1053E00000000000000000000000000000000000BD
:1053F00000000000000000000000000000000000AD
:10540000000000000000000000000000000000306C
:105410000060006000E000C001C001C001800380A6
:105420000380038003800380038003800380038064
:10543000018001C001C000C000E0006000600030D9
:105440000000000000000000000000000000060056
:10545000030003000380018001C001C000C000E020
:1054600000E000E000E000E000E000E000E000E03C
:1054700000C001C001C001800380030003000600DA
:10548000000000000000000000000000000000001C
:10549000018001802184399C0FF003C003C00FF00C
:1054A000399C218401800180000000000000000080
:1054B00000000000000000000000000000000000EC
:1054C00000000000000000000000000000000000DC
:1054D00000000000000000000180018001800180C8
:1054E000018001807FFE7FFE0180018001800180BC
:1054F00001800180000000000000000000000000AA
:10550000000000000000000000000000000000009B
:10551000000000000000000000000000000000008B
:10552000000000000000000000000000000000007B
:1055300001C001C001C001C00180038003800300DD
:10554000000000000000000000000000000000005B
:10555000000000000000000000000000000000004B
:1055600000000000000007F007F00000000000004D
:10557000000000000000000000000000000000002B
:10558000000000000000000000000000000000001B
:10559000000000000000000000000000000000000B
:1055A00000000000000000000000000000000000FB
:1055B00003800380038003800000000000000000DF
:1055C00000000000000000000000000000000000DB
:1055D000001C0038003800700070007000E000E02F
:1055E00001C001C0038003800380070007000E0094
:1055F0000E001C001C001C00380038007000000069
:10560000000000000000000000000000000000009A
:1056100003E00FF80E381C1C1C1C380E380E380E18
:1056200039CE39CE39CE380E380E380E380E1C1C15
:105630001C1C0E380FF803E0000000000000000002
:10564000000000000000000000000000000000005A
:1056500003E00FE00CE000E000E000E000E000E02C
:1056600000E000E000E000E000E000E000E000E03A
:1056700000E000E00FFE0FFE000000000000000050
:10568000000000000000000000000000000000001A
:105690000FE03FF8383C201E000E000E000E000EFA
:1056A000001E003C007C00F800F001E003C0070091
:1056B0000E001C003FFE3FFE000000000000000046
:1056C00000000000000000000000000000000000DA
:1056D00007F01FF8181C000E000E000E000E003C14
:1056E00007F007F0003C001C000E000E000E000E3C
:1056F000001E303C3FF80FE00000000000000000FA
:105700000000000000000000000000000000000099
:10571000007000F001F001F00370077006700C706B
:105720000C7018703870307060707FFE7FFE0070F3
:1057300000700070007000700000000000000000A9
:105740000000000000000000000000000000000059
:105750001FFC1FFC1C001C001C001C001FE01FF88D
:10576000103C001C000E000E000E000E000E000E7D
:10577000001C203C3FF81FE000000000000000007B
:105780000000000000000000000000000000000019
:1057900001F807FC0F041E001C001C00380039F043
:1057A0003BF83E3C3C1E380E380E380E380E180EB4
:1057B0001C1C0E3C0FF803F000000000000000006D
:1057C00000000000000000000000000000000000D9
:1057D0003FFE3FFE001E001C001C00380038003851
:1057E0000070007000F000E000E001E001C001C0C6
:1057F0000380038003800700000000000000000019
:105800000000000000000000000000000000000098
:1058100007F01FFC1C1C380E380E380E380E1C1CEE
:1058200007F00FF81E3C1C1C380E380E380E380ED0
:105830003C1E1E3C0FF807F00000000000000000B6
:105840000000000000000000000000000000000058
:1058500007E00FF81E383C1C380C380E380E380E96
:10586000380E3C1E1E3E0FEE07CE000E001C001C24
:10587000003C10781FF00FC0000000000000000086
:105880000000000000000000000000000000000018
:105890000000000000000000000000000380038002
:1058A00003800380000000000000000000000000F2
:1058B00003800380038003800000000000000000DC
:1058C00000000000000000000000000000000000D8
:1058D00000000000000000000000000003800380C2
:1058E00003800380000000000000000000000000B2
:1058F0000380038003800380030007000700060085
:105900000000000000000000000000000000000097
:1059100000000000000000000002001E007E01F8F0
:105920000FC03F00780078003F000FC001F8007EF4
:10593000001E000200000000000000000000000047
:105940000000000000000000000000000000000057
:105950000000000000000000000000000000000047
:105960007FFE7FFE0000000000007FFE7FFE000043
:105970000000000000000000000000000000000027
:105980000000000000000000000000000000000017
:105990000000000000000000400078007E001F8032
:1059A00003F000FC001E001E00FC03F01F807E00C0
:1059B000780040000000000000000000000000002F
:1059C00000000000000000000000000000000000D7
:1059D00003E00FF81C38101C001C003C003C007851
:1059E00000F001E003C00380038003800380000017
:1059F000000003800380038000000000000000001E
:105A00000000000000000000000000000000000096
:105A1000000001F807FC0E0E1C0618033003307B53
:105A200061FF618763036303630363036303618748
:105A300071FF307B300018001C000F0403FC00FCD9
:105A40000000000000000000000000000000000056
:105A500001C003E003E003E003E007700770077094
:105A60000F780E380E380E381FFC1FFC1C1C380E29
:105A7000380E380E780F700700000000000000009C
:105A80000000000000000000000000000000000016
:105A90003FE03FF83838381C381C381C381C383880
:105AA0003FF03FF0383C381C380E380E380E380EB8
:105AB000381E383C3FF83FE00000000000000000C6
:105AC00000000000000000000000000000000000D6
:105AD00001F807FC0F0C1E041C001C0038003800E5
